{
  "contractName": "Citizen",
  "abi": [
    {
      "inputs": [],
      "payable": false,
      "stateMutability": "nonpayable",
      "type": "constructor"
    },
    {
      "anonymous": false,
      "inputs": [
        {
          "indexed": false,
          "internalType": "address",
          "name": "_admin_address",
          "type": "address"
        }
      ],
      "name": "adminAdded",
      "type": "event"
    },
    {
      "anonymous": false,
      "inputs": [
        {
          "indexed": false,
          "internalType": "address",
          "name": "_admin_address",
          "type": "address"
        }
      ],
      "name": "adminRemoved",
      "type": "event"
    },
    {
      "anonymous": false,
      "inputs": [
        {
          "indexed": false,
          "internalType": "string",
          "name": "_username",
          "type": "string"
        },
        {
          "indexed": false,
          "internalType": "string",
          "name": "_alias",
          "type": "string"
        }
      ],
      "name": "aliasAdded",
      "type": "event"
    },
    {
      "anonymous": false,
      "inputs": [
        {
          "indexed": false,
          "internalType": "string",
          "name": "_alias",
          "type": "string"
        }
      ],
      "name": "aliasDeleted",
      "type": "event"
    },
    {
      "anonymous": false,
      "inputs": [
        {
          "indexed": false,
          "internalType": "string",
          "name": "_username",
          "type": "string"
        },
        {
          "indexed": false,
          "internalType": "string",
          "name": "_ref_by",
          "type": "string"
        },
        {
          "indexed": false,
          "internalType": "address",
          "name": "_wallet_address",
          "type": "address"
        }
      ],
      "name": "citizenAdded",
      "type": "event"
    },
    {
      "anonymous": false,
      "inputs": [
        {
          "indexed": false,
          "internalType": "string",
          "name": "_ref_by",
          "type": "string"
        },
        {
          "indexed": false,
          "internalType": "string",
          "name": "_username",
          "type": "string"
        }
      ],
      "name": "refUpdated",
      "type": "event"
    },
    {
      "anonymous": false,
      "inputs": [
        {
          "indexed": false,
          "internalType": "address",
          "name": "_wallet_address",
          "type": "address"
        },
        {
          "indexed": false,
          "internalType": "string",
          "name": "_username",
          "type": "string"
        }
      ],
      "name": "walletUpdated",
      "type": "event"
    },
    {
      "constant": true,
      "inputs": [
        {
          "internalType": "uint256",
          "name": "",
          "type": "uint256"
        }
      ],
      "name": "admin_address",
      "outputs": [
        {
          "internalType": "address",
          "name": "",
          "type": "address"
        }
      ],
      "payable": false,
      "stateMutability": "view",
      "type": "function"
    },
    {
      "constant": true,
      "inputs": [
        {
          "internalType": "string",
          "name": "",
          "type": "string"
        }
      ],
      "name": "aliases",
      "outputs": [
        {
          "internalType": "string",
          "name": "username",
          "type": "string"
        },
        {
          "internalType": "bool",
          "name": "exists",
          "type": "bool"
        }
      ],
      "payable": false,
      "stateMutability": "view",
      "type": "function"
    },
    {
      "constant": true,
      "inputs": [
        {
          "internalType": "string",
          "name": "",
          "type": "string"
        }
      ],
      "name": "citizen",
      "outputs": [
        {
          "internalType": "address",
          "name": "wallet_address",
          "type": "address"
        },
        {
          "internalType": "string",
          "name": "ref_by",
          "type": "string"
        },
        {
          "internalType": "bool",
          "name": "exists",
          "type": "bool"
        },
        {
          "internalType": "uint256",
          "name": "total_withdrawed",
          "type": "uint256"
        },
        {
          "internalType": "uint256",
          "name": "total_refs",
          "type": "uint256"
        },
        {
          "internalType": "uint256",
          "name": "total_sales",
          "type": "uint256"
        },
        {
          "internalType": "uint256",
          "name": "total_ref_income",
          "type": "uint256"
        }
      ],
      "payable": false,
      "stateMutability": "view",
      "type": "function"
    },
    {
      "constant": true,
      "inputs": [],
      "name": "foundation",
      "outputs": [
        {
          "internalType": "address",
          "name": "",
          "type": "address"
        }
      ],
      "payable": false,
      "stateMutability": "view",
      "type": "function"
    },
    {
      "constant": true,
      "inputs": [
        {
          "internalType": "string",
          "name": "",
          "type": "string"
        },
        {
          "internalType": "string",
          "name": "",
          "type": "string"
        }
      ],
      "name": "map_index",
      "outputs": [
        {
          "internalType": "uint256",
          "name": "",
          "type": "uint256"
        }
      ],
      "payable": false,
      "stateMutability": "view",
      "type": "function"
    },
    {
      "constant": true,
      "inputs": [
        {
          "internalType": "address",
          "name": "",
          "type": "address"
        }
      ],
      "name": "wallet_addresses",
      "outputs": [
        {
          "internalType": "bool",
          "name": "",
          "type": "bool"
        }
      ],
      "payable": false,
      "stateMutability": "view",
      "type": "function"
    },
    {
      "constant": true,
      "inputs": [
        {
          "internalType": "address",
          "name": "",
          "type": "address"
        }
      ],
      "name": "wallet_username",
      "outputs": [
        {
          "internalType": "string",
          "name": "",
          "type": "string"
        }
      ],
      "payable": false,
      "stateMutability": "view",
      "type": "function"
    },
    {
      "constant": true,
      "inputs": [
        {
          "internalType": "address",
          "name": "_admin_address",
          "type": "address"
        }
      ],
      "name": "isAdmin",
      "outputs": [
        {
          "internalType": "bool",
          "name": "",
          "type": "bool"
        }
      ],
      "payable": false,
      "stateMutability": "view",
      "type": "function"
    },
    {
      "constant": false,
      "inputs": [
        {
          "internalType": "address",
          "name": "_foundation",
          "type": "address"
        }
      ],
      "name": "setFoundation",
      "outputs": [],
      "payable": false,
      "stateMutability": "nonpayable",
      "type": "function"
    },
    {
      "constant": false,
      "inputs": [
        {
          "internalType": "address",
          "name": "_admin_address",
          "type": "address"
        }
      ],
      "name": "addAdmin",
      "outputs": [],
      "payable": false,
      "stateMutability": "nonpayable",
      "type": "function"
    },
    {
      "constant": false,
      "inputs": [
        {
          "internalType": "address",
          "name": "_admin_address",
          "type": "address"
        }
      ],
      "name": "removeAdmin",
      "outputs": [],
      "payable": false,
      "stateMutability": "nonpayable",
      "type": "function"
    },
    {
      "constant": false,
      "inputs": [
        {
          "internalType": "string",
          "name": "_username",
          "type": "string"
        },
        {
          "internalType": "string",
          "name": "_ref_by",
          "type": "string"
        },
        {
          "internalType": "address",
          "name": "_wallet_address",
          "type": "address"
        }
      ],
      "name": "addCitizen",
      "outputs": [
        {
          "internalType": "string",
          "name": "",
          "type": "string"
        }
      ],
      "payable": false,
      "stateMutability": "nonpayable",
      "type": "function"
    },
    {
      "constant": false,
      "inputs": [
        {
          "internalType": "string",
          "name": "_username",
          "type": "string"
        },
        {
          "internalType": "string",
          "name": "_alias",
          "type": "string"
        }
      ],
      "name": "addAlias",
      "outputs": [
        {
          "internalType": "string",
          "name": "",
          "type": "string"
        }
      ],
      "payable": false,
      "stateMutability": "nonpayable",
      "type": "function"
    },
    {
      "constant": false,
      "inputs": [
        {
          "internalType": "string",
          "name": "_alias",
          "type": "string"
        }
      ],
      "name": "deleteAlias",
      "outputs": [],
      "payable": false,
      "stateMutability": "nonpayable",
      "type": "function"
    },
    {
      "constant": false,
      "inputs": [
        {
          "internalType": "string",
          "name": "_ref_by",
          "type": "string"
        },
        {
          "internalType": "string",
          "name": "_username",
          "type": "string"
        }
      ],
      "name": "updateRef",
      "outputs": [],
      "payable": false,
      "stateMutability": "nonpayable",
      "type": "function"
    },
    {
      "constant": false,
      "inputs": [
        {
          "internalType": "address",
          "name": "_wallet_address",
          "type": "address"
        },
        {
          "internalType": "string",
          "name": "_username",
          "type": "string"
        }
      ],
      "name": "updateWallet",
      "outputs": [
        {
          "internalType": "string",
          "name": "",
          "type": "string"
        }
      ],
      "payable": false,
      "stateMutability": "nonpayable",
      "type": "function"
    },
    {
      "constant": true,
      "inputs": [
        {
          "internalType": "string",
          "name": "_username",
          "type": "string"
        }
      ],
      "name": "getCitizenWallet",
      "outputs": [
        {
          "internalType": "address",
          "name": "",
          "type": "address"
        }
      ],
      "payable": false,
      "stateMutability": "view",
      "type": "function"
    },
    {
      "constant": true,
      "inputs": [
        {
          "internalType": "string",
          "name": "_username",
          "type": "string"
        }
      ],
      "name": "getCitizenRefBy",
      "outputs": [
        {
          "internalType": "string",
          "name": "",
          "type": "string"
        }
      ],
      "payable": false,
      "stateMutability": "view",
      "type": "function"
    },
    {
      "constant": true,
      "inputs": [
        {
          "internalType": "string",
          "name": "_username",
          "type": "string"
        }
      ],
      "name": "getRefsTo",
      "outputs": [
        {
          "internalType": "string[]",
          "name": "",
          "type": "string[]"
        }
      ],
      "payable": false,
      "stateMutability": "view",
      "type": "function"
    },
    {
      "constant": true,
      "inputs": [
        {
          "internalType": "address",
          "name": "_wallet_address",
          "type": "address"
        }
      ],
      "name": "getUsernameFromWallet",
      "outputs": [
        {
          "internalType": "string",
          "name": "",
          "type": "string"
        }
      ],
      "payable": false,
      "stateMutability": "view",
      "type": "function"
    },
    {
      "constant": true,
      "inputs": [],
      "name": "getFoundationWallet",
      "outputs": [
        {
          "internalType": "address",
          "name": "",
          "type": "address"
        }
      ],
      "payable": false,
      "stateMutability": "view",
      "type": "function"
    },
    {
      "constant": true,
      "inputs": [
        {
          "internalType": "string",
          "name": "_alias",
          "type": "string"
        }
      ],
      "name": "getUsernameFromAlias",
      "outputs": [
        {
          "internalType": "string",
          "name": "",
          "type": "string"
        }
      ],
      "payable": false,
      "stateMutability": "view",
      "type": "function"
    },
    {
      "constant": true,
      "inputs": [
        {
          "internalType": "string",
          "name": "_username",
          "type": "string"
        }
      ],
      "name": "getAlias",
      "outputs": [
        {
          "internalType": "string[]",
          "name": "",
          "type": "string[]"
        }
      ],
      "payable": false,
      "stateMutability": "view",
      "type": "function"
    },
    {
      "constant": true,
      "inputs": [
        {
          "internalType": "string",
          "name": "_alias",
          "type": "string"
        }
      ],
      "name": "isAlias",
      "outputs": [
        {
          "internalType": "bool",
          "name": "",
          "type": "bool"
        }
      ],
      "payable": false,
      "stateMutability": "view",
      "type": "function"
    }
  ],
  "bytecode": "0x6080604052604051620000129062000388565b60405180910390206006553480156200002a57600080fd5b5033600760006101000a81548173ffffffffffffffffffffffffffffffffffffffff021916908373ffffffffffffffffffffffffffffffffffffffff16021790555033600560006101000a81548173ffffffffffffffffffffffffffffffffffffffff021916908373ffffffffffffffffffffffffffffffffffffffff1602179055506008600760009054906101000a900473ffffffffffffffffffffffffffffffffffffffff1690806001815401808255809150509060018203906000526020600020016000909192909190916101000a81548173ffffffffffffffffffffffffffffffffffffffff021916908373ffffffffffffffffffffffffffffffffffffffff16021790555050600560009054906101000a900473ffffffffffffffffffffffffffffffffffffffff166000604051620001689062000371565b908152602001604051809103902060000160006101000a81548173ffffffffffffffffffffffffffffffffffffffff021916908373ffffffffffffffffffffffffffffffffffffffff1602179055506040518060400160405280600a81526020017f666f756e646174696f6e000000000000000000000000000000000000000000008152506000604051620001fd9062000371565b908152602001604051809103902060010190805190602001906200022392919062000264565b5060016000604051620002369062000371565b908152602001604051809103902060040160006101000a81548160ff021916908315150217905550620003aa565b828054600181600116156101000203166002900490600052602060002090601f016020900481019282601f10620002a757805160ff1916838001178555620002d8565b82800160010185558215620002d8579182015b82811115620002d7578251825591602001919060010190620002ba565b5b509050620002e79190620002eb565b5090565b6200031091905b808211156200030c576000816000905550600101620002f2565b5090565b90565b600062000322600a836200039f565b91507f666f756e646174696f6e000000000000000000000000000000000000000000006000830152600a82019050919050565b6000620003646000836200039f565b9150600082019050919050565b60006200037e8262000313565b9150819050919050565b6000620003958262000355565b9150819050919050565b600081905092915050565b6136f980620003ba6000396000f3fe608060405234801561001057600080fd5b50600436106101585760003560e01c80637823a2b8116100c3578063da7483161161007c578063da74831614610462578063db3543f514610492578063e6706cb9146104ae578063ee5562f7146104de578063f114e1351461050e578063f9b965471461053e57610158565b80637823a2b81461033b5780639494af851461036c578063c2206ae71461039c578063cf838001146103cc578063d72115dc14610402578063da3a29b91461043257610158565b8063422c795f11610115578063422c795f146102435780634f2ba5771461027357806368fff3a61461028f5780636ec4d9ae146102bf57806370480275146102ef57806376a15f111461030b57610158565b80631785f53c1461015d57806324d7806c1461017957806326e1e8c6146101a957806332df41f6146101d95780633d6c4df7146101f557806341fbb05014610225575b600080fd5b61017760048036036101729190810190612877565b61055c565b005b610193600480360361018e9190810190612877565b61073c565b6040516101a09190613231565b60405180910390f35b6101c360048036036101be91908101906129e2565b6107e6565b6040516101d0919061326e565b60405180910390f35b6101f360048036036101ee9190810190612935565b610da6565b005b61020f600480360361020a91908101906128a0565b610f87565b60405161021c919061326e565b60405180910390f35b61022d61132a565b60405161023a919061314e565b60405180910390f35b61025d60048036036102589190810190612935565b611350565b60405161026a9190613231565b60405180910390f35b61028d60048036036102889190810190612976565b611388565b005b6102a960048036036102a49190810190612a61565b61161d565b6040516102b691906134bc565b60405180910390f35b6102d960048036036102d49190810190612acd565b61166e565b6040516102e6919061314e565b60405180910390f35b61030960048036036103049190810190612877565b6116aa565b005b61032560048036036103209190810190612935565b6117a0565b604051610332919061320f565b60405180910390f35b610355600480360361035091908101906128f4565b6118aa565b60405161036392919061330c565b60405180910390f35b61038660048036036103819190810190612877565b611989565b604051610393919061326e565b60405180910390f35b6103b660048036036103b19190810190612935565b611a6a565b6040516103c3919061326e565b60405180910390f35b6103e660048036036103e191908101906128f4565b611b2d565b6040516103f99796959493929190613199565b60405180910390f35b61041c60048036036104179190810190612976565b611c4a565b604051610429919061326e565b60405180910390f35b61044c60048036036104479190810190612935565b611fb7565b604051610459919061314e565b60405180910390f35b61047c60048036036104779190810190612877565b612001565b6040516104899190613231565b60405180910390f35b6104ac60048036036104a79190810190612877565b612021565b005b6104c860048036036104c39190810190612935565b612160565b6040516104d5919061320f565b60405180910390f35b6104f860048036036104f39190810190612877565b61226a565b604051610505919061324c565b60405180910390f35b61052860048036036105239190810190612935565b61231a565b604051610535919061326e565b60405180910390f35b6105466123dd565b604051610553919061314e565b60405180910390f35b6105653361073c565b6105a4576040517f08c379a000000000000000000000000000000000000000000000000000000000815260040161059b9061349c565b60405180910390fd5b6000600880549050905060008090505b81811015610737578273ffffffffffffffffffffffffffffffffffffffff16600882815481106105e057fe5b9060005260206000200160009054906101000a900473ffffffffffffffffffffffffffffffffffffffff1673ffffffffffffffffffffffffffffffffffffffff16141561072a57600760009054906101000a900473ffffffffffffffffffffffffffffffffffffffff1673ffffffffffffffffffffffffffffffffffffffff166008828154811061066d57fe5b9060005260206000200160009054906101000a900473ffffffffffffffffffffffffffffffffffffffff1673ffffffffffffffffffffffffffffffffffffffff161461072557600881815481106106c057fe5b9060005260206000200160006101000a81549073ffffffffffffffffffffffffffffffffffffffff02191690557f8adc42fe197f62d1339f8e8570b227253823274a8158b4428824e0848e9e74c58360405161071c919061314e565b60405180910390a15b610737565b80806001019150506105b4565b505050565b6000806008805490509050600080905060008090505b828110156107db578473ffffffffffffffffffffffffffffffffffffffff166008828154811061077e57fe5b9060005260206000200160009054906101000a900473ffffffffffffffffffffffffffffffffffffffff1673ffffffffffffffffffffffffffffffffffffffff1614156107ce57600191506107db565b8080600101915050610752565b508092505050919050565b60606107f13361073c565b610830576040517f08c379a00000000000000000000000000000000000000000000000000000000081526004016108279061349c565b60405180910390fd5b600260008373ffffffffffffffffffffffffffffffffffffffff1673ffffffffffffffffffffffffffffffffffffffff16815260200190815260200160002060009054906101000a900460ff16156108bd576040517f08c379a00000000000000000000000000000000000000000000000000000000081526004016108b49061339c565b60405180910390fd5b6108c63361073c565b806108fc57508173ffffffffffffffffffffffffffffffffffffffff163373ffffffffffffffffffffffffffffffffffffffff16145b61093b576040517f08c379a00000000000000000000000000000000000000000000000000000000081526004016109329061345c565b60405180910390fd5b61094484612407565b93506000846040516109569190613120565b908152602001604051809103902060040160009054906101000a900460ff16156109b5576040517f08c379a00000000000000000000000000000000000000000000000000000000081526004016109ac906133fc565b60405180910390fd5b6003846040516109c59190613120565b908152602001604051809103902060010160009054906101000a900460ff1615610a24576040517f08c379a0000000000000000000000000000000000000000000000000000000008152600401610a1b9061337c565b60405180910390fd5b610a2d8461256f565b610a6c576040517f08c379a0000000000000000000000000000000000000000000000000000000008152600401610a639061333c565b60405180910390fd5b610a7583611350565b15610a8657610a838361231a565b92505b60065483604051602001610a9a9190613120565b604051602081830303815290604052805190602001201415610aef576040518060400160405280600a81526020017f666f756e646174696f6e0000000000000000000000000000000000000000000081525092505b82600085604051610b009190613120565b90815260200160405180910390206001019080519060200190610b249291906126b8565b5081600085604051610b369190613120565b908152602001604051809103902060000160006101000a81548173ffffffffffffffffffffffffffffffffffffffff021916908373ffffffffffffffffffffffffffffffffffffffff1602179055506001600085604051610b979190613120565b908152602001604051809103902060040160006101000a81548160ff0219169083151502179055506001600260008473ffffffffffffffffffffffffffffffffffffffff1673ffffffffffffffffffffffffffffffffffffffff16815260200190815260200160002060006101000a81548160ff021916908315150217905550600083604051610c279190613120565b908152602001604051809103902060020180549050600484604051610c4c9190613120565b908152602001604051809103902085604051610c689190613120565b908152602001604051809103902081905550600083604051610c8a9190613120565b9081526020016040518091039020600201849080600181540180825580915050906001820390600052602060002001600090919290919091509080519060200190610cd69291906126b8565b505083600160008473ffffffffffffffffffffffffffffffffffffffff1673ffffffffffffffffffffffffffffffffffffffff1681526020019081526020016000209080519060200190610d2b9291906126b8565b507f6b8c27a2c8d7e6146c5f01da0be0dc6d70be54a40dc2e588b03a5625784c0ede848484604051610d5f939291906132c7565b60405180910390a16040518060400160405280600481526020017f646f6e650000000000000000000000000000000000000000000000000000000081525090509392505050565b610daf3361073c565b610dee576040517f08c379a0000000000000000000000000000000000000000000000000000000008152600401610de59061349c565b60405180910390fd5b6000600382604051610e009190613120565b9081526020016040518091039020600001604051610e1e9190613137565b90815260200160405180910390206003016004600383604051610e419190613120565b9081526020016040518091039020600001604051610e5f9190613137565b908152602001604051809103902082604051610e7b9190613120565b90815260200160405180910390205481548110610e9457fe5b906000526020600020016000610eaa9190612738565b6004600382604051610ebc9190613120565b9081526020016040518091039020600001604051610eda9190613137565b908152602001604051809103902081604051610ef69190613120565b908152602001604051809103902060009055600381604051610f189190613120565b908152602001604051809103902060008082016000610f379190612738565b6001820160006101000a81549060ff021916905550507fab0e41ac80c12968f8275bec18ba00b009f77c3c6114766fdf45419931b7d80481604051610f7c919061326e565b60405180910390a150565b6060610f923361073c565b610fd1576040517f08c379a0000000000000000000000000000000000000000000000000000000008152600401610fc89061349c565b60405180910390fd5b600260008473ffffffffffffffffffffffffffffffffffffffff1673ffffffffffffffffffffffffffffffffffffffff16815260200190815260200160002060009054906101000a900460ff161561105e576040517f08c379a00000000000000000000000000000000000000000000000000000000081526004016110559061339c565b60405180910390fd5b6002600080846040516110719190613120565b908152602001604051809103902060000160009054906101000a900473ffffffffffffffffffffffffffffffffffffffff1673ffffffffffffffffffffffffffffffffffffffff1673ffffffffffffffffffffffffffffffffffffffff16815260200190815260200160002060006101000a81549060ff02191690556001600080846040516111009190613120565b908152602001604051809103902060000160009054906101000a900473ffffffffffffffffffffffffffffffffffffffff1673ffffffffffffffffffffffffffffffffffffffff1673ffffffffffffffffffffffffffffffffffffffff16815260200190815260200160002060006111789190612738565b60046111c460008460405161118d9190613120565b908152602001604051809103902060000160009054906101000a900473ffffffffffffffffffffffffffffffffffffffff166125f1565b6040516111d19190613120565b9081526020016040518091039020826040516111ed9190613120565b908152602001604051809103902060009055826000836040516112109190613120565b908152602001604051809103902060000160006101000a81548173ffffffffffffffffffffffffffffffffffffffff021916908373ffffffffffffffffffffffffffffffffffffffff16021790555081600160008573ffffffffffffffffffffffffffffffffffffffff1673ffffffffffffffffffffffffffffffffffffffff16815260200190815260200160002090805190602001906112b29291906126b8565b507ffb81e87a099fb384a4bb4764a9f0c7900bbc3c884f2edc90cef3a1d57b7b08f483836040516112e4929190613169565b60405180910390a16040518060400160405280600481526020017f646f6e6500000000000000000000000000000000000000000000000000000000815250905092915050565b600560009054906101000a900473ffffffffffffffffffffffffffffffffffffffff1681565b60006003826040516113629190613120565b908152602001604051809103902060010160009054906101000a900460ff169050919050565b6113913361073c565b6113d0576040517f08c379a00000000000000000000000000000000000000000000000000000000081526004016113c79061349c565b60405180910390fd5b600080826040516113e19190613120565b90815260200160405180910390206001016040516113ff9190613137565b908152602001604051809103902060020160046000836040516114229190613120565b90815260200160405180910390206001016040516114409190613137565b90815260200160405180910390208260405161145c9190613120565b9081526020016040518091039020548154811061147557fe5b90600052602060002001600061148b9190612738565b600460008260405161149d9190613120565b90815260200160405180910390206001016040516114bb9190613137565b9081526020016040518091039020816040516114d79190613120565b908152602001604051809103902060009055816000826040516114fa9190613120565b9081526020016040518091039020600101908051906020019061151e9291906126b8565b5060008260405161152f9190613120565b9081526020016040518091039020600201805490506004836040516115549190613120565b9081526020016040518091039020826040516115709190613120565b9081526020016040518091039020819055506000826040516115929190613120565b90815260200160405180910390206002018190806001815401808255809150509060018203906000526020600020016000909192909190915090805190602001906115de9291906126b8565b50507f8f68e6abb5c7530e3155cbb2c3679df43d81d282615efbad32a545d85c74bf608282604051611611929190613290565b60405180910390a15050565b60048280516020810182018051848252602083016020850120818352809550505050505081805160208101820180518482526020830160208501208183528095505050505050600091509150505481565b6008818154811061167b57fe5b906000526020600020016000915054906101000a900473ffffffffffffffffffffffffffffffffffffffff1681565b6116b33361073c565b6116f2576040517f08c379a00000000000000000000000000000000000000000000000000000000081526004016116e99061349c565b60405180910390fd5b6116fb8161073c565b61179d5760088190806001815401808255809150509060018203906000526020600020016000909192909190916101000a81548173ffffffffffffffffffffffffffffffffffffffff021916908373ffffffffffffffffffffffffffffffffffffffff160217905550507fefcbb6030dbeda3448a657cc462d3fde6f3b78e2710bd7b2d9e2ab358a12e17081604051611794919061314e565b60405180910390a15b50565b60606000826040516117b29190613120565b9081526020016040518091039020600301805480602002602001604051908101604052809291908181526020016000905b8282101561189f578382906000526020600020018054600181600116156101000203166002900480601f01602080910402602001604051908101604052809291908181526020018280546001816001161561010002031660029004801561188b5780601f106118605761010080835404028352916020019161188b565b820191906000526020600020905b81548152906001019060200180831161186e57829003601f168201915b5050505050815260200190600101906117e3565b505050509050919050565b600381805160208101820180518482526020830160208501208183528095505050505050600091509050806000018054600181600116156101000203166002900480601f01602080910402602001604051908101604052809291908181526020018280546001816001161561010002031660029004801561196c5780601f106119415761010080835404028352916020019161196c565b820191906000526020600020905b81548152906001019060200180831161194f57829003601f168201915b5050505050908060010160009054906101000a900460ff16905082565b6060600160008373ffffffffffffffffffffffffffffffffffffffff1673ffffffffffffffffffffffffffffffffffffffff1681526020019081526020016000208054600181600116156101000203166002900480601f016020809104026020016040519081016040528092919081815260200182805460018160011615610100020316600290048015611a5e5780601f10611a3357610100808354040283529160200191611a5e565b820191906000526020600020905b815481529060010190602001808311611a4157829003601f168201915b50505050509050919050565b6060600082604051611a7c9190613120565b90815260200160405180910390206001018054600181600116156101000203166002900480601f016020809104026020016040519081016040528092919081815260200182805460018160011615610100020316600290048015611b215780601f10611af657610100808354040283529160200191611b21565b820191906000526020600020905b815481529060010190602001808311611b0457829003601f168201915b50505050509050919050565b6000818051602081018201805184825260208301602085012081835280955050505050506000915090508060000160009054906101000a900473ffffffffffffffffffffffffffffffffffffffff1690806001018054600181600116156101000203166002900480601f016020809104026020016040519081016040528092919081815260200182805460018160011615610100020316600290048015611c155780601f10611bea57610100808354040283529160200191611c15565b820191906000526020600020905b815481529060010190602001808311611bf857829003601f168201915b5050505050908060040160009054906101000a900460ff16908060050154908060060154908060070154908060080154905087565b6060611c553361073c565b80611ccc5750600083604051611c6b9190613120565b908152602001604051809103902060000160009054906101000a900473ffffffffffffffffffffffffffffffffffffffff1673ffffffffffffffffffffffffffffffffffffffff163373ffffffffffffffffffffffffffffffffffffffff16145b611d0b576040517f08c379a0000000000000000000000000000000000000000000000000000000008152600401611d02906133dc565b60405180910390fd5b611d148261256f565b611d53576040517f08c379a0000000000000000000000000000000000000000000000000000000008152600401611d4a9061343c565b60405180910390fd5b611d5c83612407565b9250611d6782612407565b9150600382604051611d799190613120565b908152602001604051809103902060010160009054906101000a900460ff1615611dd8576040517f08c379a0000000000000000000000000000000000000000000000000000000008152600401611dcf9061341c565b60405180910390fd5b600082604051611de89190613120565b908152602001604051809103902060040160009054906101000a900460ff1615611e47576040517f08c379a0000000000000000000000000000000000000000000000000000000008152600401611e3e9061347c565b60405180910390fd5b82600383604051611e589190613120565b90815260200160405180910390206000019080519060200190611e7c9291906126b8565b506001600383604051611e8f9190613120565b908152602001604051809103902060010160006101000a81548160ff021916908315150217905550600083604051611ec79190613120565b908152602001604051809103902060030180549050600484604051611eec9190613120565b908152602001604051809103902083604051611f089190613120565b908152602001604051809103902081905550600083604051611f2a9190613120565b9081526020016040518091039020600301829080600181540180825580915050906001820390600052602060002001600090919290919091509080519060200190611f769291906126b8565b50507f543b730627f5b977668251b77b2e7d289604239d6ddbc6758a22242ffaa9ab278383604051611fa9929190613290565b60405180910390a192915050565b60008082604051611fc89190613120565b908152602001604051809103902060000160009054906101000a900473ffffffffffffffffffffffffffffffffffffffff169050919050565b60026020528060005260406000206000915054906101000a900460ff1681565b3373ffffffffffffffffffffffffffffffffffffffff16600760009054906101000a900473ffffffffffffffffffffffffffffffffffffffff1673ffffffffffffffffffffffffffffffffffffffff16146120b1576040517f08c379a00000000000000000000000000000000000000000000000000000000081526004016120a89061335c565b60405180910390fd5b600560149054906101000a900460ff1615612101576040517f08c379a00000000000000000000000000000000000000000000000000000000081526004016120f8906133bc565b60405180910390fd5b6001600560146101000a81548160ff02191690831515021790555080600560006101000a81548173ffffffffffffffffffffffffffffffffffffffff021916908373ffffffffffffffffffffffffffffffffffffffff16021790555050565b60606000826040516121729190613120565b9081526020016040518091039020600201805480602002602001604051908101604052809291908181526020016000905b8282101561225f578382906000526020600020018054600181600116156101000203166002900480601f01602080910402602001604051908101604052809291908181526020018280546001816001161561010002031660029004801561224b5780601f106122205761010080835404028352916020019161224b565b820191906000526020600020905b81548152906001019060200180831161222e57829003601f168201915b5050505050815260200190600101906121a3565b505050509050919050565b60016020528060005260406000206000915090508054600181600116156101000203166002900480601f0160208091040260200160405190810160405280929190818152602001828054600181600116156101000203166002900480156123125780601f106122e757610100808354040283529160200191612312565b820191906000526020600020905b8154815290600101906020018083116122f557829003601f168201915b505050505081565b606060038260405161232c9190613120565b90815260200160405180910390206000018054600181600116156101000203166002900480601f0160208091040260200160405190810160405280929190818152602001828054600181600116156101000203166002900480156123d15780601f106123a6576101008083540402835291602001916123d1565b820191906000526020600020905b8154815290600101906020018083116123b457829003601f168201915b50505050509050919050565b6000600560009054906101000a900473ffffffffffffffffffffffffffffffffffffffff16905090565b606080829050606081516040519080825280601f01601f1916602001820160405280156124435781602001600182028038833980820191505090505b50905060008090505b825181101561256457604183828151811061246357fe5b602001015160f81c60f81b60f81c60ff161015801561249f5750605a83828151811061248b57fe5b602001015160f81c60f81b60f81c60ff1611155b156125045760208382815181106124b257fe5b602001015160f81c60f81b60f81c0160f81b8282815181106124d057fe5b60200101907effffffffffffffffffffffffffffffffffffffffffffffffffffffffffffff1916908160001a905350612557565b82818151811061251057fe5b602001015160f81c60f81b82828151811061252757fe5b60200101907effffffffffffffffffffffffffffffffffffffffffffffffffffffffffffff1916908160001a9053505b808060010191505061244c565b508092505050919050565b6000808251905060048110806125855750601281115b156125945760009150506125ec565b60208360018303815181106125a557fe5b602001015160f81c60f81b60f81c60ff1614156125c65760009150506125ec565b6030836000815181106125d557fe5b602001015160f81c60f81b60f81c60ff1614159150505b919050565b60608060146040519080825280601f01601f1916602001820160405280156126285781602001600182028038833980820191505090505b50905060008090505b60148110156126ae578060130360080260020a8473ffffffffffffffffffffffffffffffffffffffff168161266257fe5b0460f81b82828151811061267257fe5b60200101907effffffffffffffffffffffffffffffffffffffffffffffffffffffffffffff1916908160001a9053508080600101915050612631565b5080915050919050565b828054600181600116156101000203166002900490600052602060002090601f016020900481019282601f106126f957805160ff1916838001178555612727565b82800160010185558215612727579182015b8281111561272657825182559160200191906001019061270b565b5b5090506127349190612780565b5090565b50805460018160011615610100020316600290046000825580601f1061275e575061277d565b601f01602090049060005260206000209081019061277c9190612780565b5b50565b6127a291905b8082111561279e576000816000905550600101612786565b5090565b90565b6000813590506127b481613688565b92915050565b600082601f8301126127cb57600080fd5b81356127de6127d982613504565b6134d7565b915080825260208301602083018583830111156127fa57600080fd5b612805838284613635565b50505092915050565b600082601f83011261281f57600080fd5b813561283261282d82613530565b6134d7565b9150808252602083016020830185838301111561284e57600080fd5b612859838284613635565b50505092915050565b6000813590506128718161369f565b92915050565b60006020828403121561288957600080fd5b6000612897848285016127a5565b91505092915050565b600080604083850312156128b357600080fd5b60006128c1858286016127a5565b925050602083013567ffffffffffffffff8111156128de57600080fd5b6128ea8582860161280e565b9150509250929050565b60006020828403121561290657600080fd5b600082013567ffffffffffffffff81111561292057600080fd5b61292c848285016127ba565b91505092915050565b60006020828403121561294757600080fd5b600082013567ffffffffffffffff81111561296157600080fd5b61296d8482850161280e565b91505092915050565b6000806040838503121561298957600080fd5b600083013567ffffffffffffffff8111156129a357600080fd5b6129af8582860161280e565b925050602083013567ffffffffffffffff8111156129cc57600080fd5b6129d88582860161280e565b9150509250929050565b6000806000606084860312156129f757600080fd5b600084013567ffffffffffffffff811115612a1157600080fd5b612a1d8682870161280e565b935050602084013567ffffffffffffffff811115612a3a57600080fd5b612a468682870161280e565b9250506040612a57868287016127a5565b9150509250925092565b60008060408385031215612a7457600080fd5b600083013567ffffffffffffffff811115612a8e57600080fd5b612a9a858286016127ba565b925050602083013567ffffffffffffffff811115612ab757600080fd5b612ac3858286016127ba565b9150509250929050565b600060208284031215612adf57600080fd5b6000612aed84828501612862565b91505092915050565b6000612b028383612c07565b905092915050565b612b13816135ed565b82525050565b6000612b2482613581565b612b2e81856135af565b935083602082028501612b408561355c565b8060005b85811015612b7c5784840389528151612b5d8582612af6565b9450612b68836135a2565b925060208a01995050600181019050612b44565b50829750879550505050505092915050565b612b97816135ff565b82525050565b6000612ba882613597565b612bb281856135d1565b9350612bc2818560208601613644565b612bcb81613677565b840191505092915050565b6000612be182613597565b612beb81856135e2565b9350612bfb818560208601613644565b80840191505092915050565b6000612c128261358c565b612c1c81856135c0565b9350612c2c818560208601613644565b612c3581613677565b840191505092915050565b6000612c4b8261358c565b612c5581856135d1565b9350612c65818560208601613644565b612c6e81613677565b840191505092915050565b600081546001811660008114612c965760018114612cbb57612cff565b607f6002830416612ca781876135e2565b955060ff1983168652808601935050612cff565b60028204612cc981876135e2565b9550612cd48561356c565b60005b82811015612cf657815481890152600182019150602081019050612cd7565b82880195505050505b505092915050565b6000612d146015836135d1565b91507f557365726e616d65206973206e6f742076616c696400000000000000000000006000830152602082019050919050565b6000612d546030836135d1565b91507f4f6e6c7920726f6f742061646d696e2063616e207365742074686520466f756e60008301527f646174696f6e27732061646472657373000000000000000000000000000000006020830152604082019050919050565b6000612dba6023836135d1565b91507f557365726e616d6520616c72656164792065786973747320617320616e20616c60008301527f69617300000000000000000000000000000000000000000000000000000000006020830152604082019050919050565b6000612e206039836135d1565b91507f546869732077616c6c657420616464726573732068617320616c72656164792060008301527f7265676973746572656420746f20616e20757365726e616d65000000000000006020830152604082019050919050565b6000612e86602c836135d1565b91507f504f4320546f6b656e20416464726573732063616e206265207570646174656460008301527f206f6e6c7920312074696d6500000000000000000000000000000000000000006020830152604082019050919050565b6000612eec6032836135d1565b91507f4f6e6c792061646d696e206f72206f776e6572206f662074686973207573657260008301527f6e616d652063616e2061646420616c69617300000000000000000000000000006020830152604082019050919050565b6000612f526017836135d1565b91507f557365726e616d6520616c7265616479206578697374730000000000000000006000830152602082019050919050565b6000612f926014836135d1565b91507f416c69617320616c7265616479206578697374730000000000000000000000006000830152602082019050919050565b6000612fd26012836135d1565b91507f416c696173206973206e6f742076616c696400000000000000000000000000006000830152602082019050919050565b6000613012603e836135d1565b91507f4f6e6c792061646d696e206f72206d73672e73656e6465722063616e2072656760008301527f697374657220666f722074686973205f77616c6c65745f6164647265737300006020830152604082019050919050565b60006130786023836135d1565b91507f416c69617320616c72656164792065786973747320617320616e20757365726e60008301527f616d6500000000000000000000000000000000000000000000000000000000006020830152604082019050919050565b60006130de6011836135d1565b91507f4f6e6c792061646d696e2063616e20646f0000000000000000000000000000006000830152602082019050919050565b61311a8161362b565b82525050565b600061312c8284612bd6565b915081905092915050565b60006131438284612c79565b915081905092915050565b60006020820190506131636000830184612b0a565b92915050565b600060408201905061317e6000830185612b0a565b81810360208301526131908184612b9d565b90509392505050565b600060e0820190506131ae600083018a612b0a565b81810360208301526131c08189612c40565b90506131cf6040830188612b8e565b6131dc6060830187613111565b6131e96080830186613111565b6131f660a0830185613111565b61320360c0830184613111565b98975050505050505050565b600060208201905081810360008301526132298184612b19565b905092915050565b60006020820190506132466000830184612b8e565b92915050565b600060208201905081810360008301526132668184612c40565b905092915050565b600060208201905081810360008301526132888184612b9d565b905092915050565b600060408201905081810360008301526132aa8185612b9d565b905081810360208301526132be8184612b9d565b90509392505050565b600060608201905081810360008301526132e18186612b9d565b905081810360208301526132f58185612b9d565b90506133046040830184612b0a565b949350505050565b600060408201905081810360008301526133268185612c40565b90506133356020830184612b8e565b9392505050565b6000602082019050818103600083015261335581612d07565b9050919050565b6000602082019050818103600083015261337581612d47565b9050919050565b6000602082019050818103600083015261339581612dad565b9050919050565b600060208201905081810360008301526133b581612e13565b9050919050565b600060208201905081810360008301526133d581612e79565b9050919050565b600060208201905081810360008301526133f581612edf565b9050919050565b6000602082019050818103600083015261341581612f45565b9050919050565b6000602082019050818103600083015261343581612f85565b9050919050565b6000602082019050818103600083015261345581612fc5565b9050919050565b6000602082019050818103600083015261347581613005565b9050919050565b600060208201905081810360008301526134958161306b565b9050919050565b600060208201905081810360008301526134b5816130d1565b9050919050565b60006020820190506134d16000830184613111565b92915050565b6000604051905081810181811067ffffffffffffffff821117156134fa57600080fd5b8060405250919050565b600067ffffffffffffffff82111561351b57600080fd5b601f19601f8301169050602081019050919050565b600067ffffffffffffffff82111561354757600080fd5b601f19601f8301169050602081019050919050565b6000819050602082019050919050565b60008190508160005260206000209050919050565b600081519050919050565b600081519050919050565b600081519050919050565b6000602082019050919050565b600082825260208201905092915050565b600082825260208201905092915050565b600082825260208201905092915050565b600081905092915050565b60006135f88261360b565b9050919050565b60008115159050919050565b600073ffffffffffffffffffffffffffffffffffffffff82169050919050565b6000819050919050565b82818337600083830152505050565b60005b83811015613662578082015181840152602081019050613647565b83811115613671576000848401525b50505050565b6000601f19601f8301169050919050565b613691816135ed565b811461369c57600080fd5b50565b6136a88161362b565b81146136b357600080fd5b5056fea365627a7a72315820c9bd81675f7243277cc589ec19d1aff058df7034ffa879d79b5ca1d7eb0909766c6578706572696d656e74616cf564736f6c63430005100040",
  "source": "pragma solidity ^0.5.0;\npragma experimental ABIEncoderV2;\n\nimport \"@openzeppelin/contracts/math/SafeMath.sol\";\n\n/*\nTest accounts\n1.  0xCA35b7d915458EF540aDe6068dFe2F44E8fa733c\n2.  0x14723A09ACff6D2A60DcdF7aA4AFf308FDDC160C\n3.  0x4B0897b0513fdC7C541B6d9D7E929C4e5364D2dB\n4.  0x583031D1113aD414F02576BD6afaBfb302140225\n*/\n\n\ncontract Citizen {\n    using SafeMath for uint256;\n\n    event adminAdded(address _admin_address);\n    event adminRemoved(address _admin_address);\n    event citizenAdded(string _username, string _ref_by, address _wallet_address);\n    event refUpdated(string _ref_by, string _username);\n    event aliasDeleted(string _alias);\n    event aliasAdded(string _username, string _alias);\n    event walletUpdated(address _wallet_address, string _username);\n\n    modifier onlyAdmin() {\n        require(isAdmin(msg.sender), \"Only admin can do\");\n        _;\n    }\n\n    struct Profile {\n        address wallet_address;\n        string ref_by;\n        string[] refs_to;\n        string[] aliases;\n        bool exists;\n        uint256 total_withdrawed;\n        uint256 total_refs;\n        uint256 total_sales;\n        uint256 total_ref_income;\n    }\n\n    struct Alias {\n        string username;\n        bool exists;\n    }\n\n\n    mapping (string => Profile) public citizen;\n    mapping (address => string) public wallet_username;\n\n    mapping (address => bool) public wallet_addresses;\n\n    mapping (string => Alias) public aliases;\n\n    mapping (string => mapping (string => uint256)) public map_index;\n    address public foundation;\n    bool internal set_foundation_address;\n    bytes32 internal empty_string = keccak256(\"\");\n    address private root_admin;\n    address[] public admin_address;\n\n\n    function appendStr(string memory a, string memory b, string memory c, string memory d, string memory e)\n        internal pure returns (string memory) {\n        return string(abi.encodePacked(a, b, c, d, e));\n    }\n\n    function toString(address x) internal pure returns (string memory) {\n        bytes memory b = new bytes(20);\n        for (uint i = 0; i < 20; i++)\n            b[i] = byte(uint8(uint(x) / (2**(8*(19 - i)))));\n        return string(b);\n    }\n\n    function validUsername(string memory _username) internal pure returns(bool) {\n        uint256 len = bytes(_username).length;\n        if ((len < 4) || (len > 18)) return false; // Only 4 - 18 letters\n        if (uint(uint8(bytes(_username)[len-1])) == 32) return false; // Not ending with space\n        return uint(uint8(bytes(_username)[0])) != 48; // Not beginning with 0\n    }\n\n    function _toLower(string memory str) internal pure returns (string memory) {\n        bytes memory bStr = bytes(str);\n        bytes memory bLower = new bytes(bStr.length);\n        for (uint i = 0; i < bStr.length; i++) {\n            // Uppercase character...\n            if ((uint8(bStr[i]) >= 65) && (uint8(bStr[i]) <= 90)) {\n                // So we add 32 to make it lowercase\n                bLower[i] = bytes1(uint8(bStr[i]) + 32);\n            } else {\n                bLower[i] = bStr[i];\n            }\n        }\n        return string(bLower);\n    }\n\n    function getOwner() internal view returns (address) {\n        return root_admin;\n    }\n\n    /* PUBLIC FUNCTIONS */\n\n    function isAdmin(address _admin_address) public view returns (bool) {\n        uint admin_count = admin_address.length;\n        bool _found = false;\n        for (uint i = 0; i<admin_count; i++) {\n            if(admin_address[i]==_admin_address){\n                _found = true;\n                break;\n            }\n        }\n        return _found;\n    }\n\n    constructor () public {\n        root_admin = msg.sender;\n        foundation = msg.sender; // Contract owner will hold foundation's funds until Foundation is established\n        admin_address.push(root_admin);\n        citizen[\"foundation\"].wallet_address = foundation;\n        citizen[\"foundation\"].ref_by = \"foundation\";\n        citizen[\"foundation\"].exists = true;\n    }\n\n    function setFoundation(address _foundation) public {\n        require(root_admin == msg.sender, \"Only root admin can set the Foundation's address\");\n        require(!set_foundation_address, \"POC Token Address can be updated only 1 time\");\n        set_foundation_address = true;\n        foundation = _foundation;\n    }\n\n    function addAdmin(address _admin_address) public onlyAdmin() {\n        if (!isAdmin(_admin_address)) {\n            admin_address.push(_admin_address);\n            emit adminAdded(_admin_address);\n        }\n    }\n\n    function removeAdmin(address _admin_address) public onlyAdmin() {\n        uint admin_count = admin_address.length;\n        for (uint i = 0; i < admin_count; i++) {\n            if(admin_address[i]==_admin_address){\n                if (admin_address[i] != root_admin) {\n                    delete admin_address[i];\n                    emit adminRemoved(_admin_address);\n                }\n                break;\n            }\n        }\n    }\n\n    function addCitizen(string memory _username, string memory _ref_by, address _wallet_address) public onlyAdmin() returns (string memory) {\n        require(!wallet_addresses[_wallet_address], \"This wallet address has already registered to an username\");\n        require(isAdmin(msg.sender) || msg.sender == _wallet_address, \"Only admin or msg.sender can register for this _wallet_address\");\n        _username = _toLower(_username);\n        require(!citizen[_username].exists, \"Username already exists\");\n        require(!aliases[_username].exists, \"Username already exists as an alias\");\n        //Only 4 - 18 letters a-zA-Z.- without having space @ the end and 0 @ the beginning\n        require(validUsername(_username), \"Username is not valid\");\n\n        // Check if it is ref by an alias\n        if (isAlias(_ref_by)) {\n            _ref_by = getUsernameFromAlias(_ref_by);\n        }\n\n        if (keccak256(abi.encodePacked(_ref_by)) == empty_string) _ref_by = \"foundation\";\n        citizen[_username].ref_by = _ref_by;\n        citizen[_username].wallet_address = _wallet_address;\n        citizen[_username].exists = true;\n        wallet_addresses[_wallet_address] = true;\n\n        map_index[_ref_by][_username] = citizen[_ref_by].refs_to.length;\n        citizen[_ref_by].refs_to.push(_username);\n\n        wallet_username[_wallet_address] = _username;\n        emit citizenAdded(_username, _ref_by, _wallet_address);\n        return \"done\";\n    }\n\n    function addAlias(string memory _username, string memory _alias) public returns (string memory) {\n        require(isAdmin(msg.sender) || msg.sender == citizen[_username].wallet_address, \"Only admin or owner of this username can add alias\");\n        require(validUsername(_alias), \"Alias is not valid\");\n        _username = _toLower(_username);\n        _alias = _toLower(_alias);\n        require(!aliases[_alias].exists, \"Alias already exists\");\n        require(!citizen[_alias].exists, \"Alias already exists as an username\");\n        aliases[_alias].username = _username;\n        aliases[_alias].exists = true;\n\n        map_index[_username][_alias] = citizen[_username].aliases.length;\n        citizen[_username].aliases.push(_alias);\n        emit aliasAdded(_username, _alias);\n    }\n\n    function deleteAlias(string memory _alias) public onlyAdmin() {\n        delete citizen[aliases[_alias].username].aliases[map_index[aliases[_alias].username][_alias]];\n        delete map_index[aliases[_alias].username][_alias];\n        delete aliases[_alias];\n        emit aliasDeleted(_alias);\n    }\n\n    function updateRef(string memory _ref_by, string memory _username) public onlyAdmin() {\n        // Remove current index Map of refs_to\n        delete citizen[citizen[_username].ref_by].refs_to[map_index[citizen[_username].ref_by][_username]];\n        delete map_index[citizen[_username].ref_by][_username];\n\n        //Update citizen\n        citizen[_username].ref_by = _ref_by;\n        //Add refs_to\n\n        map_index[_ref_by][_username] = citizen[_ref_by].refs_to.length;\n        citizen[_ref_by].refs_to.push(_username);\n        emit refUpdated(_ref_by, _username);\n    }\n\n    function updateWallet(address _wallet_address, string memory _username) public onlyAdmin() returns (string memory) {\n        require(!wallet_addresses[_wallet_address], \"This wallet address has already registered to an username\");\n\n        //Delete old wallet address bool index\n        delete wallet_addresses[citizen[_username].wallet_address];\n\n        // Remove current index Map of Wallet\n        delete wallet_username[citizen[_username].wallet_address];\n        delete map_index[toString(citizen[_username].wallet_address)][_username];\n        //Update citizen\n        citizen[_username].wallet_address = _wallet_address;\n\n        //Add wallet to username\n        wallet_username[_wallet_address] = _username;\n        emit walletUpdated(_wallet_address, _username);\n        return \"done\";\n    }\n\n    function getCitizenWallet(string memory _username) public view returns (address) {\n        return citizen[_username].wallet_address;\n    }\n\n    function getCitizenRefBy(string memory _username) public view returns (string memory) {\n        return citizen[_username].ref_by;\n    }\n\n    function getRefsTo(string memory _username) public view returns (string[] memory) {\n        return citizen[_username].refs_to;\n    }\n\n    function getUsernameFromWallet(address _wallet_address) public view returns (string memory) {\n        return wallet_username[_wallet_address];\n    }\n\n    function getFoundationWallet() public view returns (address) {\n        return foundation;\n    }\n\n    function getUsernameFromAlias(string memory _alias) public view returns (string memory) {\n        return aliases[_alias].username;\n    }\n\n    function getAlias(string memory _username) public view returns (string[] memory) {\n        return citizen[_username].aliases;\n    }\n\n    function isAlias(string memory _alias) public view returns (bool) {\n        return aliases[_alias].exists;\n    }\n}",
  "sourcePath": "/home/ubuntu/projects/poc/contracts/Citizen.sol",
  "compiler": {
    "name": "solc",
    "version": "0.5.16+commit.9c3226ce.Emscripten.clang"
  },
  "schemaVersion": "3.0.23",
  "updatedAt": "2020-06-16T20:31:55.226Z",
  "networkType": "ethereum",
  "devdoc": {
    "methods": {}
  },
  "userdoc": {
    "methods": {}
  }
}