{
  "contractName": "DateTime",
  "abi": [
    {
      "constant": true,
      "inputs": [
        {
          "internalType": "uint16",
          "name": "year",
          "type": "uint16"
        }
      ],
      "name": "isLeapYear",
      "outputs": [
        {
          "internalType": "bool",
          "name": "",
          "type": "bool"
        }
      ],
      "payable": false,
      "stateMutability": "pure",
      "type": "function"
    },
    {
      "constant": true,
      "inputs": [
        {
          "internalType": "uint256",
          "name": "year",
          "type": "uint256"
        }
      ],
      "name": "leapYearsBefore",
      "outputs": [
        {
          "internalType": "uint256",
          "name": "",
          "type": "uint256"
        }
      ],
      "payable": false,
      "stateMutability": "pure",
      "type": "function"
    },
    {
      "constant": true,
      "inputs": [
        {
          "internalType": "uint8",
          "name": "month",
          "type": "uint8"
        },
        {
          "internalType": "uint16",
          "name": "year",
          "type": "uint16"
        }
      ],
      "name": "getDaysInMonth",
      "outputs": [
        {
          "internalType": "uint8",
          "name": "",
          "type": "uint8"
        }
      ],
      "payable": false,
      "stateMutability": "pure",
      "type": "function"
    },
    {
      "constant": true,
      "inputs": [
        {
          "internalType": "uint256",
          "name": "timestamp",
          "type": "uint256"
        }
      ],
      "name": "getYear",
      "outputs": [
        {
          "internalType": "uint16",
          "name": "",
          "type": "uint16"
        }
      ],
      "payable": false,
      "stateMutability": "pure",
      "type": "function"
    },
    {
      "constant": true,
      "inputs": [
        {
          "internalType": "uint256",
          "name": "timestamp",
          "type": "uint256"
        }
      ],
      "name": "getMonth",
      "outputs": [
        {
          "internalType": "uint8",
          "name": "",
          "type": "uint8"
        }
      ],
      "payable": false,
      "stateMutability": "pure",
      "type": "function"
    },
    {
      "constant": true,
      "inputs": [
        {
          "internalType": "uint256",
          "name": "timestamp",
          "type": "uint256"
        }
      ],
      "name": "getDay",
      "outputs": [
        {
          "internalType": "uint8",
          "name": "",
          "type": "uint8"
        }
      ],
      "payable": false,
      "stateMutability": "pure",
      "type": "function"
    },
    {
      "constant": true,
      "inputs": [
        {
          "internalType": "uint256",
          "name": "timestamp",
          "type": "uint256"
        }
      ],
      "name": "getHour",
      "outputs": [
        {
          "internalType": "uint8",
          "name": "",
          "type": "uint8"
        }
      ],
      "payable": false,
      "stateMutability": "pure",
      "type": "function"
    },
    {
      "constant": true,
      "inputs": [
        {
          "internalType": "uint256",
          "name": "timestamp",
          "type": "uint256"
        }
      ],
      "name": "getMinute",
      "outputs": [
        {
          "internalType": "uint8",
          "name": "",
          "type": "uint8"
        }
      ],
      "payable": false,
      "stateMutability": "pure",
      "type": "function"
    },
    {
      "constant": true,
      "inputs": [
        {
          "internalType": "uint256",
          "name": "timestamp",
          "type": "uint256"
        }
      ],
      "name": "getSecond",
      "outputs": [
        {
          "internalType": "uint8",
          "name": "",
          "type": "uint8"
        }
      ],
      "payable": false,
      "stateMutability": "pure",
      "type": "function"
    },
    {
      "constant": true,
      "inputs": [
        {
          "internalType": "uint256",
          "name": "timestamp",
          "type": "uint256"
        }
      ],
      "name": "getWeekday",
      "outputs": [
        {
          "internalType": "uint8",
          "name": "",
          "type": "uint8"
        }
      ],
      "payable": false,
      "stateMutability": "pure",
      "type": "function"
    },
    {
      "constant": true,
      "inputs": [
        {
          "internalType": "uint16",
          "name": "year",
          "type": "uint16"
        },
        {
          "internalType": "uint8",
          "name": "month",
          "type": "uint8"
        },
        {
          "internalType": "uint8",
          "name": "day",
          "type": "uint8"
        }
      ],
      "name": "toTimestamp",
      "outputs": [
        {
          "internalType": "uint256",
          "name": "timestamp",
          "type": "uint256"
        }
      ],
      "payable": false,
      "stateMutability": "pure",
      "type": "function"
    },
    {
      "constant": true,
      "inputs": [
        {
          "internalType": "uint16",
          "name": "year",
          "type": "uint16"
        },
        {
          "internalType": "uint8",
          "name": "month",
          "type": "uint8"
        },
        {
          "internalType": "uint8",
          "name": "day",
          "type": "uint8"
        },
        {
          "internalType": "uint8",
          "name": "hour",
          "type": "uint8"
        },
        {
          "internalType": "uint8",
          "name": "minute",
          "type": "uint8"
        },
        {
          "internalType": "uint8",
          "name": "second",
          "type": "uint8"
        }
      ],
      "name": "toTimestamp",
      "outputs": [
        {
          "internalType": "uint256",
          "name": "timestamp",
          "type": "uint256"
        }
      ],
      "payable": false,
      "stateMutability": "pure",
      "type": "function"
    },
    {
      "constant": true,
      "inputs": [
        {
          "internalType": "uint16",
          "name": "year",
          "type": "uint16"
        },
        {
          "internalType": "uint8",
          "name": "month",
          "type": "uint8"
        },
        {
          "internalType": "uint8",
          "name": "day",
          "type": "uint8"
        },
        {
          "internalType": "uint8",
          "name": "hour",
          "type": "uint8"
        }
      ],
      "name": "toTimestamp",
      "outputs": [
        {
          "internalType": "uint256",
          "name": "timestamp",
          "type": "uint256"
        }
      ],
      "payable": false,
      "stateMutability": "pure",
      "type": "function"
    },
    {
      "constant": true,
      "inputs": [
        {
          "internalType": "uint16",
          "name": "year",
          "type": "uint16"
        },
        {
          "internalType": "uint8",
          "name": "month",
          "type": "uint8"
        },
        {
          "internalType": "uint8",
          "name": "day",
          "type": "uint8"
        },
        {
          "internalType": "uint8",
          "name": "hour",
          "type": "uint8"
        },
        {
          "internalType": "uint8",
          "name": "minute",
          "type": "uint8"
        }
      ],
      "name": "toTimestamp",
      "outputs": [
        {
          "internalType": "uint256",
          "name": "timestamp",
          "type": "uint256"
        }
      ],
      "payable": false,
      "stateMutability": "pure",
      "type": "function"
    },
    {
      "constant": true,
      "inputs": [],
      "name": "thisMonth",
      "outputs": [
        {
          "internalType": "uint24",
          "name": "",
          "type": "uint24"
        }
      ],
      "payable": false,
      "stateMutability": "view",
      "type": "function"
    },
    {
      "constant": true,
      "inputs": [],
      "name": "lastMonth",
      "outputs": [
        {
          "internalType": "uint24",
          "name": "",
          "type": "uint24"
        }
      ],
      "payable": false,
      "stateMutability": "view",
      "type": "function"
    },
    {
      "constant": true,
      "inputs": [],
      "name": "nextMonth",
      "outputs": [
        {
          "internalType": "uint24",
          "name": "",
          "type": "uint24"
        }
      ],
      "payable": false,
      "stateMutability": "view",
      "type": "function"
    },
    {
      "constant": true,
      "inputs": [],
      "name": "firstOfNextMonth",
      "outputs": [
        {
          "internalType": "uint256",
          "name": "",
          "type": "uint256"
        }
      ],
      "payable": false,
      "stateMutability": "view",
      "type": "function"
    }
  ],
  "bytecode": "0x608060405234801561001057600080fd5b50610f69806100206000396000f3fe608060405234801561001057600080fd5b50600436106101165760003560e01c80639054bdec116100a2578063a6f0e57711610071578063a6f0e57714610513578063b19999371461055d578063b238ad0e1461059f578063cac6cb89146105f8578063fa93f8831461061657610116565b80639054bdec146103d257806392d663131461045957806399d786ca146104a3578063a324ad24146104cb57610116565b806362ba9687116100e957806362ba9687146101fb57806365c72840146102755780637f791833146102bd5780638aa001fc1461032a5780638c8d98a01461037257610116565b80633473ad271461011b5780633e239e1a146101435780634ac1ad781461018b57806355fae611146101d3575b600080fd5b61012361065e565b604051808262ffffff1662ffffff16815260200191505060405180910390f35b61016f6004803603602081101561015957600080fd5b81019080803590602001909291905050506106ae565b604051808260ff1660ff16815260200191505060405180910390f35b6101b7600480360360208110156101a157600080fd5b81019080803590602001909291905050506106d5565b604051808260ff1660ff16815260200191505060405180910390f35b6101db6106f8565b604051808262ffffff1662ffffff16815260200191505060405180910390f35b61025f600480360360a081101561021157600080fd5b81019080803561ffff169060200190929190803560ff169060200190929190803560ff169060200190929190803560ff169060200190929190803560ff169060200190929190505050610728565b6040518082815260200191505060405180910390f35b6102a16004803603602081101561028b57600080fd5b8101908080359060200190929190505050610744565b604051808260ff1660ff16815260200191505060405180910390f35b610314600480360360808110156102d357600080fd5b81019080803561ffff169060200190929190803560ff169060200190929190803560ff169060200190929190803560ff16906020019092919050505061075a565b6040518082815260200191505060405180910390f35b6103566004803603602081101561034057600080fd5b8101908080359060200190929190505050610775565b604051808260ff1660ff16815260200191505060405180910390f35b6103bc6004803603606081101561038857600080fd5b81019080803561ffff169060200190929190803560ff169060200190929190803560ff169060200190929190505050610789565b6040518082815260200191505060405180910390f35b610443600480360360c08110156103e857600080fd5b81019080803561ffff169060200190929190803560ff169060200190929190803560ff169060200190929190803560ff169060200190929190803560ff169060200190929190803560ff1690602001909291905050506107a4565b6040518082815260200191505060405180910390f35b6104856004803603602081101561046f57600080fd5b8101908080359060200190929190505050610a2f565b604051808261ffff1661ffff16815260200191505060405180910390f35b6104ab610ad8565b604051808262ffffff1662ffffff16815260200191505060405180910390f35b6104f7600480360360208110156104e157600080fd5b8101908080359060200190929190505050610b29565b604051808260ff1660ff16815260200191505060405180910390f35b6105436004803603602081101561052957600080fd5b81019080803561ffff169060200190929190505050610b3f565b604051808215151515815260200191505060405180910390f35b6105896004803603602081101561057357600080fd5b8101908080359060200190929190505050610bb4565b6040518082815260200191505060405180910390f35b6105dc600480360360408110156105b557600080fd5b81019080803560ff169060200190929190803561ffff169060200190929190505050610be7565b604051808260ff1660ff16815260200191505060405180910390f35b610600610cb3565b6040518082815260200191505060405180910390f35b6106426004803603602081101561062c57600080fd5b8101908080359060200190929190505050610d04565b604051808260ff1660ff16815260200191505060405180910390f35b60008061066a42610b29565b9050600061067742610a2f565b9050600c8260ff161461069a578061ffff166127106001840160ff1602016106a7565b60018161ffff1661271001015b9250505090565b60006018603c8084816106bd57fe5b04816106c557fe5b04816106cd57fe5b069050919050565b6000600760046201518084816106e757fe5b0401816106f057fe5b069050919050565b60008061070442610b29565b9050600061071142610a2f565b90508061ffff166127108360ff1602019250505090565b6000610739868686868660006107a4565b905095945050505050565b600061074f82610d21565b604001519050919050565b600061076b858585856000806107a4565b9050949350505050565b6000603c828161078157fe5b069050919050565b600061079b84848460008060006107a4565b90509392505050565b6000806107b290505b8761ffff168161ffff1610156107f0576107c681610b3f565b156107d9576301e28500820191506107e3565b6301e13380820191505b80806001019150506107ad565b6107f8610ebe565b601f816000600c811061080757fe5b602002019060ff16908160ff168152505061082189610b3f565b1561084b57601d816001600c811061083557fe5b602002019060ff16908160ff168152505061086c565b601c816001600c811061085a57fe5b602002019060ff16908160ff16815250505b601f816002600c811061087b57fe5b602002019060ff16908160ff1681525050601e816003600c811061089b57fe5b602002019060ff16908160ff1681525050601f816004600c81106108bb57fe5b602002019060ff16908160ff1681525050601e816005600c81106108db57fe5b602002019060ff16908160ff1681525050601f816006600c81106108fb57fe5b602002019060ff16908160ff1681525050601f816007600c811061091b57fe5b602002019060ff16908160ff1681525050601e816008600c811061093b57fe5b602002019060ff16908160ff1681525050601f816009600c811061095b57fe5b602002019060ff16908160ff1681525050601e81600a600c811061097b57fe5b602002019060ff16908160ff1681525050601f81600b600c811061099b57fe5b602002019060ff16908160ff1681525050600191505b8760ff168261ffff1610156109f157806001830361ffff16600c81106109d357fe5b602002015160ff1662015180028301925081806001019250506109b1565b6001870360ff166201518002830192508560ff16610e1002830192508460ff16603c02830192508360ff168301925082925050509695505050505050565b600080600090506000806301e133808581610a4657fe5b046107b261ffff16019150610a606107b261ffff16610bb4565b610a6d8361ffff16610bb4565b039050806301e285000283019250806107b2830361ffff16036301e1338002830192505b84831115610acd57610aa560018303610b3f565b15610ab8576301e2850083039250610ac2565b6301e13380830392505b600182039150610a91565b819350505050919050565b600080610ae442610b29565b90506000610af142610a2f565b905060018260ff1614610b14578061ffff166127106001840360ff160201610b22565b60018161ffff166201d4c001035b9250505090565b6000610b3482610d21565b602001519050919050565b60008060048361ffff1681610b5057fe5b0661ffff1614610b635760009050610baf565b600060648361ffff1681610b7357fe5b0661ffff1614610b865760019050610baf565b60006101908361ffff1681610b9757fe5b0661ffff1614610baa5760009050610baf565b600190505b919050565b60006001820391506101908281610bc757fe5b0460648381610bd257fe5b0460048481610bdd57fe5b0403019050919050565b600060018360ff161480610bfe575060038360ff16145b80610c0c575060058360ff16145b80610c1a575060078360ff16145b80610c28575060088360ff16145b80610c365750600a8360ff16145b80610c445750600c8360ff16145b15610c5257601f9050610cad565b60048360ff161480610c67575060068360ff16145b80610c75575060098360ff16145b80610c835750600b8360ff16145b15610c9157601e9050610cad565b610c9a82610b3f565b15610ca857601d9050610cad565b601c90505b92915050565b600080610cbf42610b29565b90506000610ccc42610a2f565b9050600c8260ff1614610ced57610ce881600184016001610789565b610cfd565b610cfc60018201600180610789565b5b9250505090565b6000603c808381610d1157fe5b0481610d1957fe5b069050919050565b610d29610ee1565b6000809050600080610d3a85610a2f565b846000019061ffff16908161ffff1681525050610d5c6107b261ffff16610bb4565b610d6d856000015161ffff16610bb4565b039150816301e285000283019250816107b285600001510361ffff16036301e1338002830192506000600191505b600c8260ff1611610df157610db4828660000151610be7565b60ff1662015180029050858482011115610ddf5781856020019060ff16908160ff1681525050610df1565b80840193508180600101925050610d9b565b600191505b610e0885602001518660000151610be7565b60ff168260ff1611610e4d57858462015180011115610e385781856040019060ff16908160ff1681525050610e4d565b62015180840193508180600101925050610df6565b610e56866106ae565b856060019060ff16908160ff1681525050610e7086610d04565b856080019060ff16908160ff1681525050610e8a86610775565b8560a0019060ff16908160ff1681525050610ea4866106d5565b8560c0019060ff16908160ff168152505050505050919050565b604051806101800160405280600c90602082028038833980820191505090505090565b6040518060e00160405280600061ffff168152602001600060ff168152602001600060ff168152602001600060ff168152602001600060ff168152602001600060ff168152602001600060ff168152509056fea265627a7a72315820e9c6964a3253ddbc057c297eb515b615fbf3b002fb05e0bff6a0d79fcb951cb464736f6c63430005100032",
  "source": "pragma solidity ^0.5.0;\n\ncontract DateTime {\n        /*\n         *  Date and Time utilities for ethereum contracts\n         *\n         */\n        struct _DateTime {\n                uint16 year;\n                uint8 month;\n                uint8 day;\n                uint8 hour;\n                uint8 minute;\n                uint8 second;\n                uint8 weekday;\n        }\n\n        uint constant DAY_IN_SECONDS = 86400;\n        uint constant YEAR_IN_SECONDS = 31536000;\n        uint constant LEAP_YEAR_IN_SECONDS = 31622400;\n\n        uint constant HOUR_IN_SECONDS = 3600;\n        uint constant MINUTE_IN_SECONDS = 60;\n\n        uint16 constant ORIGIN_YEAR = 1970;\n\n        function isLeapYear(uint16 year) public pure returns (bool) {\n                if (year % 4 != 0) {\n                        return false;\n                }\n                if (year % 100 != 0) {\n                        return true;\n                }\n                if (year % 400 != 0) {\n                        return false;\n                }\n                return true;\n        }\n\n        function leapYearsBefore(uint year) public pure returns (uint) {\n                year -= 1;\n                return year / 4 - year / 100 + year / 400;\n        }\n\n        function getDaysInMonth(uint8 month, uint16 year) public pure returns (uint8) {\n                if (month == 1 || month == 3 || month == 5 || month == 7 || month == 8 || month == 10 || month == 12) {\n                        return 31;\n                }\n                else if (month == 4 || month == 6 || month == 9 || month == 11) {\n                        return 30;\n                }\n                else if (isLeapYear(year)) {\n                        return 29;\n                }\n                else {\n                        return 28;\n                }\n        }\n\n        function parseTimestamp(uint timestamp) internal pure returns (_DateTime memory dt) {\n                uint secondsAccountedFor = 0;\n                uint buf;\n                uint8 i;\n\n                // Year\n                dt.year = getYear(timestamp);\n                buf = leapYearsBefore(dt.year) - leapYearsBefore(ORIGIN_YEAR);\n\n                secondsAccountedFor += LEAP_YEAR_IN_SECONDS * buf;\n                secondsAccountedFor += YEAR_IN_SECONDS * (dt.year - ORIGIN_YEAR - buf);\n\n                // Month\n                uint secondsInMonth;\n                for (i = 1; i <= 12; i++) {\n                        secondsInMonth = DAY_IN_SECONDS * getDaysInMonth(i, dt.year);\n                        if (secondsInMonth + secondsAccountedFor > timestamp) {\n                                dt.month = i;\n                                break;\n                        }\n                        secondsAccountedFor += secondsInMonth;\n                }\n\n                // Day\n                for (i = 1; i <= getDaysInMonth(dt.month, dt.year); i++) {\n                        if (DAY_IN_SECONDS + secondsAccountedFor > timestamp) {\n                                dt.day = i;\n                                break;\n                        }\n                        secondsAccountedFor += DAY_IN_SECONDS;\n                }\n\n                // Hour\n                dt.hour = getHour(timestamp);\n\n                // Minute\n                dt.minute = getMinute(timestamp);\n\n                // Second\n                dt.second = getSecond(timestamp);\n\n                // Day of week.\n                dt.weekday = getWeekday(timestamp);\n        }\n\n        function getYear(uint timestamp) public pure returns (uint16) {\n                uint secondsAccountedFor = 0;\n                uint16 year;\n                uint numLeapYears;\n\n                // Year\n                year = uint16(ORIGIN_YEAR + timestamp / YEAR_IN_SECONDS);\n                numLeapYears = leapYearsBefore(year) - leapYearsBefore(ORIGIN_YEAR);\n\n                secondsAccountedFor += LEAP_YEAR_IN_SECONDS * numLeapYears;\n                secondsAccountedFor += YEAR_IN_SECONDS * (year - ORIGIN_YEAR - numLeapYears);\n\n                while (secondsAccountedFor > timestamp) {\n                        if (isLeapYear(uint16(year - 1))) {\n                                secondsAccountedFor -= LEAP_YEAR_IN_SECONDS;\n                        }\n                        else {\n                                secondsAccountedFor -= YEAR_IN_SECONDS;\n                        }\n                        year -= 1;\n                }\n                return year;\n        }\n\n        function getMonth(uint timestamp) public pure returns (uint8) {\n                return parseTimestamp(timestamp).month;\n        }\n\n        function getDay(uint timestamp) public pure returns (uint8) {\n                return parseTimestamp(timestamp).day;\n        }\n\n        function getHour(uint timestamp) public pure returns (uint8) {\n                return uint8((timestamp / 60 / 60) % 24);\n        }\n\n        function getMinute(uint timestamp) public pure returns (uint8) {\n                return uint8((timestamp / 60) % 60);\n        }\n\n        function getSecond(uint timestamp) public pure returns (uint8) {\n                return uint8(timestamp % 60);\n        }\n\n        function getWeekday(uint timestamp) public pure returns (uint8) {\n                return uint8((timestamp / DAY_IN_SECONDS + 4) % 7);\n        }\n\n        function toTimestamp(uint16 year, uint8 month, uint8 day) public pure returns (uint timestamp) {\n                return toTimestamp(year, month, day, 0, 0, 0);\n        }\n\n        function toTimestamp(uint16 year, uint8 month, uint8 day, uint8 hour) public pure returns (uint timestamp) {\n                return toTimestamp(year, month, day, hour, 0, 0);\n        }\n\n        function toTimestamp(uint16 year, uint8 month, uint8 day, uint8 hour, uint8 minute) public pure returns (uint timestamp) {\n                return toTimestamp(year, month, day, hour, minute, 0);\n        }\n\n        function toTimestamp(uint16 year, uint8 month, uint8 day, uint8 hour, uint8 minute, uint8 second) public pure returns (uint timestamp) {\n                uint16 i;\n\n                // Year\n                for (i = ORIGIN_YEAR; i < year; i++) {\n                        if (isLeapYear(i)) {\n                                timestamp += LEAP_YEAR_IN_SECONDS;\n                        }\n                        else {\n                                timestamp += YEAR_IN_SECONDS;\n                        }\n                }\n\n                // Month\n                uint8[12] memory monthDayCounts;\n                monthDayCounts[0] = 31;\n                if (isLeapYear(year)) {\n                        monthDayCounts[1] = 29;\n                }\n                else {\n                        monthDayCounts[1] = 28;\n                }\n                monthDayCounts[2] = 31;\n                monthDayCounts[3] = 30;\n                monthDayCounts[4] = 31;\n                monthDayCounts[5] = 30;\n                monthDayCounts[6] = 31;\n                monthDayCounts[7] = 31;\n                monthDayCounts[8] = 30;\n                monthDayCounts[9] = 31;\n                monthDayCounts[10] = 30;\n                monthDayCounts[11] = 31;\n\n                for (i = 1; i < month; i++) {\n                        timestamp += DAY_IN_SECONDS * monthDayCounts[i - 1];\n                }\n\n                // Day\n                timestamp += DAY_IN_SECONDS * (day - 1);\n\n                // Hour\n                timestamp += HOUR_IN_SECONDS * (hour);\n\n                // Minute\n                timestamp += MINUTE_IN_SECONDS * (minute);\n\n                // Second\n                timestamp += second;\n\n                return timestamp;\n        }\n\n        function thisMonth() public view returns (uint24) {\n            uint8 _month = getMonth(block.timestamp);\n            uint16 _year = getYear(block.timestamp);\n            return _month * uint24(10000) + _year;\n        }\n\n        function lastMonth() public view returns (uint24) {\n            uint8 _month = getMonth(block.timestamp);\n            uint16 _year = getYear(block.timestamp);\n            return _month == 1 ? 120000 + _year - 1: (_month - 1) * uint24(10000) + _year;\n        }\n\n        function nextMonth() public view returns (uint24) {\n            uint8 _month = getMonth(block.timestamp);\n            uint16 _year = getYear(block.timestamp);\n            return _month == 12 ? uint24(10000) + _year + 1: (_month + 1) * uint24(10000) + _year;\n        }\n\n        function firstOfNextMonth() public view returns (uint256) {\n            uint8 _month = getMonth(block.timestamp);\n            uint16 _year = getYear(block.timestamp);\n            return _month == 12 ? toTimestamp(_year + 1, 1, 1) : toTimestamp(_year, _month + 1, 1);\n        }\n}",
  "sourcePath": "/home/ubuntu/projects/poc/contracts/DateTime.sol",
  "compiler": {
    "name": "solc",
    "version": "0.5.16+commit.9c3226ce.Emscripten.clang"
  },
  "schemaVersion": "3.0.23",
  "updatedAt": "2020-06-16T20:31:55.247Z",
  "networkType": "ethereum",
  "devdoc": {
    "methods": {}
  },
  "userdoc": {
    "methods": {}
  }
}