{
  "contractName": "POC_Pool",
  "abi": [
    {
      "inputs": [
        {
          "internalType": "address",
          "name": "_datetime_contract",
          "type": "address"
        }
      ],
      "payable": false,
      "stateMutability": "nonpayable",
      "type": "constructor"
    },
    {
      "anonymous": false,
      "inputs": [
        {
          "indexed": false,
          "internalType": "uint256",
          "name": "_migration_lock",
          "type": "uint256"
        }
      ],
      "name": "migrationSet",
      "type": "event"
    },
    {
      "anonymous": false,
      "inputs": [
        {
          "indexed": false,
          "internalType": "address",
          "name": "_wallet_address",
          "type": "address"
        }
      ],
      "name": "tokenWithdrawed",
      "type": "event"
    },
    {
      "anonymous": false,
      "inputs": [
        {
          "indexed": false,
          "internalType": "string",
          "name": "_uid",
          "type": "string"
        },
        {
          "indexed": false,
          "internalType": "string",
          "name": "_username",
          "type": "string"
        },
        {
          "indexed": false,
          "internalType": "string",
          "name": "_ref_by",
          "type": "string"
        },
        {
          "indexed": false,
          "internalType": "uint256",
          "name": "_amount",
          "type": "uint256"
        },
        {
          "indexed": false,
          "internalType": "string",
          "name": "_merchant",
          "type": "string"
        },
        {
          "indexed": false,
          "internalType": "string",
          "name": "_subid",
          "type": "string"
        },
        {
          "indexed": false,
          "internalType": "uint256",
          "name": "_release",
          "type": "uint256"
        },
        {
          "indexed": false,
          "internalType": "uint256[10]",
          "name": "_ref_rates",
          "type": "uint256[10]"
        }
      ],
      "name": "transactionAdded",
      "type": "event"
    },
    {
      "anonymous": false,
      "inputs": [
        {
          "indexed": false,
          "internalType": "string",
          "name": "_uid",
          "type": "string"
        }
      ],
      "name": "transactionDistributed",
      "type": "event"
    },
    {
      "anonymous": false,
      "inputs": [
        {
          "indexed": false,
          "internalType": "string",
          "name": "_uid",
          "type": "string"
        }
      ],
      "name": "transactionRevoked",
      "type": "event"
    },
    {
      "constant": true,
      "inputs": [
        {
          "internalType": "address",
          "name": "",
          "type": "address"
        }
      ],
      "name": "balance",
      "outputs": [
        {
          "internalType": "uint256",
          "name": "",
          "type": "uint256"
        }
      ],
      "payable": false,
      "stateMutability": "view",
      "type": "function"
    },
    {
      "constant": true,
      "inputs": [
        {
          "internalType": "uint24",
          "name": "",
          "type": "uint24"
        },
        {
          "internalType": "string",
          "name": "",
          "type": "string"
        },
        {
          "internalType": "string",
          "name": "",
          "type": "string"
        }
      ],
      "name": "direct_revenue",
      "outputs": [
        {
          "internalType": "uint256",
          "name": "",
          "type": "uint256"
        }
      ],
      "payable": false,
      "stateMutability": "view",
      "type": "function"
    },
    {
      "constant": true,
      "inputs": [
        {
          "internalType": "string",
          "name": "",
          "type": "string"
        }
      ],
      "name": "isUid",
      "outputs": [
        {
          "internalType": "bool",
          "name": "",
          "type": "bool"
        }
      ],
      "payable": false,
      "stateMutability": "view",
      "type": "function"
    },
    {
      "constant": true,
      "inputs": [
        {
          "internalType": "string",
          "name": "",
          "type": "string"
        }
      ],
      "name": "transaction",
      "outputs": [
        {
          "internalType": "address",
          "name": "issuer",
          "type": "address"
        },
        {
          "internalType": "string",
          "name": "username",
          "type": "string"
        },
        {
          "internalType": "string",
          "name": "aliases",
          "type": "string"
        },
        {
          "internalType": "string",
          "name": "ref_by",
          "type": "string"
        },
        {
          "internalType": "string",
          "name": "merchant",
          "type": "string"
        },
        {
          "internalType": "string",
          "name": "subid",
          "type": "string"
        },
        {
          "internalType": "uint256",
          "name": "amount",
          "type": "uint256"
        },
        {
          "internalType": "uint256",
          "name": "release",
          "type": "uint256"
        },
        {
          "internalType": "enum POC_Pool.txstatus",
          "name": "status",
          "type": "uint8"
        }
      ],
      "payable": false,
      "stateMutability": "view",
      "type": "function"
    },
    {
      "constant": false,
      "inputs": [
        {
          "internalType": "address",
          "name": "_poc_token",
          "type": "address"
        }
      ],
      "name": "setPocTokenAddress",
      "outputs": [],
      "payable": false,
      "stateMutability": "nonpayable",
      "type": "function"
    },
    {
      "constant": false,
      "inputs": [
        {
          "internalType": "address",
          "name": "_citizen",
          "type": "address"
        }
      ],
      "name": "setCitizenAddress",
      "outputs": [],
      "payable": false,
      "stateMutability": "nonpayable",
      "type": "function"
    },
    {
      "constant": false,
      "inputs": [],
      "name": "setMigration",
      "outputs": [],
      "payable": false,
      "stateMutability": "nonpayable",
      "type": "function"
    },
    {
      "constant": false,
      "inputs": [
        {
          "internalType": "uint256",
          "name": "_mint_rate",
          "type": "uint256"
        }
      ],
      "name": "setMintRate",
      "outputs": [],
      "payable": false,
      "stateMutability": "nonpayable",
      "type": "function"
    },
    {
      "constant": false,
      "inputs": [],
      "name": "migrationWithdraw",
      "outputs": [
        {
          "internalType": "bool",
          "name": "",
          "type": "bool"
        }
      ],
      "payable": false,
      "stateMutability": "nonpayable",
      "type": "function"
    },
    {
      "constant": false,
      "inputs": [
        {
          "internalType": "string",
          "name": "_uid",
          "type": "string"
        },
        {
          "internalType": "string",
          "name": "_username",
          "type": "string"
        },
        {
          "internalType": "string",
          "name": "_ref_by",
          "type": "string"
        },
        {
          "internalType": "uint256",
          "name": "_amount",
          "type": "uint256"
        },
        {
          "internalType": "string",
          "name": "_merchant",
          "type": "string"
        },
        {
          "internalType": "string",
          "name": "_subid",
          "type": "string"
        },
        {
          "internalType": "uint256",
          "name": "_release",
          "type": "uint256"
        },
        {
          "internalType": "uint256[10]",
          "name": "_ref_rates",
          "type": "uint256[10]"
        }
      ],
      "name": "addTransaction",
      "outputs": [
        {
          "internalType": "string",
          "name": "",
          "type": "string"
        }
      ],
      "payable": false,
      "stateMutability": "nonpayable",
      "type": "function"
    },
    {
      "constant": false,
      "inputs": [
        {
          "internalType": "string",
          "name": "_uid",
          "type": "string"
        }
      ],
      "name": "revokeTransaction",
      "outputs": [
        {
          "internalType": "string",
          "name": "",
          "type": "string"
        }
      ],
      "payable": false,
      "stateMutability": "nonpayable",
      "type": "function"
    },
    {
      "constant": false,
      "inputs": [
        {
          "internalType": "string",
          "name": "_uid",
          "type": "string"
        }
      ],
      "name": "distributeTransaction",
      "outputs": [],
      "payable": false,
      "stateMutability": "nonpayable",
      "type": "function"
    },
    {
      "constant": false,
      "inputs": [],
      "name": "tokenWithdraw",
      "outputs": [],
      "payable": false,
      "stateMutability": "nonpayable",
      "type": "function"
    },
    {
      "constant": true,
      "inputs": [
        {
          "internalType": "address",
          "name": "_wallet_address",
          "type": "address"
        }
      ],
      "name": "balanceOf",
      "outputs": [
        {
          "internalType": "uint256",
          "name": "",
          "type": "uint256"
        }
      ],
      "payable": false,
      "stateMutability": "view",
      "type": "function"
    },
    {
      "constant": true,
      "inputs": [
        {
          "internalType": "string",
          "name": "_username",
          "type": "string"
        }
      ],
      "name": "getCitizenWallet",
      "outputs": [
        {
          "internalType": "address",
          "name": "",
          "type": "address"
        }
      ],
      "payable": false,
      "stateMutability": "view",
      "type": "function"
    },
    {
      "constant": true,
      "inputs": [
        {
          "internalType": "string",
          "name": "_username",
          "type": "string"
        }
      ],
      "name": "getCitizenRefBy",
      "outputs": [
        {
          "internalType": "string",
          "name": "",
          "type": "string"
        }
      ],
      "payable": false,
      "stateMutability": "view",
      "type": "function"
    },
    {
      "constant": true,
      "inputs": [
        {
          "internalType": "string",
          "name": "_username",
          "type": "string"
        },
        {
          "internalType": "string",
          "name": "_merchant",
          "type": "string"
        },
        {
          "internalType": "uint24",
          "name": "_month",
          "type": "uint24"
        }
      ],
      "name": "getDirectRevenue",
      "outputs": [
        {
          "internalType": "uint256",
          "name": "",
          "type": "uint256"
        }
      ],
      "payable": false,
      "stateMutability": "view",
      "type": "function"
    }
  ],
  "bytecode": "0x608060405262278d00600355612328600455643afe130e00600b5534801561002657600080fd5b5060405162005155380380620051558339818101604052602081101561004b57600080fd5b8101908080519060200190929190505050336000806101000a81548173ffffffffffffffffffffffffffffffffffffffff021916908373ffffffffffffffffffffffffffffffffffffffff16021790555080600760006101000a81548173ffffffffffffffffffffffffffffffffffffffff021916908373ffffffffffffffffffffffffffffffffffffffff1602179055505061506780620000ee6000396000f3fe608060405234801561001057600080fd5b506004361061010b5760003560e01c80638ec5ff41116100a2578063c2206ae711610071578063c2206ae714610eaf578063da3a29b914610fe3578063dbe2193f146110de578063e3d670d71461110c578063eb9d84dc146111645761010b565b80638ec5ff411461083c5780638fe62be71461090f5780639f1bcec414610a84578063c062987a14610e6b5761010b565b806370a08231116100de57806370a082311461027a5780637cd07fed146102d257806383063c761461060c57806388d34137146107815761010b565b806330c74e041461011057806340b9b4dc1461011a57806349ce6d431461012457806368b8f90214610146575b600080fd5b6101186111a8565b005b6101226114ec565b005b61012c6115f4565b604051808215151515815260200191505060405180910390f35b6101ff6004803603602081101561015c57600080fd5b810190808035906020019064010000000081111561017957600080fd5b82018360208201111561018b57600080fd5b803590602001918460018302840111640100000000831117156101ad57600080fd5b91908080601f016020809104026020016040519081016040528093929190818152602001838380828437600081840152601f19601f820116905080830192505050505050509192919290505050611975565b6040518080602001828103825283818151815260200191508051906020019080838360005b8381101561023f578082015181840152602081019050610224565b50505050905090810190601f16801561026c5780820380516001836020036101000a031916815260200191505b509250505060405180910390f35b6102bc6004803603602081101561029057600080fd5b81019080803573ffffffffffffffffffffffffffffffffffffffff169060200190929190505050611f57565b6040518082815260200191505060405180910390f35b61038b600480360360208110156102e857600080fd5b810190808035906020019064010000000081111561030557600080fd5b82018360208201111561031757600080fd5b8035906020019184600183028401116401000000008311171561033957600080fd5b91908080601f016020809104026020016040519081016040528093929190818152602001838380828437600081840152601f19601f820116905080830192505050505050509192919290505050611fa0565b604051808a73ffffffffffffffffffffffffffffffffffffffff1673ffffffffffffffffffffffffffffffffffffffff16815260200180602001806020018060200180602001806020018981526020018881526020018760028111156103ed57fe5b60ff16815260200186810386528e818151815260200191508051906020019080838360005b8381101561042d578082015181840152602081019050610412565b50505050905090810190601f16801561045a5780820380516001836020036101000a031916815260200191505b5086810385528d818151815260200191508051906020019080838360005b83811015610493578082015181840152602081019050610478565b50505050905090810190601f1680156104c05780820380516001836020036101000a031916815260200191505b5086810384528c818151815260200191508051906020019080838360005b838110156104f95780820151818401526020810190506104de565b50505050905090810190601f1680156105265780820380516001836020036101000a031916815260200191505b5086810383528b818151815260200191508051906020019080838360005b8381101561055f578082015181840152602081019050610544565b50505050905090810190601f16801561058c5780820380516001836020036101000a031916815260200191505b5086810382528a818151815260200191508051906020019080838360005b838110156105c55780820151818401526020810190506105aa565b50505050905090810190601f1680156105f25780820380516001836020036101000a031916815260200191505b509e50505050505050505050505050505060405180910390f35b61076b6004803603606081101561062257600080fd5b810190808035906020019064010000000081111561063f57600080fd5b82018360208201111561065157600080fd5b8035906020019184600183028401116401000000008311171561067357600080fd5b91908080601f016020809104026020016040519081016040528093929190818152602001838380828437600081840152601f19601f820116905080830192505050505050509192919290803590602001906401000000008111156106d657600080fd5b8201836020820111156106e857600080fd5b8035906020019184600183028401116401000000008311171561070a57600080fd5b91908080601f016020809104026020016040519081016040528093929190818152602001838380828437600081840152601f19601f820116905080830192505050505050509192919290803562ffffff169060200190929190505050612329565b6040518082815260200191505060405180910390f35b61083a6004803603602081101561079757600080fd5b81019080803590602001906401000000008111156107b457600080fd5b8201836020820111156107c657600080fd5b803590602001918460018302840111640100000000831117156107e857600080fd5b91908080601f016020809104026020016040519081016040528093929190818152602001838380828437600081840152601f19601f820116905080830192505050505050509192919290505050612420565b005b6108f56004803603602081101561085257600080fd5b810190808035906020019064010000000081111561086f57600080fd5b82018360208201111561088157600080fd5b803590602001918460018302840111640100000000831117156108a357600080fd5b91908080601f016020809104026020016040519081016040528093929190818152602001838380828437600081840152601f19601f8201169050808301925050505050505091929192905050506133f2565b604051808215151515815260200191505060405180910390f35b610a6e6004803603606081101561092557600080fd5b81019080803562ffffff1690602001909291908035906020019064010000000081111561095157600080fd5b82018360208201111561096357600080fd5b8035906020019184600183028401116401000000008311171561098557600080fd5b91908080601f016020809104026020016040519081016040528093929190818152602001838380828437600081840152601f19601f820116905080830192505050505050509192919290803590602001906401000000008111156109e857600080fd5b8201836020820111156109fa57600080fd5b80359060200191846001830284011164010000000083111715610a1c57600080fd5b91908080601f016020809104026020016040519081016040528093929190818152602001838380828437600081840152601f19601f820116905080830192505050505050509192919290505050613428565b6040518082815260200191505060405180910390f35b610df06004803603610220811015610a9b57600080fd5b8101908080359060200190640100000000811115610ab857600080fd5b820183602082011115610aca57600080fd5b80359060200191846001830284011164010000000083111715610aec57600080fd5b91908080601f016020809104026020016040519081016040528093929190818152602001838380828437600081840152601f19601f82011690508083019250505050505050919291929080359060200190640100000000811115610b4f57600080fd5b820183602082011115610b6157600080fd5b80359060200191846001830284011164010000000083111715610b8357600080fd5b91908080601f016020809104026020016040519081016040528093929190818152602001838380828437600081840152601f19601f82011690508083019250505050505050919291929080359060200190640100000000811115610be657600080fd5b820183602082011115610bf857600080fd5b80359060200191846001830284011164010000000083111715610c1a57600080fd5b91908080601f016020809104026020016040519081016040528093929190818152602001838380828437600081840152601f19601f8201169050808301925050505050505091929192908035906020019092919080359060200190640100000000811115610c8757600080fd5b820183602082011115610c9957600080fd5b80359060200191846001830284011164010000000083111715610cbb57600080fd5b91908080601f016020809104026020016040519081016040528093929190818152602001838380828437600081840152601f19601f82011690508083019250505050505050919291929080359060200190640100000000811115610d1e57600080fd5b820183602082011115610d3057600080fd5b80359060200191846001830284011164010000000083111715610d5257600080fd5b91908080601f016020809104026020016040519081016040528093929190818152602001838380828437600081840152601f19601f82011690508083019250505050505050919291929080359060200190929190806101400190600a806020026040519081016040528092919082600a60200280828437600081840152601f19601f8201169050808301925050505050509192919290505050613486565b6040518080602001828103825283818151815260200191508051906020019080838360005b83811015610e30578082015181840152602081019050610e15565b50505050905090810190601f168015610e5d5780820380516001836020036101000a031916815260200191505b509250505060405180910390f35b610ead60048036036020811015610e8157600080fd5b81019080803573ffffffffffffffffffffffffffffffffffffffff1690602001909291905050506144de565b005b610f6860048036036020811015610ec557600080fd5b8101908080359060200190640100000000811115610ee257600080fd5b820183602082011115610ef457600080fd5b80359060200191846001830284011164010000000083111715610f1657600080fd5b91908080601f016020809104026020016040519081016040528093929190818152602001838380828437600081840152601f19601f820116905080830192505050505050509192919290505050614665565b6040518080602001828103825283818151815260200191508051906020019080838360005b83811015610fa8578082015181840152602081019050610f8d565b50505050905090810190601f168015610fd55780820380516001836020036101000a031916815260200191505b509250505060405180910390f35b61109c60048036036020811015610ff957600080fd5b810190808035906020019064010000000081111561101657600080fd5b82018360208201111561102857600080fd5b8035906020019184600183028401116401000000008311171561104a57600080fd5b91908080601f016020809104026020016040519081016040528093929190818152602001838380828437600081840152601f19601f82011690508083019250505050505050919291929050505061483f565b604051808273ffffffffffffffffffffffffffffffffffffffff1673ffffffffffffffffffffffffffffffffffffffff16815260200191505060405180910390f35b61110a600480360360208110156110f457600080fd5b810190808035906020019092919050505061495b565b005b61114e6004803603602081101561112257600080fd5b81019080803573ffffffffffffffffffffffffffffffffffffffff169060200190929190505050614a27565b6040518082815260200191505060405180910390f35b6111a66004803603602081101561117a57600080fd5b81019080803573ffffffffffffffffffffffffffffffffffffffff169060200190929190505050614a3f565b005b600560009054906101000a900473ffffffffffffffffffffffffffffffffffffffff1673ffffffffffffffffffffffffffffffffffffffff166370a08231306040518263ffffffff1660e01b8152600401808273ffffffffffffffffffffffffffffffffffffffff1673ffffffffffffffffffffffffffffffffffffffff16815260200191505060206040518083038186803b15801561124757600080fd5b505afa15801561125b573d6000803e3d6000fd5b505050506040513d602081101561127157600080fd5b8101908080519060200190929190505050600960003373ffffffffffffffffffffffffffffffffffffffff1673ffffffffffffffffffffffffffffffffffffffff1681526020019081526020016000205410611318576040517f08c379a000000000000000000000000000000000000000000000000000000000815260040180806020018281038252602e815260200180614fd4602e913960400191505060405180910390fd5b6000600960003373ffffffffffffffffffffffffffffffffffffffff1673ffffffffffffffffffffffffffffffffffffffff1681526020019081526020016000205490506000600960003373ffffffffffffffffffffffffffffffffffffffff1673ffffffffffffffffffffffffffffffffffffffff16815260200190815260200160002081905550600560009054906101000a900473ffffffffffffffffffffffffffffffffffffffff1673ffffffffffffffffffffffffffffffffffffffff1663a9059cbb33836040518363ffffffff1660e01b8152600401808373ffffffffffffffffffffffffffffffffffffffff1673ffffffffffffffffffffffffffffffffffffffff16815260200182815260200192505050602060405180830381600087803b15801561144a57600080fd5b505af115801561145e573d6000803e3d6000fd5b505050506040513d602081101561147457600080fd5b8101908080519060200190929190505050507f10000b49c3d972f3234567e6da32a3fa2d6edf7171a2797910e5d63209650a3533604051808273ffffffffffffffffffffffffffffffffffffffff1673ffffffffffffffffffffffffffffffffffffffff16815260200191505060405180910390a150565b3373ffffffffffffffffffffffffffffffffffffffff166000809054906101000a900473ffffffffffffffffffffffffffffffffffffffff1673ffffffffffffffffffffffffffffffffffffffff16146115ae576040517f08c379a00000000000000000000000000000000000000000000000000000000081526004018080602001828103825260168152602001807f4f6e6c7920726f6f742061646d696e2063616e20646f0000000000000000000081525060200191505060405180910390fd5b6003544201600b819055507f9e045fd3cdedc3841fbe12560e175797bb5058edc6b338171e2cb23552450bca600b546040518082815260200191505060405180910390a1565b60003373ffffffffffffffffffffffffffffffffffffffff166000809054906101000a900473ffffffffffffffffffffffffffffffffffffffff1673ffffffffffffffffffffffffffffffffffffffff16146116b8576040517f08c379a00000000000000000000000000000000000000000000000000000000081526004018080602001828103825260168152602001807f4f6e6c7920726f6f742061646d696e2063616e20646f0000000000000000000081525060200191505060405180910390fd5b42600b5410611712576040517f08c379a0000000000000000000000000000000000000000000000000000000008152600401808060200182810382526037815260200180614f776037913960400191505060405180910390fd5b600560009054906101000a900473ffffffffffffffffffffffffffffffffffffffff1673ffffffffffffffffffffffffffffffffffffffff1663a9059cbb600660009054906101000a900473ffffffffffffffffffffffffffffffffffffffff1673ffffffffffffffffffffffffffffffffffffffff1663f9b965476040518163ffffffff1660e01b815260040160206040518083038186803b1580156117b857600080fd5b505afa1580156117cc573d6000803e3d6000fd5b505050506040513d60208110156117e257600080fd5b8101908080519060200190929190505050600560009054906101000a900473ffffffffffffffffffffffffffffffffffffffff1673ffffffffffffffffffffffffffffffffffffffff166370a08231306040518263ffffffff1660e01b8152600401808273ffffffffffffffffffffffffffffffffffffffff1673ffffffffffffffffffffffffffffffffffffffff16815260200191505060206040518083038186803b15801561189257600080fd5b505afa1580156118a6573d6000803e3d6000fd5b505050506040513d60208110156118bc57600080fd5b81019080805190602001909291905050506040518363ffffffff1660e01b8152600401808373ffffffffffffffffffffffffffffffffffffffff1673ffffffffffffffffffffffffffffffffffffffff16815260200182815260200192505050602060405180830381600087803b15801561193657600080fd5b505af115801561194a573d6000803e3d6000fd5b505050506040513d602081101561196057600080fd5b81019080805190602001909291905050505090565b60606000600281111561198457fe5b6002836040518082805190602001908083835b602083106119ba5780518252602082019150602081019050602083039250611997565b6001836020036101000a038019825116818451168082178552505050505050905001915050908152602001604051809103902060080160009054906101000a900460ff166002811115611a0957fe5b14611a5f576040517f08c379a0000000000000000000000000000000000000000000000000000000008152600401808060200182810382526026815260200180614fae6026913960400191505060405180910390fd5b426002836040518082805190602001908083835b60208310611a965780518252602082019150602081019050602083039250611a73565b6001836020036101000a03801982511681845116808217855250505050505090500191505090815260200160405180910390206007015411611b23576040517f08c379a0000000000000000000000000000000000000000000000000000000008152600401808060200182810382526033815260200180614ef96033913960400191505060405180910390fd5b3373ffffffffffffffffffffffffffffffffffffffff166002836040518082805190602001908083835b60208310611b705780518252602082019150602081019050602083039250611b4d565b6001836020036101000a038019825116818451168082178552505050505050905001915050908152602001604051809103902060000160009054906101000a900473ffffffffffffffffffffffffffffffffffffffff1673ffffffffffffffffffffffffffffffffffffffff1614611c33576040517f08c379a0000000000000000000000000000000000000000000000000000000008152600401808060200182810382526031815260200180614e486031913960400191505060405180910390fd5b600280836040518082805190602001908083835b60208310611c6a5780518252602082019150602081019050602083039250611c47565b6001836020036101000a038019825116818451168082178552505050505050905001915050908152602001604051809103902060080160006101000a81548160ff02191690836002811115611cbb57fe5b02179055506002826040518082805190602001908083835b60208310611cf65780518252602082019150602081019050602083039250611cd3565b6001836020036101000a038019825116818451168082178552505050505050905001915050908152602001604051809103902060060154600960006002856040518082805190602001908083835b60208310611d675780518252602082019150602081019050602083039250611d44565b6001836020036101000a038019825116818451168082178552505050505050905001915050908152602001604051809103902060000160009054906101000a900473ffffffffffffffffffffffffffffffffffffffff1673ffffffffffffffffffffffffffffffffffffffff1673ffffffffffffffffffffffffffffffffffffffff168152602001908152602001600020600082825401925050819055506001826040518082805190602001908083835b60208310611e3b5780518252602082019150602081019050602083039250611e18565b6001836020036101000a038019825116818451168082178552505050505050905001915050908152602001604051809103902060006101000a81549060ff02191690557ff70862650d22995dca7f2388f2979688b2687ae5c6062ac1d0af57fc884bc663826040518080602001828103825283818151815260200191508051906020019080838360005b83811015611ee0578082015181840152602081019050611ec5565b50505050905090810190601f168015611f0d5780820380516001836020036101000a031916815260200191505b509250505060405180910390a16040518060400160405280600481526020017f646f6e65000000000000000000000000000000000000000000000000000000008152509050919050565b6000600960008373ffffffffffffffffffffffffffffffffffffffff1673ffffffffffffffffffffffffffffffffffffffff168152602001908152602001600020549050919050565b6002818051602081018201805184825260208301602085012081835280955050505050506000915090508060000160009054906101000a900473ffffffffffffffffffffffffffffffffffffffff1690806001018054600181600116156101000203166002900480601f0160208091040260200160405190810160405280929190818152602001828054600181600116156101000203166002900480156120885780601f1061205d57610100808354040283529160200191612088565b820191906000526020600020905b81548152906001019060200180831161206b57829003601f168201915b505050505090806002018054600181600116156101000203166002900480601f0160208091040260200160405190810160405280929190818152602001828054600181600116156101000203166002900480156121265780601f106120fb57610100808354040283529160200191612126565b820191906000526020600020905b81548152906001019060200180831161210957829003601f168201915b505050505090806003018054600181600116156101000203166002900480601f0160208091040260200160405190810160405280929190818152602001828054600181600116156101000203166002900480156121c45780601f10612199576101008083540402835291602001916121c4565b820191906000526020600020905b8154815290600101906020018083116121a757829003601f168201915b505050505090806004018054600181600116156101000203166002900480601f0160208091040260200160405190810160405280929190818152602001828054600181600116156101000203166002900480156122625780601f1061223757610100808354040283529160200191612262565b820191906000526020600020905b81548152906001019060200180831161224557829003601f168201915b505050505090806005018054600181600116156101000203166002900480601f0160208091040260200160405190810160405280929190818152602001828054600181600116156101000203166002900480156123005780601f106122d557610100808354040283529160200191612300565b820191906000526020600020905b8154815290600101906020018083116122e357829003601f168201915b5050505050908060060154908060070154908060080160009054906101000a900460ff16905089565b6000600a60008362ffffff1662ffffff168152602001908152602001600020836040518082805190602001908083835b6020831061237c5780518252602082019150602081019050602083039250612359565b6001836020036101000a0380198251168184511680821785525050505050509050019150509081526020016040518091039020846040518082805190602001908083835b602083106123e357805182526020820191506020810190506020830392506123c0565b6001836020036101000a03801982511681845116808217855250505050505090500191505090815260200160405180910390205490509392505050565b6000600281111561242d57fe5b6002826040518082805190602001908083835b602083106124635780518252602082019150602081019050602083039250612440565b6001836020036101000a038019825116818451168082178552505050505050905001915050908152602001604051809103902060080160009054906101000a900460ff1660028111156124b257fe5b14612508576040517f08c379a000000000000000000000000000000000000000000000000000000000815260040180806020018281038252602a815260200180614f4d602a913960400191505060405180910390fd5b6002816040518082805190602001908083835b6020831061253e578051825260208201915060208101905060208303925061251b565b6001836020036101000a0380198251168184511680821785525050505050509050019150509081526020016040518091039020600701544210156125ea576040517f08c379a000000000000000000000000000000000000000000000000000000000815260040180806020018281038252601d8152602001807f5472616e73616374696f6e206973206e6f742072656c65617361626c6500000081525060200191505060405180910390fd5b60016002826040518082805190602001908083835b6020831061262257805182526020820191506020810190506020830392506125ff565b6001836020036101000a038019825116818451168082178552505050505050905001915050908152602001604051809103902060080160006101000a81548160ff0219169083600281111561267357fe5b02179055504260085410156128ae57600760009054906101000a900473ffffffffffffffffffffffffffffffffffffffff1673ffffffffffffffffffffffffffffffffffffffff1663cac6cb896040518163ffffffff1660e01b815260040160206040518083038186803b1580156126ea57600080fd5b505afa1580156126fe573d6000803e3d6000fd5b505050506040513d602081101561271457600080fd5b8101908080519060200190929190505050600881905550600760009054906101000a900473ffffffffffffffffffffffffffffffffffffffff1673ffffffffffffffffffffffffffffffffffffffff166355fae6116040518163ffffffff1660e01b815260040160206040518083038186803b15801561279357600080fd5b505afa1580156127a7573d6000803e3d6000fd5b505050506040513d60208110156127bd57600080fd5b8101908080519060200190929190505050600760156101000a81548162ffffff021916908362ffffff160217905550600760009054906101000a900473ffffffffffffffffffffffffffffffffffffffff1673ffffffffffffffffffffffffffffffffffffffff166399d786ca6040518163ffffffff1660e01b815260040160206040518083038186803b15801561285457600080fd5b505afa158015612868573d6000803e3d6000fd5b505050506040513d602081101561287e57600080fd5b8101908080519060200190929190505050600760186101000a81548162ffffff021916908362ffffff1602179055505b60606002826040518082805190602001908083835b602083106128e657805182526020820191506020810190506020830392506128c3565b6001836020036101000a03801982511681845116808217855250505050505090500191505090815260200160405180910390206003018054600181600116156101000203166002900480601f0160208091040260200160405190810160405280929190818152602001828054600181600116156101000203166002900480156129b05780601f10612985576101008083540402835291602001916129b0565b820191906000526020600020905b81548152906001019060200180831161299357829003601f168201915b505050505090506002826040518082805190602001908083835b602083106129ed57805182526020820191506020810190506020830392506129ca565b6001836020036101000a038019825116818451168082178552505050505050905001915050908152602001604051809103902060060154600a6000600760159054906101000a900462ffffff1662ffffff1662ffffff1681526020019081526020016000206002846040518082805190602001908083835b60208310612a885780518252602082019150602081019050602083039250612a65565b6001836020036101000a03801982511681845116808217855250505050505090500191505090815260200160405180910390206004016040518082805460018160011615610100020316600290048015612b195780601f10612af7576101008083540402835291820191612b19565b820191906000526020600020905b815481529060010190602001808311612b05575b50509150509081526020016040518091039020826040518082805190602001908083835b60208310612b605780518252602082019150602081019050602083039250612b3d565b6001836020036101000a0380198251168184511680821785525050505050509050019150509081526020016040518091039020600082825401925050819055506002826040518082805190602001908083835b60208310612bd65780518252602082019150602081019050602083039250612bb3565b6001836020036101000a038019825116818451168082178552505050505050905001915050908152602001604051809103902060060154600a6000600760159054906101000a900462ffffff1662ffffff1662ffffff16815260200190815260200160002060405180807f616c6c000000000000000000000000000000000000000000000000000000000081525060030190509081526020016040518091039020826040518082805190602001908083835b60208310612cab5780518252602082019150602081019050602083039250612c88565b6001836020036101000a038019825116818451168082178552505050505050905001915050908152602001604051809103902060008282540192505081905550600560009054906101000a900473ffffffffffffffffffffffffffffffffffffffff1673ffffffffffffffffffffffffffffffffffffffff1663a9059cbb61dead6002856040518082805190602001908083835b60208310612d625780518252602082019150602081019050602083039250612d3f565b6001836020036101000a0380198251168184511680821785525050505050509050019150509081526020016040518091039020600601546040518363ffffffff1660e01b8152600401808373ffffffffffffffffffffffffffffffffffffffff1673ffffffffffffffffffffffffffffffffffffffff16815260200182815260200192505050602060405180830381600087803b158015612e0257600080fd5b505af1158015612e16573d6000803e3d6000fd5b505050506040513d6020811015612e2c57600080fd5b81019080805190602001909291905050505060008090505b600a811015613351576000612f82612710612f746002876040518082805190602001908083835b60208310612e8e5780518252602082019150602081019050602083039250612e6b565b6001836020036101000a038019825116818451168082178552505050505050905001915050908152602001604051809103902060090185600a8110612ecf57fe5b0154612f66612710612f5860045460028c6040518082805190602001908083835b60208310612f135780518252602082019150602081019050602083039250612ef0565b6001836020036101000a038019825116818451168082178552505050505050905001915050908152602001604051809103902060060154614b4590919063ffffffff16565b614bcb90919063ffffffff16565b614b4590919063ffffffff16565b614bcb90919063ffffffff16565b9050600560009054906101000a900473ffffffffffffffffffffffffffffffffffffffff1673ffffffffffffffffffffffffffffffffffffffff1663a3594709826040518263ffffffff1660e01b815260040180828152602001915050600060405180830381600087803b158015612ff957600080fd5b505af115801561300d573d6000803e3d6000fd5b505050508060096000600660009054906101000a900473ffffffffffffffffffffffffffffffffffffffff1673ffffffffffffffffffffffffffffffffffffffff1663da3a29b9876040518263ffffffff1660e01b81526004018080602001828103825283818151815260200191508051906020019080838360005b838110156130a4578082015181840152602081019050613089565b50505050905090810190601f1680156130d15780820380516001836020036101000a031916815260200191505b509250505060206040518083038186803b1580156130ee57600080fd5b505afa158015613102573d6000803e3d6000fd5b505050506040513d602081101561311857600080fd5b810190808051906020019092919050505073ffffffffffffffffffffffffffffffffffffffff1673ffffffffffffffffffffffffffffffffffffffff16815260200190815260200160002060008282540192505081905550600660009054906101000a900473ffffffffffffffffffffffffffffffffffffffff1673ffffffffffffffffffffffffffffffffffffffff1663c2206ae7846040518263ffffffff1660e01b81526004018080602001828103825283818151815260200191508051906020019080838360005b838110156131fe5780820151818401526020810190506131e3565b50505050905090810190601f16801561322b5780820380516001836020036101000a031916815260200191505b509250505060006040518083038186803b15801561324857600080fd5b505afa15801561325c573d6000803e3d6000fd5b505050506040513d6000823e3d601f19601f82011682018060405250602081101561328657600080fd5b81019080805160405193929190846401000000008211156132a657600080fd5b838201915060208201858111156132bc57600080fd5b82518660018202830111640100000000821117156132d957600080fd5b8083526020830192505050908051906020019080838360005b8381101561330d5780820151818401526020810190506132f2565b50505050905090810190601f16801561333a5780820380516001836020036101000a031916815260200191505b506040525050509250508080600101915050612e44565b507f84214eab97f1ecc28e585deb1795ec74b18f51a584f528a3d661ee6d41251f7a826040518080602001828103825283818151815260200191508051906020019080838360005b838110156133b4578082015181840152602081019050613399565b50505050905090810190601f1680156133e15780820380516001836020036101000a031916815260200191505b509250505060405180910390a15050565b6001818051602081018201805184825260208301602085012081835280955050505050506000915054906101000a900460ff1681565b600a602052826000526040600020828051602081018201805184825260208301602085012081835280955050505050508180516020810182018051848252602083016020850120818352809550505050505060009250925050505481565b60606001151560018a6040518082805190602001908083835b602083106134c2578051825260208201915060208101905060208303925061349f565b6001836020036101000a038019825116818451168082178552505050505050905001915050908152602001604051809103902060009054906101000a900460ff161515141561355c576040517f08c379a0000000000000000000000000000000000000000000000000000000008152600401808060200182810382526025815260200180614ea86025913960400191505060405180910390fd5b60405180807f616c6c000000000000000000000000000000000000000000000000000000000081525060030190506040518091039020856040516020018082805190602001908083835b602083106135c957805182526020820191506020810190506020830392506135a6565b6001836020036101000a038019825116818451168082178552505050505050905001915050604051602081830303815290604052805190602001201415613678576040517f08c379a000000000000000000000000000000000000000000000000000000000815260040180806020018281038252601d8152602001807f4d65726368616e74206e616d652063616e6e6f742062652060616c6c6000000081525060200191505060405180910390fd5b600080600090505b600a811015613716576127108482600a811061369857fe5b602002015111156136f4576040517f08c379a000000000000000000000000000000000000000000000000000000000815260040180806020018281038252602f815260200180614e79602f913960400191505060405180910390fd5b8381600a811061370057fe5b6020020151820191508080600101915050613680565b50612710811115613772576040517f08c379a00000000000000000000000000000000000000000000000000000000081526004018080602001828103825260318152602001806150026031913960400191505060405180910390fd5b600560009054906101000a900473ffffffffffffffffffffffffffffffffffffffff1673ffffffffffffffffffffffffffffffffffffffff166323b872dd33308a6040518463ffffffff1660e01b8152600401808473ffffffffffffffffffffffffffffffffffffffff1673ffffffffffffffffffffffffffffffffffffffff1681526020018373ffffffffffffffffffffffffffffffffffffffff1673ffffffffffffffffffffffffffffffffffffffff1681526020018281526020019350505050602060405180830381600087803b15801561384f57600080fd5b505af1158015613863573d6000803e3d6000fd5b505050506040513d602081101561387957600080fd5b8101908080519060200190929190505050506001808b6040518082805190602001908083835b602083106138c2578051825260208201915060208101905060208303925061389f565b6001836020036101000a038019825116818451168082178552505050505050905001915050908152602001604051809103902060006101000a81548160ff0219169083151502179055503360028b6040518082805190602001908083835b602083106139435780518252602082019150602081019050602083039250613920565b6001836020036101000a038019825116818451168082178552505050505050905001915050908152602001604051809103902060000160006101000a81548173ffffffffffffffffffffffffffffffffffffffff021916908373ffffffffffffffffffffffffffffffffffffffff1602179055508860028b6040518082805190602001908083835b602083106139ee57805182526020820191506020810190506020830392506139cb565b6001836020036101000a03801982511681845116808217855250505050505090500191505090815260200160405180910390206001019080519060200190613a37929190614cdb565b508760028b6040518082805190602001908083835b60208310613a6f5780518252602082019150602081019050602083039250613a4c565b6001836020036101000a03801982511681845116808217855250505050505090500191505090815260200160405180910390206003019080519060200190613ab8929190614cdb565b508660028b6040518082805190602001908083835b60208310613af05780518252602082019150602081019050602083039250613acd565b6001836020036101000a0380198251168184511680821785525050505050509050019150509081526020016040518091039020600601819055508560028b6040518082805190602001908083835b60208310613b615780518252602082019150602081019050602083039250613b3e565b6001836020036101000a03801982511681845116808217855250505050505090500191505090815260200160405180910390206004019080519060200190613baa929190614cdb565b508460028b6040518082805190602001908083835b60208310613be25780518252602082019150602081019050602083039250613bbf565b6001836020036101000a03801982511681845116808217855250505050505090500191505090815260200160405180910390206005019080519060200190613c2b929190614cdb565b508360028b6040518082805190602001908083835b60208310613c635780518252602082019150602081019050602083039250613c40565b6001836020036101000a038019825116818451168082178552505050505050905001915050908152602001604051809103902060070181905550600060028b6040518082805190602001908083835b60208310613cd55780518252602082019150602081019050602083039250613cb2565b6001836020036101000a038019825116818451168082178552505050505050905001915050908152602001604051809103902060080160006101000a81548160ff02191690836002811115613d2657fe5b02179055508260028b6040518082805190602001908083835b60208310613d625780518252602082019150602081019050602083039250613d3f565b6001836020036101000a038019825116818451168082178552505050505050905001915050908152602001604051809103902060090190600a613da6929190614d5b565b50600660009054906101000a900473ffffffffffffffffffffffffffffffffffffffff1673ffffffffffffffffffffffffffffffffffffffff1663422c795f896040518263ffffffff1660e01b81526004018080602001828103825283818151815260200191508051906020019080838360005b83811015613e35578082015181840152602081019050613e1a565b50505050905090810190601f168015613e625780820380516001836020036101000a031916815260200191505b509250505060206040518083038186803b158015613e7f57600080fd5b505afa158015613e93573d6000803e3d6000fd5b505050506040513d6020811015613ea957600080fd5b8101908080519060200190929190505050156142095760028a6040518082805190602001908083835b60208310613ef55780518252602082019150602081019050602083039250613ed2565b6001836020036101000a038019825116818451168082178552505050505050905001915050908152602001604051809103902060030160028b6040518082805190602001908083835b60208310613f615780518252602082019150602081019050602083039250613f3e565b6001836020036101000a03801982511681845116808217855250505050505090500191505090815260200160405180910390206002019080546001816001161561010002031660029004613fb6929190614d9b565b50600660009054906101000a900473ffffffffffffffffffffffffffffffffffffffff1673ffffffffffffffffffffffffffffffffffffffff1663f114e135896040518263ffffffff1660e01b81526004018080602001828103825283818151815260200191508051906020019080838360005b8381101561404557808201518184015260208101905061402a565b50505050905090810190601f1680156140725780820380516001836020036101000a031916815260200191505b509250505060006040518083038186803b15801561408f57600080fd5b505afa1580156140a3573d6000803e3d6000fd5b505050506040513d6000823e3d601f19601f8201168201806040525060208110156140cd57600080fd5b81019080805160405193929190846401000000008211156140ed57600080fd5b8382019150602082018581111561410357600080fd5b825186600182028301116401000000008211171561412057600080fd5b8083526020830192505050908051906020019080838360005b83811015614154578082015181840152602081019050614139565b50505050905090810190601f1680156141815780820380516001836020036101000a031916815260200191505b5060405250505060028b6040518082805190602001908083835b602083106141be578051825260208201915060208101905060208303925061419b565b6001836020036101000a03801982511681845116808217855250505050505090500191505090815260200160405180910390206003019080519060200190614207929190614cdb565b505b7f7bd861c378c0c27c2ef51a6a3ab8e51c592ca6094cd8f5073e34af2e88f9f4c48a8a8a8a8a8a8a8a60405180806020018060200180602001898152602001806020018060200188815260200187600a60200280838360005b8381101561427d578082015181840152602081019050614262565b5050505090500186810386528e818151815260200191508051906020019080838360005b838110156142bc5780820151818401526020810190506142a1565b50505050905090810190601f1680156142e95780820380516001836020036101000a031916815260200191505b5086810385528d818151815260200191508051906020019080838360005b83811015614322578082015181840152602081019050614307565b50505050905090810190601f16801561434f5780820380516001836020036101000a031916815260200191505b5086810384528c818151815260200191508051906020019080838360005b8381101561438857808201518184015260208101905061436d565b50505050905090810190601f1680156143b55780820380516001836020036101000a031916815260200191505b5086810383528a818151815260200191508051906020019080838360005b838110156143ee5780820151818401526020810190506143d3565b50505050905090810190601f16801561441b5780820380516001836020036101000a031916815260200191505b50868103825289818151815260200191508051906020019080838360005b83811015614454578082015181840152602081019050614439565b50505050905090810190601f1680156144815780820380516001836020036101000a031916815260200191505b509d505050505050505050505050505060405180910390a16040518060400160405280600481526020017f646f6e650000000000000000000000000000000000000000000000000000000081525091505098975050505050505050565b3373ffffffffffffffffffffffffffffffffffffffff166000809054906101000a900473ffffffffffffffffffffffffffffffffffffffff1673ffffffffffffffffffffffffffffffffffffffff16146145a0576040517f08c379a00000000000000000000000000000000000000000000000000000000081526004018080602001828103825260168152602001807f4f6e6c7920726f6f742061646d696e2063616e20646f0000000000000000000081525060200191505060405180910390fd5b600760149054906101000a900460ff1615614606576040517f08c379a000000000000000000000000000000000000000000000000000000000815260040180806020018281038252602c815260200180614ecd602c913960400191505060405180910390fd5b6001600760146101000a81548160ff02191690831515021790555080600560006101000a81548173ffffffffffffffffffffffffffffffffffffffff021916908373ffffffffffffffffffffffffffffffffffffffff16021790555050565b6060600660009054906101000a900473ffffffffffffffffffffffffffffffffffffffff1673ffffffffffffffffffffffffffffffffffffffff1663c2206ae7836040518263ffffffff1660e01b81526004018080602001828103825283818151815260200191508051906020019080838360005b838110156146f55780820151818401526020810190506146da565b50505050905090810190601f1680156147225780820380516001836020036101000a031916815260200191505b509250505060006040518083038186803b15801561473f57600080fd5b505afa158015614753573d6000803e3d6000fd5b505050506040513d6000823e3d601f19601f82011682018060405250602081101561477d57600080fd5b810190808051604051939291908464010000000082111561479d57600080fd5b838201915060208201858111156147b357600080fd5b82518660018202830111640100000000821117156147d057600080fd5b8083526020830192505050908051906020019080838360005b838110156148045780820151818401526020810190506147e9565b50505050905090810190601f1680156148315780820380516001836020036101000a031916815260200191505b506040525050509050919050565b6000600660009054906101000a900473ffffffffffffffffffffffffffffffffffffffff1673ffffffffffffffffffffffffffffffffffffffff1663da3a29b9836040518263ffffffff1660e01b81526004018080602001828103825283818151815260200191508051906020019080838360005b838110156148cf5780820151818401526020810190506148b4565b50505050905090810190601f1680156148fc5780820380516001836020036101000a031916815260200191505b509250505060206040518083038186803b15801561491957600080fd5b505afa15801561492d573d6000803e3d6000fd5b505050506040513d602081101561494357600080fd5b81019080805190602001909291905050509050919050565b3373ffffffffffffffffffffffffffffffffffffffff166000809054906101000a900473ffffffffffffffffffffffffffffffffffffffff1673ffffffffffffffffffffffffffffffffffffffff1614614a1d576040517f08c379a00000000000000000000000000000000000000000000000000000000081526004018080602001828103825260168152602001807f4f6e6c7920726f6f742061646d696e2063616e20646f0000000000000000000081525060200191505060405180910390fd5b8060048190555050565b60096020528060005260406000206000915090505481565b3373ffffffffffffffffffffffffffffffffffffffff166000809054906101000a900473ffffffffffffffffffffffffffffffffffffffff1673ffffffffffffffffffffffffffffffffffffffff1614614b01576040517f08c379a00000000000000000000000000000000000000000000000000000000081526004018080602001828103825260168152602001807f4f6e6c7920726f6f742061646d696e2063616e20646f0000000000000000000081525060200191505060405180910390fd5b80600660006101000a81548173ffffffffffffffffffffffffffffffffffffffff021916908373ffffffffffffffffffffffffffffffffffffffff16021790555050565b600080831415614b585760009050614bc5565b6000828402905082848281614b6957fe5b0414614bc0576040517f08c379a0000000000000000000000000000000000000000000000000000000008152600401808060200182810382526021815260200180614f2c6021913960400191505060405180910390fd5b809150505b92915050565b6000614c0d83836040518060400160405280601a81526020017f536166654d6174683a206469766973696f6e206279207a65726f000000000000815250614c15565b905092915050565b60008083118290614cc1576040517f08c379a00000000000000000000000000000000000000000000000000000000081526004018080602001828103825283818151815260200191508051906020019080838360005b83811015614c86578082015181840152602081019050614c6b565b50505050905090810190601f168015614cb35780820380516001836020036101000a031916815260200191505b509250505060405180910390fd5b506000838581614ccd57fe5b049050809150509392505050565b828054600181600116156101000203166002900490600052602060002090601f016020900481019282601f10614d1c57805160ff1916838001178555614d4a565b82800160010185558215614d4a579182015b82811115614d49578251825591602001919060010190614d2e565b5b509050614d579190614e22565b5090565b82600a8101928215614d8a579160200282015b82811115614d89578251825591602001919060010190614d6e565b5b509050614d979190614e22565b5090565b828054600181600116156101000203166002900490600052602060002090601f016020900481019282601f10614dd45780548555614e11565b82800160010185558215614e1157600052602060002091601f016020900482015b82811115614e10578254825591600101919060010190614df5565b5b509050614e1e9190614e22565b5090565b614e4491905b80821115614e40576000816000905550600101614e28565b5090565b9056fe4f6e6c792074686520697373756572206f662074686973207472616e73616374696f6e2063616e207265766f6b6520697445616368207265665f726174652076616c75652063616e6e6f742062652067726561746572207468616e203130302543616e20696e73657274206e6f6e2d61637469766520756e6971756520554944206f6e6c79504f4320546f6b656e20416464726573732063616e2062652075706461746564206f6e6c7920312074696d6543616e6e6f74207265766f6b652074686973207472616e73616374696f6e20626563617573652074696d65206973206f766572536166654d6174683a206d756c7469706c69636174696f6e206f766572666c6f774f6e6c7920414354495645207472616e73616374696f6e2063616e206265206469737472696275746564466f756e646174696f6e2063616e6e6f7420776974686472617720756e74696c206d6967726174696f6e206c6f636b206973206f7665724f6e6c7920414354495645207472616e73616374696f6e2063616e206265207265766f6b6564506f6f6c20646f65736e74206861766520656e6f75676820746f6b656e20666f72207769746864726177203f3f3f546f74616c206f6620726577617264206c6576656c2063616e6e6f742062652067726561746572207468616e2031303025a265627a7a72315820ec15d1f2bfe5c02bdab973977defb3eec10f05ddd6b76a5a3278652fc623e4bb64736f6c63430005100032",
  "source": "pragma solidity ^0.5.0;\n\nimport \"@openzeppelin/contracts/math/SafeMath.sol\";\nimport \"./interfaces/PocTokenInterface.sol\";\nimport \"./interfaces/CitizenInterface.sol\";\nimport \"./interfaces/DateTimeInterface.sol\";\n\ncontract POC_Pool {\n    using SafeMath for uint256;\n    event transactionAdded(string _uid, string _username, string _ref_by, uint256 _amount, string _merchant, string _subid, uint256 _release, uint256[10] _ref_rates);\n    event transactionRevoked(string _uid);\n    event transactionDistributed(string _uid);\n    event migrationSet(uint256 _migration_lock);\n    event tokenWithdrawed(address _wallet_address);\n\n    modifier onlyAdmin() {\n        require(root_admin == msg.sender, \"Only root admin can do\");\n        _;\n    }\n\n    address private root_admin;\n    enum txstatus { ACTIVE, DISTRIBUTED, REVOKED } // ACTIVE = 0, DISTRIBUTED = 1, REVOKED = 2\n\n\n    struct Transaction {\n        address issuer;\n        string username;\n        string aliases;\n        string ref_by;\n        string merchant;\n        string subid;\n        uint256 amount;\n        uint256 release;\n        txstatus status;\n        uint256[10] ref_rates; \n    }\n\n    mapping (string => bool) public isUid;\n    mapping (string => Transaction) public transaction;\n    uint256 ONE_MONTH = 2592000;\n    uint256 mint_rate = 9000; // over 10000\n    PocTokenInterface private poc_token;\n    CitizenInterface private citizen;\n    DateTimeInterface private datetime;\n    bool private set_poc_token_address;\n\n    // Declaration for stats variables\n    uint24 this_month;\n    uint24 last_month;\n    uint256 first_of_next_month;\n    mapping (address => uint256) public balance;\n    mapping (uint24 => mapping (string => mapping (string => uint256))) public direct_revenue;\n\n    /*\n        Declaration for Pool upgrade\n        In case we need to upgrade Pool, foundation has ability to stop this pool,\n        within 30 days, citizens can withdraw their balance,\n        after that foundation will be able to withdraw the rest\n    */\n    uint256 migration_lock = 253370764800; // 01-01-9999 very very far from now\n\n    constructor (address _datetime_contract) public {\n        root_admin = msg.sender;\n        datetime = DateTimeInterface(_datetime_contract);\n    }\n\n    function setPocTokenAddress(address _poc_token) public onlyAdmin() {\n        require(!set_poc_token_address, \"POC Token Address can be updated only 1 time\");\n        set_poc_token_address = true;\n        poc_token = PocTokenInterface(_poc_token);\n    }\n\n    function setCitizenAddress(address _citizen) public onlyAdmin() {\n        citizen = CitizenInterface(_citizen);\n    }\n\n    function setMigration() public onlyAdmin() {\n        migration_lock = block.timestamp + ONE_MONTH;\n        emit migrationSet(migration_lock);\n    }\n\n    function setMintRate(uint256 _mint_rate) public onlyAdmin() {\n        mint_rate = _mint_rate;\n    }\n\n    function migrationWithdraw() public onlyAdmin() returns (bool) {\n        require(migration_lock < block.timestamp, \"Foundation cannot withdraw until migration lock is over\");\n        poc_token.transfer(citizen.getFoundationWallet(), poc_token.balanceOf(address(this)));\n    }\n\n    function addTransaction(string memory _uid, string memory _username, string memory _ref_by, uint256 _amount, string memory _merchant, string memory _subid, uint256 _release, uint256[10] memory _ref_rates) public returns (string memory) {\n        require(isUid[_uid] != true, \"Can insert non-active unique UID only\");\n        require(keccak256(abi.encodePacked(_merchant)) != keccak256(\"all\"), \"Merchant name cannot be `all`\");\n        uint256 _total_ref_rate;\n        for (uint i = 0; i<10; i++) {\n            require(_ref_rates[i] <= 10000, \"Each ref_rate value cannot be greater than 100%\");\n            _total_ref_rate = _total_ref_rate + _ref_rates[i];\n        }\n        require(_total_ref_rate <= 10000, \"Total of reward level cannot be greater than 100%\");\n        // Send token from msg.sender to Pool\n        poc_token.transferFrom(msg.sender, address(this), _amount);\n\n        isUid[_uid] = true;\n\n        transaction[_uid].issuer = msg.sender;\n        transaction[_uid].username = _username;\n        transaction[_uid].ref_by = _ref_by;\n        transaction[_uid].amount = _amount;\n        transaction[_uid].merchant = _merchant;\n        transaction[_uid].subid = _subid;\n        transaction[_uid].release = _release; // 90s of time variation is not really important\n        transaction[_uid].status = txstatus.ACTIVE;\n        transaction[_uid].ref_rates = _ref_rates;\n\n        // Check if it is ref by an alias\n        if (citizen.isAlias(_ref_by)) {\n            transaction[_uid].aliases = transaction[_uid].ref_by;\n            transaction[_uid].ref_by = citizen.getUsernameFromAlias(_ref_by);\n        }\n\n        emit transactionAdded(_uid, _username, _ref_by, _amount, _merchant, _subid, _release, _ref_rates);\n        return \"done\";\n    }\n\n    function revokeTransaction(string memory _uid) public returns (string memory) {\n        require(transaction[_uid].status == txstatus.ACTIVE, \"Only ACTIVE transaction can be revoked\");\n        require(transaction[_uid].release > block.timestamp, \"Cannot revoke this transaction because time is over\");\n        require(transaction[_uid].issuer == msg.sender,\"Only the issuer of this transaction can revoke it\");\n        transaction[_uid].status = txstatus.REVOKED;\n\n        // Refund to Issuer\n        // poc_token.transfer(transaction[_uid].issuer, transaction[_uid].amount);\n        balance[transaction[_uid].issuer] += transaction[_uid].amount;\n        delete isUid[_uid];\n        emit transactionRevoked(_uid);\n        return \"done\";\n    }\n\n    function distributeTransaction(string memory _uid) public {\n        require(transaction[_uid].status == txstatus.ACTIVE, \"Only ACTIVE transaction can be distributed\");\n        require(block.timestamp >= transaction[_uid].release, \"Transaction is not releasable\");\n        // Update transaction's status\n        transaction[_uid].status = txstatus.DISTRIBUTED;\n        // Check if we are on the new month\n        if (first_of_next_month < block.timestamp) {\n            first_of_next_month = datetime.firstOfNextMonth();\n            this_month = datetime.thisMonth();\n            last_month = datetime.lastMonth();\n        }\n\n        // Add direct_revenue\n        string memory _current_ref_by;\n\n        _current_ref_by = transaction[_uid].ref_by;\n        direct_revenue[this_month][transaction[_uid].merchant][_current_ref_by] += transaction[_uid].amount;\n        direct_revenue[this_month][\"all\"][_current_ref_by] += transaction[_uid].amount;\n\n        // Burn all tokens of this transaction to 0xdead\n        poc_token.transfer(address(0xdead), transaction[_uid].amount);\n\n        // Mint mint_rate / 10000 tokens to systems by referral levels\n\n        for (uint i = 0; i<10; i++) {\n            uint256 _to_distribute = transaction[_uid].amount.mul(mint_rate).div(10000).mul(transaction[_uid].ref_rates[i]).div(10000);\n            poc_token.poolMint(_to_distribute);\n            balance[citizen.getCitizenWallet(_current_ref_by)] += _to_distribute;\n            _current_ref_by = citizen.getCitizenRefBy(_current_ref_by);\n        }\n        emit transactionDistributed(_uid);\n    }\n\n    function tokenWithdraw() public {\n        require(balance[msg.sender] < poc_token.balanceOf(address(this)), \"Pool doesnt have enough token for withdraw ???\");\n        uint256 _withdraw_amount = balance[msg.sender];\n        balance[msg.sender] = 0;\n        poc_token.transfer(msg.sender, _withdraw_amount);\n        emit tokenWithdrawed(msg.sender);\n    }\n\n    function balanceOf(address _wallet_address) public view returns (uint256) {\n        return balance[_wallet_address];\n    }\n\n    function getCitizenWallet(string memory _username) public view returns (address) {\n        return citizen.getCitizenWallet(_username);\n    }\n\n    function getCitizenRefBy(string memory _username) public view returns (string memory) {\n        return citizen.getCitizenRefBy(_username);\n    }\n\n    function getDirectRevenue(string memory _username, string memory _merchant, uint24 _month) public view returns (uint256) {\n        return direct_revenue[_month][_merchant][_username];\n    }\n}",
  "sourcePath": "/home/ubuntu/projects/poc/contracts/POC_Pool.sol",
  "compiler": {
    "name": "solc",
    "version": "0.5.16+commit.9c3226ce.Emscripten.clang"
  },
  "schemaVersion": "3.0.23",
  "updatedAt": "2020-06-16T20:31:55.206Z",
  "networkType": "ethereum",
  "devdoc": {
    "methods": {}
  },
  "userdoc": {
    "methods": {}
  }
}