{
  "contractName": "ReadWrite",
  "abi": [
    {
      "constant": true,
      "inputs": [],
      "name": "readState",
      "outputs": [
        {
          "internalType": "uint256",
          "name": "",
          "type": "uint256"
        }
      ],
      "payable": false,
      "stateMutability": "view",
      "type": "function"
    },
    {
      "constant": false,
      "inputs": [
        {
          "internalType": "uint256",
          "name": "val",
          "type": "uint256"
        }
      ],
      "name": "writeState",
      "outputs": [
        {
          "internalType": "uint256",
          "name": "",
          "type": "uint256"
        }
      ],
      "payable": false,
      "stateMutability": "nonpayable",
      "type": "function"
    }
  ],
  "bytecode": "0x608060405234801561001057600080fd5b5060e28061001f6000396000f3fe6080604052348015600f57600080fd5b506004361060325760003560e01c80632778c334146037578063628e51f1146053575b600080fd5b603d6092565b6040518082815260200191505060405180910390f35b607c60048036036020811015606757600080fd5b8101908080359060200190929190505050609b565b6040518082815260200191505060405180910390f35b60008054905090565b6000816000540160008190555091905056fea265627a7a7231582082bdd7e51dd12b7c791b3eea95cbb46229c5e0c67b4cdd934c721d4137ea060f64736f6c63430005100032",
  "source": "pragma solidity >=0.4.25;\n\ncontract ReadWrite {\n    uint256 stateCount;\n    function readState() public view returns (uint256) {\n        return stateCount;\n    }\n    function writeState(uint256 val) public returns (uint256) {\n        stateCount = stateCount + val;\n    }\n}",
  "sourcePath": "/home/ubuntu/projects/poc/contracts/ReadWrite.sol",
  "compiler": {
    "name": "solc",
    "version": "0.5.16+commit.9c3226ce.Emscripten.clang"
  },
  "schemaVersion": "3.0.23",
  "updatedAt": "2020-06-16T20:31:55.256Z",
  "networkType": "ethereum",
  "devdoc": {
    "methods": {}
  },
  "userdoc": {
    "methods": {}
  }
}