{
  "contractName": "Citizen",
  "abi": [
    {
      "inputs": [],
      "payable": false,
      "stateMutability": "nonpayable",
      "type": "constructor"
    },
    {
      "anonymous": false,
      "inputs": [
        {
          "indexed": false,
          "internalType": "address",
          "name": "_admin_address",
          "type": "address"
        }
      ],
      "name": "adminAdded",
      "type": "event"
    },
    {
      "anonymous": false,
      "inputs": [
        {
          "indexed": false,
          "internalType": "address",
          "name": "_admin_address",
          "type": "address"
        }
      ],
      "name": "adminRemoved",
      "type": "event"
    },
    {
      "anonymous": false,
      "inputs": [
        {
          "indexed": false,
          "internalType": "string",
          "name": "_username",
          "type": "string"
        },
        {
          "indexed": false,
          "internalType": "string",
          "name": "_ref_by",
          "type": "string"
        },
        {
          "indexed": false,
          "internalType": "address",
          "name": "_wallet_address",
          "type": "address"
        }
      ],
      "name": "citizenAdded",
      "type": "event"
    },
    {
      "anonymous": false,
      "inputs": [
        {
          "indexed": false,
          "internalType": "string",
          "name": "_ref_by",
          "type": "string"
        },
        {
          "indexed": false,
          "internalType": "string",
          "name": "_username",
          "type": "string"
        }
      ],
      "name": "refUpdated",
      "type": "event"
    },
    {
      "anonymous": false,
      "inputs": [
        {
          "indexed": false,
          "internalType": "address",
          "name": "_wallet_address",
          "type": "address"
        },
        {
          "indexed": false,
          "internalType": "string",
          "name": "_username",
          "type": "string"
        }
      ],
      "name": "walletUpdated",
      "type": "event"
    },
    {
      "constant": true,
      "inputs": [
        {
          "internalType": "uint256",
          "name": "",
          "type": "uint256"
        }
      ],
      "name": "admin_address",
      "outputs": [
        {
          "internalType": "address",
          "name": "",
          "type": "address"
        }
      ],
      "payable": false,
      "stateMutability": "view",
      "type": "function"
    },
    {
      "constant": true,
      "inputs": [
        {
          "internalType": "string",
          "name": "",
          "type": "string"
        }
      ],
      "name": "citizen",
      "outputs": [
        {
          "internalType": "address",
          "name": "wallet_address",
          "type": "address"
        },
        {
          "internalType": "string",
          "name": "ref_by",
          "type": "string"
        },
        {
          "internalType": "bool",
          "name": "exists",
          "type": "bool"
        },
        {
          "internalType": "uint256",
          "name": "total_withdrawed",
          "type": "uint256"
        },
        {
          "internalType": "uint256",
          "name": "total_refs",
          "type": "uint256"
        },
        {
          "internalType": "uint256",
          "name": "total_sales",
          "type": "uint256"
        },
        {
          "internalType": "uint256",
          "name": "total_ref_income",
          "type": "uint256"
        }
      ],
      "payable": false,
      "stateMutability": "view",
      "type": "function"
    },
    {
      "constant": true,
      "inputs": [],
      "name": "foundation",
      "outputs": [
        {
          "internalType": "address",
          "name": "",
          "type": "address"
        }
      ],
      "payable": false,
      "stateMutability": "view",
      "type": "function"
    },
    {
      "constant": true,
      "inputs": [
        {
          "internalType": "string",
          "name": "",
          "type": "string"
        },
        {
          "internalType": "string",
          "name": "",
          "type": "string"
        }
      ],
      "name": "map_index",
      "outputs": [
        {
          "internalType": "uint256",
          "name": "",
          "type": "uint256"
        }
      ],
      "payable": false,
      "stateMutability": "view",
      "type": "function"
    },
    {
      "constant": true,
      "inputs": [
        {
          "internalType": "address",
          "name": "",
          "type": "address"
        },
        {
          "internalType": "uint256",
          "name": "",
          "type": "uint256"
        }
      ],
      "name": "wallet_usernames",
      "outputs": [
        {
          "internalType": "string",
          "name": "",
          "type": "string"
        }
      ],
      "payable": false,
      "stateMutability": "view",
      "type": "function"
    },
    {
      "constant": true,
      "inputs": [
        {
          "internalType": "address",
          "name": "_admin_address",
          "type": "address"
        }
      ],
      "name": "isAdmin",
      "outputs": [
        {
          "internalType": "bool",
          "name": "",
          "type": "bool"
        }
      ],
      "payable": false,
      "stateMutability": "view",
      "type": "function"
    },
    {
      "constant": false,
      "inputs": [
        {
          "internalType": "address",
          "name": "_foundation",
          "type": "address"
        }
      ],
      "name": "setFoundation",
      "outputs": [],
      "payable": false,
      "stateMutability": "nonpayable",
      "type": "function"
    },
    {
      "constant": false,
      "inputs": [
        {
          "internalType": "address",
          "name": "_admin_address",
          "type": "address"
        }
      ],
      "name": "addAdmin",
      "outputs": [],
      "payable": false,
      "stateMutability": "nonpayable",
      "type": "function"
    },
    {
      "constant": false,
      "inputs": [
        {
          "internalType": "address",
          "name": "_admin_address",
          "type": "address"
        }
      ],
      "name": "removeAdmin",
      "outputs": [],
      "payable": false,
      "stateMutability": "nonpayable",
      "type": "function"
    },
    {
      "constant": false,
      "inputs": [
        {
          "internalType": "string",
          "name": "_username",
          "type": "string"
        },
        {
          "internalType": "string",
          "name": "_ref_by",
          "type": "string"
        },
        {
          "internalType": "address",
          "name": "_wallet_address",
          "type": "address"
        }
      ],
      "name": "addCitizen",
      "outputs": [
        {
          "internalType": "string",
          "name": "",
          "type": "string"
        }
      ],
      "payable": false,
      "stateMutability": "nonpayable",
      "type": "function"
    },
    {
      "constant": false,
      "inputs": [
        {
          "internalType": "string",
          "name": "_ref_by",
          "type": "string"
        },
        {
          "internalType": "string",
          "name": "_username",
          "type": "string"
        }
      ],
      "name": "updateRef",
      "outputs": [],
      "payable": false,
      "stateMutability": "nonpayable",
      "type": "function"
    },
    {
      "constant": false,
      "inputs": [
        {
          "internalType": "address",
          "name": "_wallet_address",
          "type": "address"
        },
        {
          "internalType": "string",
          "name": "_username",
          "type": "string"
        }
      ],
      "name": "updateWallet",
      "outputs": [
        {
          "internalType": "string",
          "name": "",
          "type": "string"
        }
      ],
      "payable": false,
      "stateMutability": "nonpayable",
      "type": "function"
    },
    {
      "constant": true,
      "inputs": [
        {
          "internalType": "string",
          "name": "_username",
          "type": "string"
        }
      ],
      "name": "getCitizenWallet",
      "outputs": [
        {
          "internalType": "address",
          "name": "",
          "type": "address"
        }
      ],
      "payable": false,
      "stateMutability": "view",
      "type": "function"
    },
    {
      "constant": true,
      "inputs": [
        {
          "internalType": "string",
          "name": "_username",
          "type": "string"
        }
      ],
      "name": "getCitizenRefBy",
      "outputs": [
        {
          "internalType": "string",
          "name": "",
          "type": "string"
        }
      ],
      "payable": false,
      "stateMutability": "view",
      "type": "function"
    },
    {
      "constant": true,
      "inputs": [
        {
          "internalType": "string",
          "name": "_username",
          "type": "string"
        }
      ],
      "name": "getRefsTo",
      "outputs": [
        {
          "internalType": "string[]",
          "name": "",
          "type": "string[]"
        }
      ],
      "payable": false,
      "stateMutability": "view",
      "type": "function"
    },
    {
      "constant": true,
      "inputs": [
        {
          "internalType": "address",
          "name": "_wallet_address",
          "type": "address"
        }
      ],
      "name": "getUsernamesFromWallet",
      "outputs": [
        {
          "internalType": "string[]",
          "name": "",
          "type": "string[]"
        }
      ],
      "payable": false,
      "stateMutability": "view",
      "type": "function"
    },
    {
      "constant": true,
      "inputs": [],
      "name": "getFoundationWallet",
      "outputs": [
        {
          "internalType": "address",
          "name": "",
          "type": "address"
        }
      ],
      "payable": false,
      "stateMutability": "view",
      "type": "function"
    }
  ],
  "bytecode": "0x6080604052604051620000129062000388565b60405180910390206004553480156200002a57600080fd5b5033600560006101000a81548173ffffffffffffffffffffffffffffffffffffffff021916908373ffffffffffffffffffffffffffffffffffffffff16021790555033600360006101000a81548173ffffffffffffffffffffffffffffffffffffffff021916908373ffffffffffffffffffffffffffffffffffffffff1602179055506006600560009054906101000a900473ffffffffffffffffffffffffffffffffffffffff1690806001815401808255809150509060018203906000526020600020016000909192909190916101000a81548173ffffffffffffffffffffffffffffffffffffffff021916908373ffffffffffffffffffffffffffffffffffffffff16021790555050600360009054906101000a900473ffffffffffffffffffffffffffffffffffffffff166000604051620001689062000371565b908152602001604051809103902060000160006101000a81548173ffffffffffffffffffffffffffffffffffffffff021916908373ffffffffffffffffffffffffffffffffffffffff1602179055506040518060400160405280600a81526020017f666f756e646174696f6e000000000000000000000000000000000000000000008152506000604051620001fd9062000371565b908152602001604051809103902060010190805190602001906200022392919062000264565b5060016000604051620002369062000371565b908152602001604051809103902060030160006101000a81548160ff021916908315150217905550620003aa565b828054600181600116156101000203166002900490600052602060002090601f016020900481019282601f10620002a757805160ff1916838001178555620002d8565b82800160010185558215620002d8579182015b82811115620002d7578251825591602001919060010190620002ba565b5b509050620002e79190620002eb565b5090565b6200031091905b808211156200030c576000816000905550600101620002f2565b5090565b90565b600062000322600a836200039f565b91507f666f756e646174696f6e000000000000000000000000000000000000000000006000830152600a82019050919050565b6000620003646000836200039f565b9150600082019050919050565b60006200037e8262000313565b9150819050919050565b6000620003958262000355565b9150819050919050565b600081905092915050565b6127a780620003ba6000396000f3fe608060405234801561001057600080fd5b506004361061010b5760003560e01c806370480275116100a2578063cf83800111610071578063cf83800114610302578063da3a29b914610338578063db3543f514610368578063e6706cb914610384578063f9b96547146103b45761010b565b80637048027514610256578063763750ed1461027257806396e2d1b0146102a2578063c2206ae7146102d25761010b565b806341fbb050116100de57806341fbb050146101bc5780634f2ba577146101da57806368fff3a6146101f65780636ec4d9ae146102265761010b565b80631785f53c1461011057806324d7806c1461012c57806326e1e8c61461015c5780633d6c4df71461018c575b600080fd5b61012a60048036036101259190810190611c77565b6103d2565b005b61014660048036036101419190810190611c77565b6105b2565b60405161015391906123ef565b60405180910390f35b61017660048036036101719190810190611e1e565b61065c565b604051610183919061242c565b60405180910390f35b6101a660048036036101a19190810190611ca0565b610ad6565b6040516101b3919061242c565b60405180910390f35b6101c4610ea6565b6040516101d1919061230c565b60405180910390f35b6101f460048036036101ef9190810190611db2565b610ecc565b005b610210600480360361020b9190810190611e9d565b611161565b60405161021d919061256a565b60405180910390f35b610240600480360361023b9190810190611f09565b6111b2565b60405161024d919061230c565b60405180910390f35b610270600480360361026b9190810190611c77565b6111ee565b005b61028c60048036036102879190810190611cf4565b6112e4565b604051610299919061240a565b60405180910390f35b6102bc60048036036102b79190810190611c77565b6113aa565b6040516102c991906123cd565b60405180910390f35b6102ec60048036036102e79190810190611d71565b6114d2565b6040516102f9919061242c565b60405180910390f35b61031c60048036036103179190810190611d30565b611595565b60405161032f9796959493929190612357565b60405180910390f35b610352600480360361034d9190810190611d71565b6116b2565b60405161035f919061230c565b60405180910390f35b610382600480360361037d9190810190611c77565b6116fc565b005b61039e60048036036103999190810190611d71565b61183b565b6040516103ab91906123cd565b60405180910390f35b6103bc611945565b6040516103c9919061230c565b60405180910390f35b6103db336105b2565b61041a576040517f08c379a00000000000000000000000000000000000000000000000000000000081526004016104119061254a565b60405180910390fd5b6000600680549050905060008090505b818110156105ad578273ffffffffffffffffffffffffffffffffffffffff166006828154811061045657fe5b9060005260206000200160009054906101000a900473ffffffffffffffffffffffffffffffffffffffff1673ffffffffffffffffffffffffffffffffffffffff1614156105a057600560009054906101000a900473ffffffffffffffffffffffffffffffffffffffff1673ffffffffffffffffffffffffffffffffffffffff16600682815481106104e357fe5b9060005260206000200160009054906101000a900473ffffffffffffffffffffffffffffffffffffffff1673ffffffffffffffffffffffffffffffffffffffff161461059b576006818154811061053657fe5b9060005260206000200160006101000a81549073ffffffffffffffffffffffffffffffffffffffff02191690557f8adc42fe197f62d1339f8e8570b227253823274a8158b4428824e0848e9e74c583604051610592919061230c565b60405180910390a15b6105ad565b808060010191505061042a565b505050565b6000806006805490509050600080905060008090505b82811015610651578473ffffffffffffffffffffffffffffffffffffffff16600682815481106105f457fe5b9060005260206000200160009054906101000a900473ffffffffffffffffffffffffffffffffffffffff1673ffffffffffffffffffffffffffffffffffffffff1614156106445760019150610651565b80806001019150506105c8565b508092505050919050565b6060610667336105b2565b6106a6576040517f08c379a000000000000000000000000000000000000000000000000000000000815260040161069d9061254a565b60405180910390fd5b6000846040516106b691906122de565b908152602001604051809103902060030160009054906101000a900460ff1615610715576040517f08c379a000000000000000000000000000000000000000000000000000000000815260040161070c9061252a565b60405180910390fd5b61071e8461196f565b61075d576040517f08c379a0000000000000000000000000000000000000000000000000000000008152600401610754906124ca565b60405180910390fd5b6004548360405160200161077191906122de565b6040516020818303038152906040528051906020012014156107c6576040518060400160405280600a81526020017f666f756e646174696f6e0000000000000000000000000000000000000000000081525092505b826000856040516107d791906122de565b908152602001604051809103902060010190805190602001906107fb929190611ab8565b508160008560405161080d91906122de565b908152602001604051809103902060000160006101000a81548173ffffffffffffffffffffffffffffffffffffffff021916908373ffffffffffffffffffffffffffffffffffffffff160217905550600160008560405161086e91906122de565b908152602001604051809103902060030160006101000a81548160ff0219169083151502179055506000836040516108a691906122de565b9081526020016040518091039020600201805490506002846040516108cb91906122de565b9081526020016040518091039020856040516108e791906122de565b90815260200160405180910390208190555060008360405161090991906122de565b9081526020016040518091039020600201849080600181540180825580915050906001820390600052602060002001600090919290919091509080519060200190610955929190611ab8565b5050600160008373ffffffffffffffffffffffffffffffffffffffff1673ffffffffffffffffffffffffffffffffffffffff1681526020019081526020016000208054905060026109a5846119f1565b6040516109b291906122de565b9081526020016040518091039020856040516109ce91906122de565b908152602001604051809103902081905550600160008373ffffffffffffffffffffffffffffffffffffffff1673ffffffffffffffffffffffffffffffffffffffff168152602001908152602001600020849080600181540180825580915050906001820390600052602060002001600090919290919091509080519060200190610a5a929190611ab8565b50507f6b8c27a2c8d7e6146c5f01da0be0dc6d70be54a40dc2e588b03a5625784c0ede848484604051610a8f93929190612485565b60405180910390a16040518060400160405280600481526020017f646f6e650000000000000000000000000000000000000000000000000000000081525090509392505050565b6060610ae1336105b2565b610b20576040517f08c379a0000000000000000000000000000000000000000000000000000000008152600401610b179061254a565b60405180910390fd5b600160008084604051610b3391906122de565b908152602001604051809103902060000160009054906101000a900473ffffffffffffffffffffffffffffffffffffffff1673ffffffffffffffffffffffffffffffffffffffff1673ffffffffffffffffffffffffffffffffffffffff1681526020019081526020016000206002610beb600085604051610bb491906122de565b908152602001604051809103902060000160009054906101000a900473ffffffffffffffffffffffffffffffffffffffff166119f1565b604051610bf891906122de565b908152602001604051809103902083604051610c1491906122de565b90815260200160405180910390205481548110610c2d57fe5b906000526020600020016000610c439190611b38565b6002610c8f600084604051610c5891906122de565b908152602001604051809103902060000160009054906101000a900473ffffffffffffffffffffffffffffffffffffffff166119f1565b604051610c9c91906122de565b908152602001604051809103902082604051610cb891906122de565b90815260200160405180910390206000905582600083604051610cdb91906122de565b908152602001604051809103902060000160006101000a81548173ffffffffffffffffffffffffffffffffffffffff021916908373ffffffffffffffffffffffffffffffffffffffff160217905550600160008473ffffffffffffffffffffffffffffffffffffffff1673ffffffffffffffffffffffffffffffffffffffff168152602001908152602001600020805490506002610d78856119f1565b604051610d8591906122de565b908152602001604051809103902083604051610da191906122de565b908152602001604051809103902081905550600160008473ffffffffffffffffffffffffffffffffffffffff1673ffffffffffffffffffffffffffffffffffffffff168152602001908152602001600020829080600181540180825580915050906001820390600052602060002001600090919290919091509080519060200190610e2d929190611ab8565b50507ffb81e87a099fb384a4bb4764a9f0c7900bbc3c884f2edc90cef3a1d57b7b08f48383604051610e60929190612327565b60405180910390a16040518060400160405280600481526020017f646f6e6500000000000000000000000000000000000000000000000000000000815250905092915050565b600360009054906101000a900473ffffffffffffffffffffffffffffffffffffffff1681565b610ed5336105b2565b610f14576040517f08c379a0000000000000000000000000000000000000000000000000000000008152600401610f0b9061254a565b60405180910390fd5b60008082604051610f2591906122de565b9081526020016040518091039020600101604051610f4391906122f5565b90815260200160405180910390206002016002600083604051610f6691906122de565b9081526020016040518091039020600101604051610f8491906122f5565b908152602001604051809103902082604051610fa091906122de565b90815260200160405180910390205481548110610fb957fe5b906000526020600020016000610fcf9190611b38565b6002600082604051610fe191906122de565b9081526020016040518091039020600101604051610fff91906122f5565b90815260200160405180910390208160405161101b91906122de565b9081526020016040518091039020600090558160008260405161103e91906122de565b90815260200160405180910390206001019080519060200190611062929190611ab8565b5060008260405161107391906122de565b90815260200160405180910390206002018054905060028360405161109891906122de565b9081526020016040518091039020826040516110b491906122de565b9081526020016040518091039020819055506000826040516110d691906122de565b9081526020016040518091039020600201819080600181540180825580915050906001820390600052602060002001600090919290919091509080519060200190611122929190611ab8565b50507f8f68e6abb5c7530e3155cbb2c3679df43d81d282615efbad32a545d85c74bf60828260405161115592919061244e565b60405180910390a15050565b60028280516020810182018051848252602083016020850120818352809550505050505081805160208101820180518482526020830160208501208183528095505050505050600091509150505481565b600681815481106111bf57fe5b906000526020600020016000915054906101000a900473ffffffffffffffffffffffffffffffffffffffff1681565b6111f7336105b2565b611236576040517f08c379a000000000000000000000000000000000000000000000000000000000815260040161122d9061254a565b60405180910390fd5b61123f816105b2565b6112e15760068190806001815401808255809150509060018203906000526020600020016000909192909190916101000a81548173ffffffffffffffffffffffffffffffffffffffff021916908373ffffffffffffffffffffffffffffffffffffffff160217905550507fefcbb6030dbeda3448a657cc462d3fde6f3b78e2710bd7b2d9e2ab358a12e170816040516112d8919061230c565b60405180910390a15b50565b600160205281600052604060002081815481106112fd57fe5b90600052602060002001600091509150508054600181600116156101000203166002900480601f0160208091040260200160405190810160405280929190818152602001828054600181600116156101000203166002900480156113a25780601f10611377576101008083540402835291602001916113a2565b820191906000526020600020905b81548152906001019060200180831161138557829003601f168201915b505050505081565b6060600160008373ffffffffffffffffffffffffffffffffffffffff1673ffffffffffffffffffffffffffffffffffffffff168152602001908152602001600020805480602002602001604051908101604052809291908181526020016000905b828210156114c7578382906000526020600020018054600181600116156101000203166002900480601f0160208091040260200160405190810160405280929190818152602001828054600181600116156101000203166002900480156114b35780601f10611488576101008083540402835291602001916114b3565b820191906000526020600020905b81548152906001019060200180831161149657829003601f168201915b50505050508152602001906001019061140b565b505050509050919050565b60606000826040516114e491906122de565b90815260200160405180910390206001018054600181600116156101000203166002900480601f0160208091040260200160405190810160405280929190818152602001828054600181600116156101000203166002900480156115895780601f1061155e57610100808354040283529160200191611589565b820191906000526020600020905b81548152906001019060200180831161156c57829003601f168201915b50505050509050919050565b6000818051602081018201805184825260208301602085012081835280955050505050506000915090508060000160009054906101000a900473ffffffffffffffffffffffffffffffffffffffff1690806001018054600181600116156101000203166002900480601f01602080910402602001604051908101604052809291908181526020018280546001816001161561010002031660029004801561167d5780601f106116525761010080835404028352916020019161167d565b820191906000526020600020905b81548152906001019060200180831161166057829003601f168201915b5050505050908060030160009054906101000a900460ff16908060040154908060050154908060060154908060070154905087565b600080826040516116c391906122de565b908152602001604051809103902060000160009054906101000a900473ffffffffffffffffffffffffffffffffffffffff169050919050565b3373ffffffffffffffffffffffffffffffffffffffff16600560009054906101000a900473ffffffffffffffffffffffffffffffffffffffff1673ffffffffffffffffffffffffffffffffffffffff161461178c576040517f08c379a0000000000000000000000000000000000000000000000000000000008152600401611783906124ea565b60405180910390fd5b600360149054906101000a900460ff16156117dc576040517f08c379a00000000000000000000000000000000000000000000000000000000081526004016117d39061250a565b60405180910390fd5b6001600360146101000a81548160ff02191690831515021790555080600360006101000a81548173ffffffffffffffffffffffffffffffffffffffff021916908373ffffffffffffffffffffffffffffffffffffffff16021790555050565b606060008260405161184d91906122de565b9081526020016040518091039020600201805480602002602001604051908101604052809291908181526020016000905b8282101561193a578382906000526020600020018054600181600116156101000203166002900480601f0160208091040260200160405190810160405280929190818152602001828054600181600116156101000203166002900480156119265780601f106118fb57610100808354040283529160200191611926565b820191906000526020600020905b81548152906001019060200180831161190957829003601f168201915b50505050508152602001906001019061187e565b505050509050919050565b6000600360009054906101000a900473ffffffffffffffffffffffffffffffffffffffff16905090565b6000808251905060048110806119855750601281115b156119945760009150506119ec565b60208360018303815181106119a557fe5b602001015160f81c60f81b60f81c60ff1614156119c65760009150506119ec565b6030836000815181106119d557fe5b602001015160f81c60f81b60f81c60ff1614159150505b919050565b60608060146040519080825280601f01601f191660200182016040528015611a285781602001600182028038833980820191505090505b50905060008090505b6014811015611aae578060130360080260020a8473ffffffffffffffffffffffffffffffffffffffff1681611a6257fe5b0460f81b828281518110611a7257fe5b60200101907effffffffffffffffffffffffffffffffffffffffffffffffffffffffffffff1916908160001a9053508080600101915050611a31565b5080915050919050565b828054600181600116156101000203166002900490600052602060002090601f016020900481019282601f10611af957805160ff1916838001178555611b27565b82800160010185558215611b27579182015b82811115611b26578251825591602001919060010190611b0b565b5b509050611b349190611b80565b5090565b50805460018160011615610100020316600290046000825580601f10611b5e5750611b7d565b601f016020900490600052602060002090810190611b7c9190611b80565b5b50565b611ba291905b80821115611b9e576000816000905550600101611b86565b5090565b90565b600081359050611bb481612736565b92915050565b600082601f830112611bcb57600080fd5b8135611bde611bd9826125b2565b612585565b91508082526020830160208301858383011115611bfa57600080fd5b611c058382846126e3565b50505092915050565b600082601f830112611c1f57600080fd5b8135611c32611c2d826125de565b612585565b91508082526020830160208301858383011115611c4e57600080fd5b611c598382846126e3565b50505092915050565b600081359050611c718161274d565b92915050565b600060208284031215611c8957600080fd5b6000611c9784828501611ba5565b91505092915050565b60008060408385031215611cb357600080fd5b6000611cc185828601611ba5565b925050602083013567ffffffffffffffff811115611cde57600080fd5b611cea85828601611c0e565b9150509250929050565b60008060408385031215611d0757600080fd5b6000611d1585828601611ba5565b9250506020611d2685828601611c62565b9150509250929050565b600060208284031215611d4257600080fd5b600082013567ffffffffffffffff811115611d5c57600080fd5b611d6884828501611bba565b91505092915050565b600060208284031215611d8357600080fd5b600082013567ffffffffffffffff811115611d9d57600080fd5b611da984828501611c0e565b91505092915050565b60008060408385031215611dc557600080fd5b600083013567ffffffffffffffff811115611ddf57600080fd5b611deb85828601611c0e565b925050602083013567ffffffffffffffff811115611e0857600080fd5b611e1485828601611c0e565b9150509250929050565b600080600060608486031215611e3357600080fd5b600084013567ffffffffffffffff811115611e4d57600080fd5b611e5986828701611c0e565b935050602084013567ffffffffffffffff811115611e7657600080fd5b611e8286828701611c0e565b9250506040611e9386828701611ba5565b9150509250925092565b60008060408385031215611eb057600080fd5b600083013567ffffffffffffffff811115611eca57600080fd5b611ed685828601611bba565b925050602083013567ffffffffffffffff811115611ef357600080fd5b611eff85828601611bba565b9150509250929050565b600060208284031215611f1b57600080fd5b6000611f2984828501611c62565b91505092915050565b6000611f3e8383612043565b905092915050565b611f4f8161269b565b82525050565b6000611f608261262f565b611f6a818561265d565b935083602082028501611f7c8561260a565b8060005b85811015611fb85784840389528151611f998582611f32565b9450611fa483612650565b925060208a01995050600181019050611f80565b50829750879550505050505092915050565b611fd3816126ad565b82525050565b6000611fe482612645565b611fee818561267f565b9350611ffe8185602086016126f2565b61200781612725565b840191505092915050565b600061201d82612645565b6120278185612690565b93506120378185602086016126f2565b80840191505092915050565b600061204e8261263a565b612058818561266e565b93506120688185602086016126f2565b61207181612725565b840191505092915050565b60006120878261263a565b612091818561267f565b93506120a18185602086016126f2565b6120aa81612725565b840191505092915050565b6000815460018116600081146120d257600181146120f75761213b565b607f60028304166120e38187612690565b955060ff198316865280860193505061213b565b600282046121058187612690565b95506121108561261a565b60005b8281101561213257815481890152600182019150602081019050612113565b82880195505050505b505092915050565b600061215060178361267f565b91507f557365726e616d6520646f6573206e6f742076616c69640000000000000000006000830152602082019050919050565b600061219060308361267f565b91507f4f6e6c7920726f6f742061646d696e2063616e207365742074686520466f756e60008301527f646174696f6e27732061646472657373000000000000000000000000000000006020830152604082019050919050565b60006121f6602c8361267f565b91507f504f4320546f6b656e20416464726573732063616e206265207570646174656460008301527f206f6e6c7920312074696d6500000000000000000000000000000000000000006020830152604082019050919050565b600061225c60178361267f565b91507f557365726e616d6520616c7265616479206578697374730000000000000000006000830152602082019050919050565b600061229c60118361267f565b91507f4f6e6c792061646d696e2063616e20646f0000000000000000000000000000006000830152602082019050919050565b6122d8816126d9565b82525050565b60006122ea8284612012565b915081905092915050565b600061230182846120b5565b915081905092915050565b60006020820190506123216000830184611f46565b92915050565b600060408201905061233c6000830185611f46565b818103602083015261234e8184611fd9565b90509392505050565b600060e08201905061236c600083018a611f46565b818103602083015261237e818961207c565b905061238d6040830188611fca565b61239a60608301876122cf565b6123a760808301866122cf565b6123b460a08301856122cf565b6123c160c08301846122cf565b98975050505050505050565b600060208201905081810360008301526123e78184611f55565b905092915050565b60006020820190506124046000830184611fca565b92915050565b60006020820190508181036000830152612424818461207c565b905092915050565b600060208201905081810360008301526124468184611fd9565b905092915050565b600060408201905081810360008301526124688185611fd9565b9050818103602083015261247c8184611fd9565b90509392505050565b6000606082019050818103600083015261249f8186611fd9565b905081810360208301526124b38185611fd9565b90506124c26040830184611f46565b949350505050565b600060208201905081810360008301526124e381612143565b9050919050565b6000602082019050818103600083015261250381612183565b9050919050565b60006020820190508181036000830152612523816121e9565b9050919050565b600060208201905081810360008301526125438161224f565b9050919050565b600060208201905081810360008301526125638161228f565b9050919050565b600060208201905061257f60008301846122cf565b92915050565b6000604051905081810181811067ffffffffffffffff821117156125a857600080fd5b8060405250919050565b600067ffffffffffffffff8211156125c957600080fd5b601f19601f8301169050602081019050919050565b600067ffffffffffffffff8211156125f557600080fd5b601f19601f8301169050602081019050919050565b6000819050602082019050919050565b60008190508160005260206000209050919050565b600081519050919050565b600081519050919050565b600081519050919050565b6000602082019050919050565b600082825260208201905092915050565b600082825260208201905092915050565b600082825260208201905092915050565b600081905092915050565b60006126a6826126b9565b9050919050565b60008115159050919050565b600073ffffffffffffffffffffffffffffffffffffffff82169050919050565b6000819050919050565b82818337600083830152505050565b60005b838110156127105780820151818401526020810190506126f5565b8381111561271f576000848401525b50505050565b6000601f19601f8301169050919050565b61273f8161269b565b811461274a57600080fd5b50565b612756816126d9565b811461276157600080fd5b5056fea365627a7a72315820cb427cf4bb1dd0b8c4c895ccddcd26feef662198e2b96a6d91513f122e592a506c6578706572696d656e74616cf564736f6c63430005100040",
  "source": "pragma solidity ^0.5.0;\npragma experimental ABIEncoderV2;\n\nimport \"@openzeppelin/contracts/math/SafeMath.sol\";\n\n/*\nTest accounts\n1.  0xCA35b7d915458EF540aDe6068dFe2F44E8fa733c\n2.  0x14723A09ACff6D2A60DcdF7aA4AFf308FDDC160C\n3.  0x4B0897b0513fdC7C541B6d9D7E929C4e5364D2dB\n4.  0x583031D1113aD414F02576BD6afaBfb302140225\n\n*/\n\n\ncontract Citizen {\n    using SafeMath for uint256;\n\n    event adminAdded(address _admin_address);\n    event adminRemoved(address _admin_address);\n    event citizenAdded(string _username, string _ref_by, address _wallet_address);\n    event refUpdated(string _ref_by, string _username);\n    event walletUpdated(address _wallet_address, string _username);\n\n\n    modifier onlyAdmin() {\n        require(isAdmin(msg.sender), \"Only admin can do\");\n        _;\n    }\n\n    struct Profile {\n        address wallet_address;\n        string ref_by;\n        string[] refs_to;\n        bool exists;\n        uint256 total_withdrawed;\n        uint256 total_refs;\n        uint256 total_sales;\n        uint256 total_ref_income;\n    }\n\n\n    mapping (string => Profile) public citizen;\n    mapping (address => string[]) public wallet_usernames;\n    mapping (string => mapping (string => uint256)) public map_index;\n    address public foundation;\n    bool internal set_foundation_address;\n    bytes32 internal empty_string = keccak256(\"\");\n    address private root_admin;\n    address[] public admin_address;\n\n\n    function appendStr(string memory a, string memory b, string memory c, string memory d, string memory e)\n        internal pure returns (string memory) {\n        return string(abi.encodePacked(a, b, c, d, e));\n    }\n    function toString(address x) internal pure returns (string memory) {\n        bytes memory b = new bytes(20);\n        for (uint i = 0; i < 20; i++)\n            b[i] = byte(uint8(uint(x) / (2**(8*(19 - i)))));\n        return string(b);\n    }\n\n    function validUsername(string memory _username) internal pure returns(bool) {\n        uint256 len = bytes(_username).length;\n        if ((len < 4) || (len > 18)) return false; // Only 4 - 18 letters\n        if (uint(uint8(bytes(_username)[len-1])) == 32) return false; // Not ending with space\n        return uint(uint8(bytes(_username)[0])) != 48; // Not beginning with 0\n    }\n\n\n    function getOwner() internal view returns (address) {\n        return root_admin;\n    }\n\n    /* PUBLIC FUNCTIONS */\n\n    function isAdmin(address _admin_address) public view returns (bool) {\n        uint admin_count = admin_address.length;\n        bool _found = false;\n        for (uint i = 0; i<admin_count; i++) {\n            if(admin_address[i]==_admin_address){\n                _found = true;\n                break;\n            }\n        }\n        return _found;\n    }\n\n    constructor () public {\n        root_admin = msg.sender;\n        foundation = msg.sender; // Contract owner will hold foundation's funds until Foundation is established\n        admin_address.push(root_admin);\n        citizen[\"foundation\"].wallet_address = foundation;\n        citizen[\"foundation\"].ref_by = \"foundation\";\n        citizen[\"foundation\"].exists = true;\n    }\n\n    function setFoundation(address _foundation) public {\n        require(root_admin == msg.sender, \"Only root admin can set the Foundation's address\");\n        require(!set_foundation_address, \"POC Token Address can be updated only 1 time\");\n        set_foundation_address = true;\n        foundation = _foundation;\n    }\n\n    function addAdmin(address _admin_address) public onlyAdmin() {\n        if (!isAdmin(_admin_address)) {\n            admin_address.push(_admin_address);\n            emit adminAdded(_admin_address);\n        }\n    }\n\n    function removeAdmin(address _admin_address) public onlyAdmin() {\n        uint admin_count = admin_address.length;\n        for (uint i = 0; i < admin_count; i++) {\n            if(admin_address[i]==_admin_address){\n                if (admin_address[i] != root_admin) {\n                    delete admin_address[i];\n                    emit adminRemoved(_admin_address);\n                }\n                break;\n            }\n        }\n    }\n\n    function addCitizen(string memory _username, string memory _ref_by, address _wallet_address) public onlyAdmin() returns (string memory) {\n        require(!citizen[_username].exists, \"Username already exists\");\n        //Only 4 - 18 letters a-zA-Z.- without having space @ the end and 0 @ the beginning\n        require(validUsername(_username), \"Username does not valid\");\n        if (keccak256(abi.encodePacked(_ref_by)) == empty_string) _ref_by = \"foundation\";\n        citizen[_username].ref_by = _ref_by;\n        citizen[_username].wallet_address = _wallet_address;\n        citizen[_username].exists = true;\n\n        map_index[_ref_by][_username] = citizen[_ref_by].refs_to.length;\n        citizen[_ref_by].refs_to.push(_username);\n\n        map_index[toString(_wallet_address)][_username] = wallet_usernames[_wallet_address].length;\n        wallet_usernames[_wallet_address].push(_username);\n        emit citizenAdded(_username, _ref_by, _wallet_address);\n        return \"done\";\n    }\n\n    function updateRef(string memory _ref_by, string memory _username) public onlyAdmin() {\n        // Remove current index Map of refs_to\n        delete citizen[citizen[_username].ref_by].refs_to[map_index[citizen[_username].ref_by][_username]];\n        delete map_index[citizen[_username].ref_by][_username];\n\n        //Update citizen\n        citizen[_username].ref_by = _ref_by;\n        //Add refs_to\n\n        map_index[_ref_by][_username] = citizen[_ref_by].refs_to.length;\n        citizen[_ref_by].refs_to.push(_username);\n        emit refUpdated(_ref_by, _username);\n    }\n\n    function updateWallet(address _wallet_address, string memory _username) public onlyAdmin() returns (string memory) {\n        // Remove current index Map of Wallet\n        delete wallet_usernames[citizen[_username].wallet_address][map_index[toString(citizen[_username].wallet_address)][_username]];\n        delete map_index[toString(citizen[_username].wallet_address)][_username];\n\n        //Update citizen\n        citizen[_username].wallet_address = _wallet_address;\n\n        //Add wallet to username\n        map_index[toString(_wallet_address)][_username] = wallet_usernames[_wallet_address].length;\n        wallet_usernames[_wallet_address].push(_username);\n        emit walletUpdated(_wallet_address, _username);\n        return \"done\";\n    }\n\n    function getCitizenWallet(string memory _username) public view returns (address) {\n        return citizen[_username].wallet_address;\n    }\n\n    function getCitizenRefBy(string memory _username) public view returns (string memory) {\n        return citizen[_username].ref_by;\n    }\n\n    function getRefsTo(string memory _username) public view returns (string[] memory) {\n        return citizen[_username].refs_to;\n    }\n\n    function getUsernamesFromWallet(address _wallet_address) public view returns (string[] memory) {\n        return wallet_usernames[_wallet_address];\n    }\n\n    function getFoundationWallet() public view returns (address) {\n        return foundation;\n    }\n}",
  "sourcePath": "/root/poc/contracts/Citizen.sol",
  "compiler": {
    "name": "solc",
    "version": "0.5.16+commit.9c3226ce.Emscripten.clang"
  },
  "schemaVersion": "3.0.23",
  "updatedAt": "2020-02-29T15:13:55.948Z",
  "networkType": "ethereum",
  "devdoc": {
    "methods": {}
  },
  "userdoc": {
    "methods": {}
  }
}