{
  "contractName": "POC_Pool",
  "abi": [
    {
      "inputs": [
        {
          "internalType": "address",
          "name": "_datetime_contract",
          "type": "address"
        }
      ],
      "payable": false,
      "stateMutability": "nonpayable",
      "type": "constructor"
    },
    {
      "anonymous": false,
      "inputs": [
        {
          "indexed": false,
          "internalType": "uint256[10]",
          "name": "_ref_rates",
          "type": "uint256[10]"
        }
      ],
      "name": "incomeRateChanged",
      "type": "event"
    },
    {
      "anonymous": false,
      "inputs": [
        {
          "indexed": false,
          "internalType": "uint256",
          "name": "_migration_lock",
          "type": "uint256"
        }
      ],
      "name": "migrationSet",
      "type": "event"
    },
    {
      "anonymous": false,
      "inputs": [
        {
          "indexed": false,
          "internalType": "uint256[10]",
          "name": "_revenue_levels",
          "type": "uint256[10]"
        }
      ],
      "name": "revenueLevelChanged",
      "type": "event"
    },
    {
      "anonymous": false,
      "inputs": [
        {
          "indexed": false,
          "internalType": "address",
          "name": "_wallet_address",
          "type": "address"
        }
      ],
      "name": "tokenWithdrawed",
      "type": "event"
    },
    {
      "anonymous": false,
      "inputs": [
        {
          "indexed": false,
          "internalType": "string",
          "name": "_uid",
          "type": "string"
        },
        {
          "indexed": false,
          "internalType": "string",
          "name": "_username",
          "type": "string"
        },
        {
          "indexed": false,
          "internalType": "string",
          "name": "_ref_by",
          "type": "string"
        },
        {
          "indexed": false,
          "internalType": "uint256",
          "name": "_amount",
          "type": "uint256"
        },
        {
          "indexed": false,
          "internalType": "string",
          "name": "_merchant",
          "type": "string"
        },
        {
          "indexed": false,
          "internalType": "uint256",
          "name": "_release",
          "type": "uint256"
        }
      ],
      "name": "transactionAdded",
      "type": "event"
    },
    {
      "anonymous": false,
      "inputs": [
        {
          "indexed": false,
          "internalType": "string",
          "name": "_uid",
          "type": "string"
        }
      ],
      "name": "transactionDistributed",
      "type": "event"
    },
    {
      "anonymous": false,
      "inputs": [
        {
          "indexed": false,
          "internalType": "string",
          "name": "_uid",
          "type": "string"
        }
      ],
      "name": "transactionRevoked",
      "type": "event"
    },
    {
      "constant": true,
      "inputs": [
        {
          "internalType": "address",
          "name": "",
          "type": "address"
        }
      ],
      "name": "balance",
      "outputs": [
        {
          "internalType": "uint256",
          "name": "",
          "type": "uint256"
        }
      ],
      "payable": false,
      "stateMutability": "view",
      "type": "function"
    },
    {
      "constant": true,
      "inputs": [
        {
          "internalType": "uint24",
          "name": "",
          "type": "uint24"
        },
        {
          "internalType": "string",
          "name": "",
          "type": "string"
        },
        {
          "internalType": "string",
          "name": "",
          "type": "string"
        }
      ],
      "name": "direct_revenue",
      "outputs": [
        {
          "internalType": "uint256",
          "name": "",
          "type": "uint256"
        }
      ],
      "payable": false,
      "stateMutability": "view",
      "type": "function"
    },
    {
      "constant": true,
      "inputs": [
        {
          "internalType": "string",
          "name": "",
          "type": "string"
        }
      ],
      "name": "isUid",
      "outputs": [
        {
          "internalType": "bool",
          "name": "",
          "type": "bool"
        }
      ],
      "payable": false,
      "stateMutability": "view",
      "type": "function"
    },
    {
      "constant": true,
      "inputs": [
        {
          "internalType": "uint256",
          "name": "",
          "type": "uint256"
        }
      ],
      "name": "ref_rates",
      "outputs": [
        {
          "internalType": "uint256",
          "name": "",
          "type": "uint256"
        }
      ],
      "payable": false,
      "stateMutability": "view",
      "type": "function"
    },
    {
      "constant": true,
      "inputs": [
        {
          "internalType": "uint256",
          "name": "",
          "type": "uint256"
        }
      ],
      "name": "revenue_levels",
      "outputs": [
        {
          "internalType": "uint256",
          "name": "",
          "type": "uint256"
        }
      ],
      "payable": false,
      "stateMutability": "view",
      "type": "function"
    },
    {
      "constant": true,
      "inputs": [
        {
          "internalType": "string",
          "name": "",
          "type": "string"
        }
      ],
      "name": "transaction",
      "outputs": [
        {
          "internalType": "address",
          "name": "issuer",
          "type": "address"
        },
        {
          "internalType": "string",
          "name": "username",
          "type": "string"
        },
        {
          "internalType": "string",
          "name": "ref_by",
          "type": "string"
        },
        {
          "internalType": "string",
          "name": "merchant",
          "type": "string"
        },
        {
          "internalType": "uint256",
          "name": "amount",
          "type": "uint256"
        },
        {
          "internalType": "uint256",
          "name": "release",
          "type": "uint256"
        },
        {
          "internalType": "enum POC_Pool.txstatus",
          "name": "status",
          "type": "uint8"
        }
      ],
      "payable": false,
      "stateMutability": "view",
      "type": "function"
    },
    {
      "constant": false,
      "inputs": [
        {
          "internalType": "address",
          "name": "_poc_token",
          "type": "address"
        }
      ],
      "name": "setPocTokenAddress",
      "outputs": [],
      "payable": false,
      "stateMutability": "nonpayable",
      "type": "function"
    },
    {
      "constant": false,
      "inputs": [
        {
          "internalType": "address",
          "name": "_citizen",
          "type": "address"
        }
      ],
      "name": "setCitizenAddress",
      "outputs": [],
      "payable": false,
      "stateMutability": "nonpayable",
      "type": "function"
    },
    {
      "constant": false,
      "inputs": [
        {
          "internalType": "uint256[10]",
          "name": "_revenue_levels",
          "type": "uint256[10]"
        }
      ],
      "name": "setRevenueLevel",
      "outputs": [
        {
          "internalType": "bool",
          "name": "",
          "type": "bool"
        }
      ],
      "payable": false,
      "stateMutability": "nonpayable",
      "type": "function"
    },
    {
      "constant": false,
      "inputs": [],
      "name": "setMigration",
      "outputs": [],
      "payable": false,
      "stateMutability": "nonpayable",
      "type": "function"
    },
    {
      "constant": false,
      "inputs": [],
      "name": "migrationWithdraw",
      "outputs": [
        {
          "internalType": "bool",
          "name": "",
          "type": "bool"
        }
      ],
      "payable": false,
      "stateMutability": "nonpayable",
      "type": "function"
    },
    {
      "constant": false,
      "inputs": [
        {
          "internalType": "string",
          "name": "_uid",
          "type": "string"
        },
        {
          "internalType": "string",
          "name": "_username",
          "type": "string"
        },
        {
          "internalType": "string",
          "name": "_ref_by",
          "type": "string"
        },
        {
          "internalType": "uint256",
          "name": "_amount",
          "type": "uint256"
        },
        {
          "internalType": "string",
          "name": "_merchant",
          "type": "string"
        },
        {
          "internalType": "uint256",
          "name": "_release",
          "type": "uint256"
        }
      ],
      "name": "addTransaction",
      "outputs": [
        {
          "internalType": "string",
          "name": "",
          "type": "string"
        }
      ],
      "payable": false,
      "stateMutability": "nonpayable",
      "type": "function"
    },
    {
      "constant": false,
      "inputs": [
        {
          "internalType": "string",
          "name": "_uid",
          "type": "string"
        }
      ],
      "name": "revokeTransaction",
      "outputs": [
        {
          "internalType": "string",
          "name": "",
          "type": "string"
        }
      ],
      "payable": false,
      "stateMutability": "nonpayable",
      "type": "function"
    },
    {
      "constant": false,
      "inputs": [
        {
          "internalType": "string",
          "name": "_uid",
          "type": "string"
        }
      ],
      "name": "distributeTransaction",
      "outputs": [],
      "payable": false,
      "stateMutability": "nonpayable",
      "type": "function"
    },
    {
      "constant": false,
      "inputs": [],
      "name": "tokenWithdraw",
      "outputs": [],
      "payable": false,
      "stateMutability": "nonpayable",
      "type": "function"
    },
    {
      "constant": false,
      "inputs": [
        {
          "internalType": "uint256[10]",
          "name": "_ref_rates",
          "type": "uint256[10]"
        }
      ],
      "name": "setIncomeRate",
      "outputs": [
        {
          "internalType": "bool",
          "name": "",
          "type": "bool"
        }
      ],
      "payable": false,
      "stateMutability": "nonpayable",
      "type": "function"
    },
    {
      "constant": true,
      "inputs": [
        {
          "internalType": "uint256",
          "name": "_id",
          "type": "uint256"
        }
      ],
      "name": "getRefRate",
      "outputs": [
        {
          "internalType": "uint256",
          "name": "",
          "type": "uint256"
        }
      ],
      "payable": false,
      "stateMutability": "view",
      "type": "function"
    },
    {
      "constant": true,
      "inputs": [
        {
          "internalType": "address",
          "name": "_wallet_address",
          "type": "address"
        }
      ],
      "name": "balanceOf",
      "outputs": [
        {
          "internalType": "uint256",
          "name": "",
          "type": "uint256"
        }
      ],
      "payable": false,
      "stateMutability": "view",
      "type": "function"
    },
    {
      "constant": true,
      "inputs": [
        {
          "internalType": "string",
          "name": "_username",
          "type": "string"
        }
      ],
      "name": "getCitizenWallet",
      "outputs": [
        {
          "internalType": "address",
          "name": "",
          "type": "address"
        }
      ],
      "payable": false,
      "stateMutability": "view",
      "type": "function"
    },
    {
      "constant": true,
      "inputs": [
        {
          "internalType": "string",
          "name": "_username",
          "type": "string"
        }
      ],
      "name": "getCitizenRefBy",
      "outputs": [
        {
          "internalType": "string",
          "name": "",
          "type": "string"
        }
      ],
      "payable": false,
      "stateMutability": "view",
      "type": "function"
    },
    {
      "constant": true,
      "inputs": [
        {
          "internalType": "string",
          "name": "_username",
          "type": "string"
        },
        {
          "internalType": "string",
          "name": "_merchant",
          "type": "string"
        },
        {
          "internalType": "uint24",
          "name": "_month",
          "type": "uint24"
        }
      ],
      "name": "getDirectRevenue",
      "outputs": [
        {
          "internalType": "uint256",
          "name": "",
          "type": "uint256"
        }
      ],
      "payable": false,
      "stateMutability": "view",
      "type": "function"
    }
  ],
  "bytecode": "0x608060405262278d00600355612328600455604051806101400160405280600060ff168152602001600060ff168152602001600060ff168152602001600060ff168152602001600060ff168152602001600060ff168152602001600060ff168152602001600060ff168152602001600060ff168152602001600060ff16815250600b90600a62000091929190620001f6565b50604051806101400160405280610fa061ffff1681526020016105dc61ffff1681526020016102ee61ffff16815260200161017761ffff16815260200160bb61ffff168152602001606061ffff168152602001603061ffff168152602001601861ffff168152602001600d61ffff168152602001600761ffff16815250601590600a6200012092919062000240565b50643afe130e00601f553480156200013757600080fd5b5060405162004d5438038062004d54833981810160405260208110156200015d57600080fd5b8101908080519060200190929190505050336000806101000a81548173ffffffffffffffffffffffffffffffffffffffff021916908373ffffffffffffffffffffffffffffffffffffffff16021790555080600760006101000a81548173ffffffffffffffffffffffffffffffffffffffff021916908373ffffffffffffffffffffffffffffffffffffffff16021790555050620002b3565b82600a81019282156200022d579160200282015b828111156200022c578251829060ff169055916020019190600101906200020a565b5b5090506200023c91906200028b565b5090565b82600a810192821562000278579160200282015b8281111562000277578251829061ffff1690559160200191906001019062000254565b5b5090506200028791906200028b565b5090565b620002b091905b80821115620002ac57600081600090555060010162000292565b5090565b90565b614a9180620002c36000396000f3fe608060405234801561001057600080fd5b50600436106101375760003560e01c80638fe62be7116100b8578063c862016d1161007c578063c862016d14610c90578063d0ef72d814610cd2578063da3a29b914610fdf578063e3d670d7146110da578063eb9d84dc14611132578063f766a7811461117657610137565b80638fe62be7146108e257806394b539cc14610a57578063b4c1833114610a99578063c062987a14610b18578063c2206ae714610b5c57610137565b8063714d6fd0116100ff578063714d6fd0146102fe5780637cd07fed1461037d57806383063c76146105df57806388d34137146107545780638ec5ff411461080f57610137565b806330c74e041461013c57806340b9b4dc1461014657806349ce6d431461015057806368b8f9021461017257806370a08231146102a6575b600080fd5b6101446111b8565b005b61014e6114fc565b005b610158611604565b604051808215151515815260200191505060405180910390f35b61022b6004803603602081101561018857600080fd5b81019080803590602001906401000000008111156101a557600080fd5b8201836020820111156101b757600080fd5b803590602001918460018302840111640100000000831117156101d957600080fd5b91908080601f016020809104026020016040519081016040528093929190818152602001838380828437600081840152601f19601f820116905080830192505050505050509192919290505050611985565b6040518080602001828103825283818151815260200191508051906020019080838360005b8381101561026b578082015181840152602081019050610250565b50505050905090810190601f1680156102985780820380516001836020036101000a031916815260200191505b509250505060405180910390f35b6102e8600480360360208110156102bc57600080fd5b81019080803573ffffffffffffffffffffffffffffffffffffffff169060200190929190505050611f67565b6040518082815260200191505060405180910390f35b610363600480360361014081101561031557600080fd5b81019080806101400190600a806020026040519081016040528092919082600a60200280828437600081840152601f19601f8201169050808301925050505050509192919290505050611fb0565b604051808215151515815260200191505060405180910390f35b6104366004803603602081101561039357600080fd5b81019080803590602001906401000000008111156103b057600080fd5b8201836020820111156103c257600080fd5b803590602001918460018302840111640100000000831117156103e457600080fd5b91908080601f016020809104026020016040519081016040528093929190818152602001838380828437600081840152601f19601f8201169050808301925050505050505091929192905050506120ea565b604051808873ffffffffffffffffffffffffffffffffffffffff1673ffffffffffffffffffffffffffffffffffffffff16815260200180602001806020018060200187815260200186815260200185600281111561049057fe5b60ff16815260200184810384528a818151815260200191508051906020019080838360005b838110156104d05780820151818401526020810190506104b5565b50505050905090810190601f1680156104fd5780820380516001836020036101000a031916815260200191505b50848103835289818151815260200191508051906020019080838360005b8381101561053657808201518184015260208101905061051b565b50505050905090810190601f1680156105635780820380516001836020036101000a031916815260200191505b50848103825288818151815260200191508051906020019080838360005b8381101561059c578082015181840152602081019050610581565b50505050905090810190601f1680156105c95780820380516001836020036101000a031916815260200191505b509a505050505050505050505060405180910390f35b61073e600480360360608110156105f557600080fd5b810190808035906020019064010000000081111561061257600080fd5b82018360208201111561062457600080fd5b8035906020019184600183028401116401000000008311171561064657600080fd5b91908080601f016020809104026020016040519081016040528093929190818152602001838380828437600081840152601f19601f820116905080830192505050505050509192919290803590602001906401000000008111156106a957600080fd5b8201836020820111156106bb57600080fd5b803590602001918460018302840111640100000000831117156106dd57600080fd5b91908080601f016020809104026020016040519081016040528093929190818152602001838380828437600081840152601f19601f820116905080830192505050505050509192919290803562ffffff169060200190929190505050612337565b6040518082815260200191505060405180910390f35b61080d6004803603602081101561076a57600080fd5b810190808035906020019064010000000081111561078757600080fd5b82018360208201111561079957600080fd5b803590602001918460018302840111640100000000831117156107bb57600080fd5b91908080601f016020809104026020016040519081016040528093929190818152602001838380828437600081840152601f19601f82011690508083019250505050505050919291929050505061242e565b005b6108c86004803603602081101561082557600080fd5b810190808035906020019064010000000081111561084257600080fd5b82018360208201111561085457600080fd5b8035906020019184600183028401116401000000008311171561087657600080fd5b91908080601f016020809104026020016040519081016040528093929190818152602001838380828437600081840152601f19601f820116905080830192505050505050509192919290505050613546565b604051808215151515815260200191505060405180910390f35b610a41600480360360608110156108f857600080fd5b81019080803562ffffff1690602001909291908035906020019064010000000081111561092457600080fd5b82018360208201111561093657600080fd5b8035906020019184600183028401116401000000008311171561095857600080fd5b91908080601f016020809104026020016040519081016040528093929190818152602001838380828437600081840152601f19601f820116905080830192505050505050509192919290803590602001906401000000008111156109bb57600080fd5b8201836020820111156109cd57600080fd5b803590602001918460018302840111640100000000831117156109ef57600080fd5b91908080601f016020809104026020016040519081016040528093929190818152602001838380828437600081840152601f19601f82011690508083019250505050505050919291929050505061357c565b6040518082815260200191505060405180910390f35b610a8360048036036020811015610a6d57600080fd5b81019080803590602001909291905050506135da565b6040518082815260200191505060405180910390f35b610afe6004803603610140811015610ab057600080fd5b81019080806101400190600a806020026040519081016040528092919082600a60200280828437600081840152601f19601f82011690508083019250505050505091929192905050506135f2565b604051808215151515815260200191505060405180910390f35b610b5a60048036036020811015610b2e57600080fd5b81019080803573ffffffffffffffffffffffffffffffffffffffff16906020019092919050505061372c565b005b610c1560048036036020811015610b7257600080fd5b8101908080359060200190640100000000811115610b8f57600080fd5b820183602082011115610ba157600080fd5b80359060200191846001830284011164010000000083111715610bc357600080fd5b91908080601f016020809104026020016040519081016040528093929190818152602001838380828437600081840152601f19601f8201169050808301925050505050505091929192905050506138b3565b6040518080602001828103825283818151815260200191508051906020019080838360005b83811015610c55578082015181840152602081019050610c3a565b50505050905090810190601f168015610c825780820380516001836020036101000a031916815260200191505b509250505060405180910390f35b610cbc60048036036020811015610ca657600080fd5b8101908080359060200190929190505050613a8d565b6040518082815260200191505060405180910390f35b610f64600480360360c0811015610ce857600080fd5b8101908080359060200190640100000000811115610d0557600080fd5b820183602082011115610d1757600080fd5b80359060200191846001830284011164010000000083111715610d3957600080fd5b91908080601f016020809104026020016040519081016040528093929190818152602001838380828437600081840152601f19601f82011690508083019250505050505050919291929080359060200190640100000000811115610d9c57600080fd5b820183602082011115610dae57600080fd5b80359060200191846001830284011164010000000083111715610dd057600080fd5b91908080601f016020809104026020016040519081016040528093929190818152602001838380828437600081840152601f19601f82011690508083019250505050505050919291929080359060200190640100000000811115610e3357600080fd5b820183602082011115610e4557600080fd5b80359060200191846001830284011164010000000083111715610e6757600080fd5b91908080601f016020809104026020016040519081016040528093929190818152602001838380828437600081840152601f19601f8201169050808301925050505050505091929192908035906020019092919080359060200190640100000000811115610ed457600080fd5b820183602082011115610ee657600080fd5b80359060200191846001830284011164010000000083111715610f0857600080fd5b91908080601f016020809104026020016040519081016040528093929190818152602001838380828437600081840152601f19601f82011690508083019250505050505050919291929080359060200190929190505050613aa5565b6040518080602001828103825283818151815260200191508051906020019080838360005b83811015610fa4578082015181840152602081019050610f89565b50505050905090810190601f168015610fd15780820380516001836020036101000a031916815260200191505b509250505060405180910390f35b61109860048036036020811015610ff557600080fd5b810190808035906020019064010000000081111561101257600080fd5b82018360208201111561102457600080fd5b8035906020019184600183028401116401000000008311171561104657600080fd5b91908080601f016020809104026020016040519081016040528093929190818152602001838380828437600081840152601f19601f820116905080830192505050505050509192919290505050614404565b604051808273ffffffffffffffffffffffffffffffffffffffff1673ffffffffffffffffffffffffffffffffffffffff16815260200191505060405180910390f35b61111c600480360360208110156110f057600080fd5b81019080803573ffffffffffffffffffffffffffffffffffffffff169060200190929190505050614520565b6040518082815260200191505060405180910390f35b6111746004803603602081101561114857600080fd5b81019080803573ffffffffffffffffffffffffffffffffffffffff169060200190929190505050614538565b005b6111a26004803603602081101561118c57600080fd5b810190808035906020019092919050505061463e565b6040518082815260200191505060405180910390f35b600560009054906101000a900473ffffffffffffffffffffffffffffffffffffffff1673ffffffffffffffffffffffffffffffffffffffff166370a08231306040518263ffffffff1660e01b8152600401808273ffffffffffffffffffffffffffffffffffffffff1673ffffffffffffffffffffffffffffffffffffffff16815260200191505060206040518083038186803b15801561125757600080fd5b505afa15801561126b573d6000803e3d6000fd5b505050506040513d602081101561128157600080fd5b8101908080519060200190929190505050600960003373ffffffffffffffffffffffffffffffffffffffff1673ffffffffffffffffffffffffffffffffffffffff1681526020019081526020016000205410611328576040517f08c379a000000000000000000000000000000000000000000000000000000000815260040180806020018281038252602e815260200180614a2f602e913960400191505060405180910390fd5b6000600960003373ffffffffffffffffffffffffffffffffffffffff1673ffffffffffffffffffffffffffffffffffffffff1681526020019081526020016000205490506000600960003373ffffffffffffffffffffffffffffffffffffffff1673ffffffffffffffffffffffffffffffffffffffff16815260200190815260200160002081905550600560009054906101000a900473ffffffffffffffffffffffffffffffffffffffff1673ffffffffffffffffffffffffffffffffffffffff1663a9059cbb33836040518363ffffffff1660e01b8152600401808373ffffffffffffffffffffffffffffffffffffffff1673ffffffffffffffffffffffffffffffffffffffff16815260200182815260200192505050602060405180830381600087803b15801561145a57600080fd5b505af115801561146e573d6000803e3d6000fd5b505050506040513d602081101561148457600080fd5b8101908080519060200190929190505050507f10000b49c3d972f3234567e6da32a3fa2d6edf7171a2797910e5d63209650a3533604051808273ffffffffffffffffffffffffffffffffffffffff1673ffffffffffffffffffffffffffffffffffffffff16815260200191505060405180910390a150565b3373ffffffffffffffffffffffffffffffffffffffff166000809054906101000a900473ffffffffffffffffffffffffffffffffffffffff1673ffffffffffffffffffffffffffffffffffffffff16146115be576040517f08c379a00000000000000000000000000000000000000000000000000000000081526004018080602001828103825260168152602001807f4f6e6c7920726f6f742061646d696e2063616e20646f0000000000000000000081525060200191505060405180910390fd5b6003544201601f819055507f9e045fd3cdedc3841fbe12560e175797bb5058edc6b338171e2cb23552450bca601f546040518082815260200191505060405180910390a1565b60003373ffffffffffffffffffffffffffffffffffffffff166000809054906101000a900473ffffffffffffffffffffffffffffffffffffffff1673ffffffffffffffffffffffffffffffffffffffff16146116c8576040517f08c379a00000000000000000000000000000000000000000000000000000000081526004018080602001828103825260168152602001807f4f6e6c7920726f6f742061646d696e2063616e20646f0000000000000000000081525060200191505060405180910390fd5b42601f5410611722576040517f08c379a00000000000000000000000000000000000000000000000000000000081526004018080602001828103825260378152602001806149d26037913960400191505060405180910390fd5b600560009054906101000a900473ffffffffffffffffffffffffffffffffffffffff1673ffffffffffffffffffffffffffffffffffffffff1663a9059cbb600660009054906101000a900473ffffffffffffffffffffffffffffffffffffffff1673ffffffffffffffffffffffffffffffffffffffff1663f9b965476040518163ffffffff1660e01b815260040160206040518083038186803b1580156117c857600080fd5b505afa1580156117dc573d6000803e3d6000fd5b505050506040513d60208110156117f257600080fd5b8101908080519060200190929190505050600560009054906101000a900473ffffffffffffffffffffffffffffffffffffffff1673ffffffffffffffffffffffffffffffffffffffff166370a08231306040518263ffffffff1660e01b8152600401808273ffffffffffffffffffffffffffffffffffffffff1673ffffffffffffffffffffffffffffffffffffffff16815260200191505060206040518083038186803b1580156118a257600080fd5b505afa1580156118b6573d6000803e3d6000fd5b505050506040513d60208110156118cc57600080fd5b81019080805190602001909291905050506040518363ffffffff1660e01b8152600401808373ffffffffffffffffffffffffffffffffffffffff1673ffffffffffffffffffffffffffffffffffffffff16815260200182815260200192505050602060405180830381600087803b15801561194657600080fd5b505af115801561195a573d6000803e3d6000fd5b505050506040513d602081101561197057600080fd5b81019080805190602001909291905050505090565b60606000600281111561199457fe5b6002836040518082805190602001908083835b602083106119ca57805182526020820191506020810190506020830392506119a7565b6001836020036101000a038019825116818451168082178552505050505050905001915050908152602001604051809103902060060160009054906101000a900460ff166002811115611a1957fe5b14611a6f576040517f08c379a0000000000000000000000000000000000000000000000000000000008152600401808060200182810382526026815260200180614a096026913960400191505060405180910390fd5b426002836040518082805190602001908083835b60208310611aa65780518252602082019150602081019050602083039250611a83565b6001836020036101000a03801982511681845116808217855250505050505090500191505090815260200160405180910390206005015411611b33576040517f08c379a00000000000000000000000000000000000000000000000000000000081526004018080602001828103825260338152602001806149546033913960400191505060405180910390fd5b3373ffffffffffffffffffffffffffffffffffffffff166002836040518082805190602001908083835b60208310611b805780518252602082019150602081019050602083039250611b5d565b6001836020036101000a038019825116818451168082178552505050505050905001915050908152602001604051809103902060000160009054906101000a900473ffffffffffffffffffffffffffffffffffffffff1673ffffffffffffffffffffffffffffffffffffffff1614611c43576040517f08c379a00000000000000000000000000000000000000000000000000000000081526004018080602001828103825260318152602001806148d26031913960400191505060405180910390fd5b600280836040518082805190602001908083835b60208310611c7a5780518252602082019150602081019050602083039250611c57565b6001836020036101000a038019825116818451168082178552505050505050905001915050908152602001604051809103902060060160006101000a81548160ff02191690836002811115611ccb57fe5b02179055506002826040518082805190602001908083835b60208310611d065780518252602082019150602081019050602083039250611ce3565b6001836020036101000a038019825116818451168082178552505050505050905001915050908152602001604051809103902060040154600960006002856040518082805190602001908083835b60208310611d775780518252602082019150602081019050602083039250611d54565b6001836020036101000a038019825116818451168082178552505050505050905001915050908152602001604051809103902060000160009054906101000a900473ffffffffffffffffffffffffffffffffffffffff1673ffffffffffffffffffffffffffffffffffffffff1673ffffffffffffffffffffffffffffffffffffffff168152602001908152602001600020600082825401925050819055506001826040518082805190602001908083835b60208310611e4b5780518252602082019150602081019050602083039250611e28565b6001836020036101000a038019825116818451168082178552505050505050905001915050908152602001604051809103902060006101000a81549060ff02191690557ff70862650d22995dca7f2388f2979688b2687ae5c6062ac1d0af57fc884bc663826040518080602001828103825283818151815260200191508051906020019080838360005b83811015611ef0578082015181840152602081019050611ed5565b50505050905090810190601f168015611f1d5780820380516001836020036101000a031916815260200191505b509250505060405180910390a16040518060400160405280600481526020017f646f6e65000000000000000000000000000000000000000000000000000000008152509050919050565b6000600960008373ffffffffffffffffffffffffffffffffffffffff1673ffffffffffffffffffffffffffffffffffffffff168152602001908152602001600020549050919050565b60003373ffffffffffffffffffffffffffffffffffffffff166000809054906101000a900473ffffffffffffffffffffffffffffffffffffffff1673ffffffffffffffffffffffffffffffffffffffff1614612074576040517f08c379a00000000000000000000000000000000000000000000000000000000081526004018080602001828103825260168152602001807f4f6e6c7920726f6f742061646d696e2063616e20646f0000000000000000000081525060200191505060405180910390fd5b81601590600a6120859291906147ec565b507f6e91a185f870b950ba08aad712d550945e6e27bd4888fa9d397bb83793f9bf77826040518082600a60200280838360005b838110156120d35780820151818401526020810190506120b8565b5050505090500191505060405180910390a1919050565b6002818051602081018201805184825260208301602085012081835280955050505050506000915090508060000160009054906101000a900473ffffffffffffffffffffffffffffffffffffffff1690806001018054600181600116156101000203166002900480601f0160208091040260200160405190810160405280929190818152602001828054600181600116156101000203166002900480156121d25780601f106121a7576101008083540402835291602001916121d2565b820191906000526020600020905b8154815290600101906020018083116121b557829003601f168201915b505050505090806002018054600181600116156101000203166002900480601f0160208091040260200160405190810160405280929190818152602001828054600181600116156101000203166002900480156122705780601f1061224557610100808354040283529160200191612270565b820191906000526020600020905b81548152906001019060200180831161225357829003601f168201915b505050505090806003018054600181600116156101000203166002900480601f01602080910402602001604051908101604052809291908181526020018280546001816001161561010002031660029004801561230e5780601f106122e35761010080835404028352916020019161230e565b820191906000526020600020905b8154815290600101906020018083116122f157829003601f168201915b5050505050908060040154908060050154908060060160009054906101000a900460ff16905087565b6000600a60008362ffffff1662ffffff168152602001908152602001600020836040518082805190602001908083835b6020831061238a5780518252602082019150602081019050602083039250612367565b6001836020036101000a0380198251168184511680821785525050505050509050019150509081526020016040518091039020846040518082805190602001908083835b602083106123f157805182526020820191506020810190506020830392506123ce565b6001836020036101000a03801982511681845116808217855250505050505090500191505090815260200160405180910390205490509392505050565b6000600281111561243b57fe5b6002826040518082805190602001908083835b60208310612471578051825260208201915060208101905060208303925061244e565b6001836020036101000a038019825116818451168082178552505050505050905001915050908152602001604051809103902060060160009054906101000a900460ff1660028111156124c057fe5b14612516576040517f08c379a000000000000000000000000000000000000000000000000000000000815260040180806020018281038252602a8152602001806149a8602a913960400191505060405180910390fd5b6002816040518082805190602001908083835b6020831061254c5780518252602082019150602081019050602083039250612529565b6001836020036101000a0380198251168184511680821785525050505050509050019150509081526020016040518091039020600501544210156125f8576040517f08c379a000000000000000000000000000000000000000000000000000000000815260040180806020018281038252601d8152602001807f5472616e73616374696f6e206973206e6f742072656c65617361626c6500000081525060200191505060405180910390fd5b60016002826040518082805190602001908083835b60208310612630578051825260208201915060208101905060208303925061260d565b6001836020036101000a038019825116818451168082178552505050505050905001915050908152602001604051809103902060060160006101000a81548160ff0219169083600281111561268157fe5b02179055504260085410156128bc57600760009054906101000a900473ffffffffffffffffffffffffffffffffffffffff1673ffffffffffffffffffffffffffffffffffffffff1663cac6cb896040518163ffffffff1660e01b815260040160206040518083038186803b1580156126f857600080fd5b505afa15801561270c573d6000803e3d6000fd5b505050506040513d602081101561272257600080fd5b8101908080519060200190929190505050600881905550600760009054906101000a900473ffffffffffffffffffffffffffffffffffffffff1673ffffffffffffffffffffffffffffffffffffffff166355fae6116040518163ffffffff1660e01b815260040160206040518083038186803b1580156127a157600080fd5b505afa1580156127b5573d6000803e3d6000fd5b505050506040513d60208110156127cb57600080fd5b8101908080519060200190929190505050600760156101000a81548162ffffff021916908362ffffff160217905550600760009054906101000a900473ffffffffffffffffffffffffffffffffffffffff1673ffffffffffffffffffffffffffffffffffffffff166399d786ca6040518163ffffffff1660e01b815260040160206040518083038186803b15801561286257600080fd5b505afa158015612876573d6000803e3d6000fd5b505050506040513d602081101561288c57600080fd5b8101908080519060200190929190505050600760186101000a81548162ffffff021916908362ffffff1602179055505b60606002826040518082805190602001908083835b602083106128f457805182526020820191506020810190506020830392506128d1565b6001836020036101000a03801982511681845116808217855250505050505090500191505090815260200160405180910390206002018054600181600116156101000203166002900480601f0160208091040260200160405190810160405280929190818152602001828054600181600116156101000203166002900480156129be5780601f10612993576101008083540402835291602001916129be565b820191906000526020600020905b8154815290600101906020018083116129a157829003601f168201915b505050505090506002826040518082805190602001908083835b602083106129fb57805182526020820191506020810190506020830392506129d8565b6001836020036101000a038019825116818451168082178552505050505050905001915050908152602001604051809103902060040154600a6000600760159054906101000a900462ffffff1662ffffff1662ffffff1681526020019081526020016000206002846040518082805190602001908083835b60208310612a965780518252602082019150602081019050602083039250612a73565b6001836020036101000a03801982511681845116808217855250505050505090500191505090815260200160405180910390206003016040518082805460018160011615610100020316600290048015612b275780601f10612b05576101008083540402835291820191612b27565b820191906000526020600020905b815481529060010190602001808311612b13575b50509150509081526020016040518091039020826040518082805190602001908083835b60208310612b6e5780518252602082019150602081019050602083039250612b4b565b6001836020036101000a0380198251168184511680821785525050505050509050019150509081526020016040518091039020600082825401925050819055506002826040518082805190602001908083835b60208310612be45780518252602082019150602081019050602083039250612bc1565b6001836020036101000a038019825116818451168082178552505050505050905001915050908152602001604051809103902060040154600a6000600760159054906101000a900462ffffff1662ffffff1662ffffff16815260200190815260200160002060405180807f616c6c000000000000000000000000000000000000000000000000000000000081525060030190509081526020016040518091039020826040518082805190602001908083835b60208310612cb95780518252602082019150602081019050602083039250612c96565b6001836020036101000a038019825116818451168082178552505050505050905001915050908152602001604051809103902060008282540192505081905550600560009054906101000a900473ffffffffffffffffffffffffffffffffffffffff1673ffffffffffffffffffffffffffffffffffffffff1663a9059cbb61dead6002856040518082805190602001908083835b60208310612d705780518252602082019150602081019050602083039250612d4d565b6001836020036101000a0380198251168184511680821785525050505050509050019150509081526020016040518091039020600401546040518363ffffffff1660e01b8152600401808373ffffffffffffffffffffffffffffffffffffffff1673ffffffffffffffffffffffffffffffffffffffff16815260200182815260200192505050602060405180830381600087803b158015612e1057600080fd5b505af1158015612e24573d6000803e3d6000fd5b505050506040513d6020811015612e3a57600080fd5b81019080805190602001909291905050505060008090505b600a8110156134a5576000612f26612710612f18601585600a8110612e7357fe5b0154612f0a612710612efc60045460028c6040518082805190602001908083835b60208310612eb75780518252602082019150602081019050602083039250612e94565b6001836020036101000a03801982511681845116808217855250505050505090500191505090815260200160405180910390206004015461465690919063ffffffff16565b6146dc90919063ffffffff16565b61465690919063ffffffff16565b6146dc90919063ffffffff16565b9050600560009054906101000a900473ffffffffffffffffffffffffffffffffffffffff1673ffffffffffffffffffffffffffffffffffffffff1663a3594709826040518263ffffffff1660e01b815260040180828152602001915050600060405180830381600087803b158015612f9d57600080fd5b505af1158015612fb1573d6000803e3d6000fd5b505050506000612fe0670de0b6b3a7640000600b85600a8110612fd057fe5b015461465690919063ffffffff16565b600a6000600760189054906101000a900462ffffff1662ffffff1662ffffff16815260200190815260200160002060405180807f616c6c000000000000000000000000000000000000000000000000000000000081525060030190509081526020016040518091039020856040518082805190602001908083835b6020831061307e578051825260208201915060208101905060208303925061305b565b6001836020036101000a038019825116818451168082178552505050505050905001915050908152602001604051809103902054101561316057600660009054906101000a900473ffffffffffffffffffffffffffffffffffffffff1673ffffffffffffffffffffffffffffffffffffffff1663f9b965476040518163ffffffff1660e01b815260040160206040518083038186803b15801561312057600080fd5b505afa158015613134573d6000803e3d6000fd5b505050506040513d602081101561314a57600080fd5b8101908080519060200190929190505050613274565b600660009054906101000a900473ffffffffffffffffffffffffffffffffffffffff1673ffffffffffffffffffffffffffffffffffffffff1663da3a29b9856040518263ffffffff1660e01b81526004018080602001828103825283818151815260200191508051906020019080838360005b838110156131ee5780820151818401526020810190506131d3565b50505050905090810190601f16801561321b5780820380516001836020036101000a031916815260200191505b509250505060206040518083038186803b15801561323857600080fd5b505afa15801561324c573d6000803e3d6000fd5b505050506040513d602081101561326257600080fd5b81019080805190602001909291905050505b905081600960008373ffffffffffffffffffffffffffffffffffffffff1673ffffffffffffffffffffffffffffffffffffffff16815260200190815260200160002060008282540192505081905550600660009054906101000a900473ffffffffffffffffffffffffffffffffffffffff1673ffffffffffffffffffffffffffffffffffffffff1663c2206ae7856040518263ffffffff1660e01b81526004018080602001828103825283818151815260200191508051906020019080838360005b83811015613351578082015181840152602081019050613336565b50505050905090810190601f16801561337e5780820380516001836020036101000a031916815260200191505b509250505060006040518083038186803b15801561339b57600080fd5b505afa1580156133af573d6000803e3d6000fd5b505050506040513d6000823e3d601f19601f8201168201806040525060208110156133d957600080fd5b81019080805160405193929190846401000000008211156133f957600080fd5b8382019150602082018581111561340f57600080fd5b825186600182028301116401000000008211171561342c57600080fd5b8083526020830192505050908051906020019080838360005b83811015613460578082015181840152602081019050613445565b50505050905090810190601f16801561348d5780820380516001836020036101000a031916815260200191505b50604052505050935050508080600101915050612e52565b507f84214eab97f1ecc28e585deb1795ec74b18f51a584f528a3d661ee6d41251f7a826040518080602001828103825283818151815260200191508051906020019080838360005b838110156135085780820151818401526020810190506134ed565b50505050905090810190601f1680156135355780820380516001836020036101000a031916815260200191505b509250505060405180910390a15050565b6001818051602081018201805184825260208301602085012081835280955050505050506000915054906101000a900460ff1681565b600a602052826000526040600020828051602081018201805184825260208301602085012081835280955050505050508180516020810182018051848252602083016020850120818352809550505050505060009250925050505481565b601581600a81106135e757fe5b016000915090505481565b60003373ffffffffffffffffffffffffffffffffffffffff166000809054906101000a900473ffffffffffffffffffffffffffffffffffffffff1673ffffffffffffffffffffffffffffffffffffffff16146136b6576040517f08c379a00000000000000000000000000000000000000000000000000000000081526004018080602001828103825260168152602001807f4f6e6c7920726f6f742061646d696e2063616e20646f0000000000000000000081525060200191505060405180910390fd5b81600b90600a6136c79291906147ec565b507f7b6a0dc53c7e85ac9798b3f5dd4a804aa0a2d1033813fa651dfbcafaca8f11bd826040518082600a60200280838360005b838110156137155780820151818401526020810190506136fa565b5050505090500191505060405180910390a1919050565b3373ffffffffffffffffffffffffffffffffffffffff166000809054906101000a900473ffffffffffffffffffffffffffffffffffffffff1673ffffffffffffffffffffffffffffffffffffffff16146137ee576040517f08c379a00000000000000000000000000000000000000000000000000000000081526004018080602001828103825260168152602001807f4f6e6c7920726f6f742061646d696e2063616e20646f0000000000000000000081525060200191505060405180910390fd5b600760149054906101000a900460ff1615613854576040517f08c379a000000000000000000000000000000000000000000000000000000000815260040180806020018281038252602c815260200180614928602c913960400191505060405180910390fd5b6001600760146101000a81548160ff02191690831515021790555080600560006101000a81548173ffffffffffffffffffffffffffffffffffffffff021916908373ffffffffffffffffffffffffffffffffffffffff16021790555050565b6060600660009054906101000a900473ffffffffffffffffffffffffffffffffffffffff1673ffffffffffffffffffffffffffffffffffffffff1663c2206ae7836040518263ffffffff1660e01b81526004018080602001828103825283818151815260200191508051906020019080838360005b83811015613943578082015181840152602081019050613928565b50505050905090810190601f1680156139705780820380516001836020036101000a031916815260200191505b509250505060006040518083038186803b15801561398d57600080fd5b505afa1580156139a1573d6000803e3d6000fd5b505050506040513d6000823e3d601f19601f8201168201806040525060208110156139cb57600080fd5b81019080805160405193929190846401000000008211156139eb57600080fd5b83820191506020820185811115613a0157600080fd5b8251866001820283011164010000000082111715613a1e57600080fd5b8083526020830192505050908051906020019080838360005b83811015613a52578082015181840152602081019050613a37565b50505050905090810190601f168015613a7f5780820380516001836020036101000a031916815260200191505b506040525050509050919050565b600b81600a8110613a9a57fe5b016000915090505481565b6060600115156001886040518082805190602001908083835b60208310613ae15780518252602082019150602081019050602083039250613abe565b6001836020036101000a038019825116818451168082178552505050505050905001915050908152602001604051809103902060009054906101000a900460ff1615151415613b7b576040517f08c379a00000000000000000000000000000000000000000000000000000000081526004018080602001828103825260258152602001806149036025913960400191505060405180910390fd5b60405180807f616c6c000000000000000000000000000000000000000000000000000000000081525060030190506040518091039020836040516020018082805190602001908083835b60208310613be85780518252602082019150602081019050602083039250613bc5565b6001836020036101000a038019825116818451168082178552505050505050905001915050604051602081830303815290604052805190602001201415613c97576040517f08c379a000000000000000000000000000000000000000000000000000000000815260040180806020018281038252601d8152602001807f4d65726368616e74206e616d652063616e6e6f742062652060616c6c6000000081525060200191505060405180910390fd5b600560009054906101000a900473ffffffffffffffffffffffffffffffffffffffff1673ffffffffffffffffffffffffffffffffffffffff166323b872dd3330876040518463ffffffff1660e01b8152600401808473ffffffffffffffffffffffffffffffffffffffff1673ffffffffffffffffffffffffffffffffffffffff1681526020018373ffffffffffffffffffffffffffffffffffffffff1673ffffffffffffffffffffffffffffffffffffffff1681526020018281526020019350505050602060405180830381600087803b158015613d7457600080fd5b505af1158015613d88573d6000803e3d6000fd5b505050506040513d6020811015613d9e57600080fd5b810190808051906020019092919050505050600180886040518082805190602001908083835b60208310613de75780518252602082019150602081019050602083039250613dc4565b6001836020036101000a038019825116818451168082178552505050505050905001915050908152602001604051809103902060006101000a81548160ff021916908315150217905550336002886040518082805190602001908083835b60208310613e685780518252602082019150602081019050602083039250613e45565b6001836020036101000a038019825116818451168082178552505050505050905001915050908152602001604051809103902060000160006101000a81548173ffffffffffffffffffffffffffffffffffffffff021916908373ffffffffffffffffffffffffffffffffffffffff160217905550856002886040518082805190602001908083835b60208310613f135780518252602082019150602081019050602083039250613ef0565b6001836020036101000a03801982511681845116808217855250505050505090500191505090815260200160405180910390206001019080519060200190613f5c92919061482c565b50846002886040518082805190602001908083835b60208310613f945780518252602082019150602081019050602083039250613f71565b6001836020036101000a03801982511681845116808217855250505050505090500191505090815260200160405180910390206002019080519060200190613fdd92919061482c565b50836002886040518082805190602001908083835b602083106140155780518252602082019150602081019050602083039250613ff2565b6001836020036101000a038019825116818451168082178552505050505050905001915050908152602001604051809103902060040181905550826002886040518082805190602001908083835b602083106140865780518252602082019150602081019050602083039250614063565b6001836020036101000a038019825116818451168082178552505050505050905001915050908152602001604051809103902060030190805190602001906140cf92919061482c565b50816002886040518082805190602001908083835b6020831061410757805182526020820191506020810190506020830392506140e4565b6001836020036101000a03801982511681845116808217855250505050505090500191505090815260200160405180910390206005018190555060006002886040518082805190602001908083835b602083106141795780518252602082019150602081019050602083039250614156565b6001836020036101000a038019825116818451168082178552505050505050905001915050908152602001604051809103902060060160006101000a81548160ff021916908360028111156141ca57fe5b02179055507f706f85161a60dc69f8ed6183ed915cecd76cc0a894312bd597cbddded62e414e878787878787604051808060200180602001806020018781526020018060200186815260200185810385528b818151815260200191508051906020019080838360005b8381101561424e578082015181840152602081019050614233565b50505050905090810190601f16801561427b5780820380516001836020036101000a031916815260200191505b5085810384528a818151815260200191508051906020019080838360005b838110156142b4578082015181840152602081019050614299565b50505050905090810190601f1680156142e15780820380516001836020036101000a031916815260200191505b50858103835289818151815260200191508051906020019080838360005b8381101561431a5780820151818401526020810190506142ff565b50505050905090810190601f1680156143475780820380516001836020036101000a031916815260200191505b50858103825287818151815260200191508051906020019080838360005b83811015614380578082015181840152602081019050614365565b50505050905090810190601f1680156143ad5780820380516001836020036101000a031916815260200191505b509a505050505050505050505060405180910390a16040518060400160405280600481526020017f646f6e650000000000000000000000000000000000000000000000000000000081525090509695505050505050565b6000600660009054906101000a900473ffffffffffffffffffffffffffffffffffffffff1673ffffffffffffffffffffffffffffffffffffffff1663da3a29b9836040518263ffffffff1660e01b81526004018080602001828103825283818151815260200191508051906020019080838360005b83811015614494578082015181840152602081019050614479565b50505050905090810190601f1680156144c15780820380516001836020036101000a031916815260200191505b509250505060206040518083038186803b1580156144de57600080fd5b505afa1580156144f2573d6000803e3d6000fd5b505050506040513d602081101561450857600080fd5b81019080805190602001909291905050509050919050565b60096020528060005260406000206000915090505481565b3373ffffffffffffffffffffffffffffffffffffffff166000809054906101000a900473ffffffffffffffffffffffffffffffffffffffff1673ffffffffffffffffffffffffffffffffffffffff16146145fa576040517f08c379a00000000000000000000000000000000000000000000000000000000081526004018080602001828103825260168152602001807f4f6e6c7920726f6f742061646d696e2063616e20646f0000000000000000000081525060200191505060405180910390fd5b80600660006101000a81548173ffffffffffffffffffffffffffffffffffffffff021916908373ffffffffffffffffffffffffffffffffffffffff16021790555050565b6000601582600a811061464d57fe5b01549050919050565b60008083141561466957600090506146d6565b600082840290508284828161467a57fe5b04146146d1576040517f08c379a00000000000000000000000000000000000000000000000000000000081526004018080602001828103825260218152602001806149876021913960400191505060405180910390fd5b809150505b92915050565b600061471e83836040518060400160405280601a81526020017f536166654d6174683a206469766973696f6e206279207a65726f000000000000815250614726565b905092915050565b600080831182906147d2576040517f08c379a00000000000000000000000000000000000000000000000000000000081526004018080602001828103825283818151815260200191508051906020019080838360005b8381101561479757808201518184015260208101905061477c565b50505050905090810190601f1680156147c45780820380516001836020036101000a031916815260200191505b509250505060405180910390fd5b5060008385816147de57fe5b049050809150509392505050565b82600a810192821561481b579160200282015b8281111561481a5782518255916020019190600101906147ff565b5b50905061482891906148ac565b5090565b828054600181600116156101000203166002900490600052602060002090601f016020900481019282601f1061486d57805160ff191683800117855561489b565b8280016001018555821561489b579182015b8281111561489a57825182559160200191906001019061487f565b5b5090506148a891906148ac565b5090565b6148ce91905b808211156148ca5760008160009055506001016148b2565b5090565b9056fe4f6e6c792074686520697373756572206f662074686973207472616e73616374696f6e2063616e207265766f6b6520697443616e20696e73657274206e6f6e2d61637469766520756e6971756520554944206f6e6c79504f4320546f6b656e20416464726573732063616e2062652075706461746564206f6e6c7920312074696d6543616e6e6f74207265766f6b652074686973207472616e73616374696f6e20626563617573652074696d65206973206f766572536166654d6174683a206d756c7469706c69636174696f6e206f766572666c6f774f6e6c7920414354495645207472616e73616374696f6e2063616e206265206469737472696275746564466f756e646174696f6e2063616e6e6f7420776974686472617720756e74696c206d6967726174696f6e206c6f636b206973206f7665724f6e6c7920414354495645207472616e73616374696f6e2063616e206265207265766f6b6564506f6f6c20646f65736e74206861766520656e6f75676820746f6b656e20666f72207769746864726177203f3f3fa265627a7a72315820499ed003ac0f13afaff2d9b91792a74472bddc7b846e72d0c6c11a1ad1b4cbc964736f6c63430005100032",
  "source": "pragma solidity ^0.5.0;\n\nimport \"@openzeppelin/contracts/math/SafeMath.sol\";\nimport \"./interfaces/PocTokenInterface.sol\";\nimport \"./interfaces/CitizenInterface.sol\";\nimport \"./interfaces/DateTimeInterface.sol\";\n\ncontract POC_Pool {\n    using SafeMath for uint256;\n\n    event incomeRateChanged(uint256[10] _ref_rates);\n    event transactionAdded(string _uid, string _username, string _ref_by, uint256 _amount, string _merchant, uint256 _release);\n    event transactionRevoked(string _uid);\n    event transactionDistributed(string _uid);\n    event migrationSet(uint256 _migration_lock);\n    event revenueLevelChanged(uint256[10] _revenue_levels);\n    event tokenWithdrawed(address _wallet_address);\n\n    modifier onlyAdmin() {\n        require(root_admin == msg.sender, \"Only root admin can do\");\n        _;\n    }\n\n    address private root_admin;\n    enum txstatus { ACTIVE, DISTRIBUTED, REVOKED } // ACTIVE = 0, DISTRIBUTED = 1, REVOKED = 2\n\n\n    struct Transaction {\n        address issuer;\n        string username;\n        string ref_by;\n        string merchant;\n        uint256 amount;\n        uint256 release;\n        txstatus status;\n    }\n\n    mapping (string => bool) public isUid;\n    mapping (string => Transaction) public transaction;\n    uint256 ONE_MONTH = 2592000;\n    uint256 mint_rate = 9000; // over 10000\n    PocTokenInterface private poc_token;\n    CitizenInterface private citizen;\n    DateTimeInterface private datetime;\n    bool private set_poc_token_address;\n\n    // Declaration for stats variables\n    uint24 this_month;\n    uint24 last_month;\n    uint256 first_of_next_month;\n    mapping (address => uint256) public balance;\n    mapping (uint24 => mapping (string => mapping (string => uint256))) public direct_revenue;\n    // uint256[10] public revenue_levels = [50,100,300,600,1200,2500,5000,10000,20000,50000];\n    uint256[10] public revenue_levels = [0,0,0,0,0,0,0,0,0,0];\n    uint256[10] public ref_rates = [4000,1500,750,375,187,96,48,24,13,7]; // over 10000\n\n    /*\n        Declaration for Pool upgrade\n        In case we need to upgrade Pool, foundation has ability to stop this pool,\n        within 30 days, citizens can withdraw their balance,\n        after that foundation will be able to withdraw the rest\n    */\n    uint256 migration_lock = 253370764800; // 01-01-9999 very very far from now\n\n    constructor (address _datetime_contract) public {\n        root_admin = msg.sender;\n        datetime = DateTimeInterface(_datetime_contract);\n    }\n\n    function setPocTokenAddress(address _poc_token) public onlyAdmin() {\n        require(!set_poc_token_address, \"POC Token Address can be updated only 1 time\");\n        set_poc_token_address = true;\n        poc_token = PocTokenInterface(_poc_token);\n    }\n\n    function setCitizenAddress(address _citizen) public onlyAdmin() {\n        citizen = CitizenInterface(_citizen);\n    }\n\n    function setRevenueLevel(uint256[10] memory _revenue_levels) public onlyAdmin() returns (bool) {\n        revenue_levels = _revenue_levels;\n        emit revenueLevelChanged(_revenue_levels);\n    }\n\n    function setMigration() public onlyAdmin() {\n        migration_lock = block.timestamp + ONE_MONTH;\n        emit migrationSet(migration_lock);\n    }\n\n    function migrationWithdraw() public onlyAdmin() returns (bool) {\n        require(migration_lock < block.timestamp, \"Foundation cannot withdraw until migration lock is over\");\n        poc_token.transfer(citizen.getFoundationWallet(), poc_token.balanceOf(address(this)));\n    }\n\n    function addTransaction(string memory _uid, string memory _username, string memory _ref_by, uint256 _amount, string memory _merchant, uint256 _release)\n        public returns (string memory) {\n        require(isUid[_uid] != true, \"Can insert non-active unique UID only\");\n        require(keccak256(abi.encodePacked(_merchant)) != keccak256(\"all\"), \"Merchant name cannot be `all`\");\n        // Send token from msg.sender to Pool\n        poc_token.transferFrom(msg.sender, address(this), _amount);\n\n        isUid[_uid] = true;\n\n        transaction[_uid].issuer = msg.sender;\n        transaction[_uid].username = _username;\n        transaction[_uid].ref_by = _ref_by;\n        transaction[_uid].amount = _amount;\n        transaction[_uid].merchant = _merchant;\n        transaction[_uid].release = _release; // 90s of time variation is not really important\n        transaction[_uid].status = txstatus.ACTIVE;\n\n        emit transactionAdded(_uid, _username, _ref_by, _amount, _merchant, _release);\n        return \"done\";\n    }\n\n    function revokeTransaction(string memory _uid) public returns (string memory) {\n        require(transaction[_uid].status == txstatus.ACTIVE, \"Only ACTIVE transaction can be revoked\");\n        require(transaction[_uid].release > block.timestamp, \"Cannot revoke this transaction because time is over\");\n        require(transaction[_uid].issuer == msg.sender,\"Only the issuer of this transaction can revoke it\");\n        transaction[_uid].status = txstatus.REVOKED;\n\n        // Refund to Issuer\n        // poc_token.transfer(transaction[_uid].issuer, transaction[_uid].amount);\n        balance[transaction[_uid].issuer] += transaction[_uid].amount;\n        delete isUid[_uid];\n        emit transactionRevoked(_uid);\n        return \"done\";\n    }\n\n    function distributeTransaction(string memory _uid) public {\n        require(transaction[_uid].status == txstatus.ACTIVE, \"Only ACTIVE transaction can be distributed\");\n        require(block.timestamp >= transaction[_uid].release, \"Transaction is not releasable\");\n        // Update transaction's status\n        transaction[_uid].status = txstatus.DISTRIBUTED;\n\n        // Check if we are on the new month\n        if (first_of_next_month < block.timestamp) {\n            first_of_next_month = datetime.firstOfNextMonth();\n            this_month = datetime.thisMonth();\n            last_month = datetime.lastMonth();\n        }\n\n        // Add direct_revenue\n        string memory _current_ref_by;\n\n        _current_ref_by = transaction[_uid].ref_by;\n        direct_revenue[this_month][transaction[_uid].merchant][_current_ref_by] += transaction[_uid].amount;\n        direct_revenue[this_month][\"all\"][_current_ref_by] += transaction[_uid].amount;\n\n        // Burn all tokens of this transaction to 0x0\n        poc_token.transfer(address(0xdead), transaction[_uid].amount);\n\n        // Mint mint_rate / 10000 tokens to systems by referral levels\n\n        for (uint i = 0; i<10; i++) {\n            uint256 _to_distribute = transaction[_uid].amount.mul(mint_rate).div(10000).mul(ref_rates[i]).div(10000);\n            poc_token.poolMint(_to_distribute);\n            // Set beneficiary: current_ref_by has to have enough direct revenue to receive commission for this level, and also has to be a consumer @ last month\n            address _beneficiary = direct_revenue[last_month][\"all\"][_current_ref_by] >= revenue_levels[i].mul(10 ** 18) ? citizen.getCitizenWallet(_current_ref_by) : citizen.getFoundationWallet();\n            // poc_token.transfer(_beneficiary, _to_distribute);\n            balance[_beneficiary] += _to_distribute;\n            _current_ref_by = citizen.getCitizenRefBy(_current_ref_by);\n        }\n        emit transactionDistributed(_uid);\n    }\n\n    function tokenWithdraw() public {\n        require(balance[msg.sender] < poc_token.balanceOf(address(this)), \"Pool doesnt have enough token for withdraw ???\");\n        uint256 _withdraw_amount = balance[msg.sender];\n        balance[msg.sender] = 0;\n        poc_token.transfer(msg.sender, _withdraw_amount);\n        emit tokenWithdrawed(msg.sender);\n    }\n\n    function setIncomeRate(uint256[10] memory _ref_rates) public onlyAdmin() returns (bool) {\n        ref_rates = _ref_rates;\n        emit incomeRateChanged(_ref_rates);\n    }\n\n    function getRefRate(uint256 _id) public view returns (uint256) {\n        return ref_rates[_id];\n    }\n\n    function balanceOf(address _wallet_address) public view returns (uint256) {\n        return balance[_wallet_address];\n    }\n\n    function getCitizenWallet(string memory _username) public view returns (address) {\n        return citizen.getCitizenWallet(_username);\n    }\n\n    function getCitizenRefBy(string memory _username) public view returns (string memory) {\n        return citizen.getCitizenRefBy(_username);\n    }\n\n    function getDirectRevenue(string memory _username, string memory _merchant, uint24 _month) public view returns (uint256) {\n        return direct_revenue[_month][_merchant][_username];\n    }\n}",
  "sourcePath": "/root/poc/contracts/POC_Pool.sol",
  "compiler": {
    "name": "solc",
    "version": "0.5.16+commit.9c3226ce.Emscripten.clang"
  },
  "schemaVersion": "3.0.23",
  "updatedAt": "2020-02-29T15:13:55.903Z",
  "networkType": "ethereum",
  "devdoc": {
    "methods": {}
  },
  "userdoc": {
    "methods": {}
  }
}